:020000040800F2
:10400000803B0020517D0008757D0008777D000809
:104010007B7D00087F7D0008837D00080000000094
:10402000000000000000000000000000877D000884
:10403000897D0008000000008B7D00088D7D000850
:104040006B7D00086B7D00086B7D00086B7D0008B0
:104050006B7D00086B7D00081D7E00083B7E00081C
:10406000597E0008777E0008957E0008997D00083B
:104070006B7D00086B7D00086B7D00086B7D000880
:104080006B7D00086B7D00086B7D00088F7D00084C
:10409000917D00086B7D00086B7D0008B37E0008F1
:1040A0006B7D00086B7D00086B7D00086B7D000850
:1040B0006B7D00086B7D0008A77D00086B7D000804
:1040C0006B7D00086B7D00086B7D00086B7D000830
:1040D0006B7D00086B7D00086B7D00086B7D000820
:1040E000417F00086B7D00089B7D00086B7D000808
:1040F0006B7D00086B7D00086B7D00086B7D000800
:104100006B7D00086B7D0008E97D00086B7D000871
:104110006B7D00086B7D0008037E00086B7D000846
:104120006B7D00086B7D00086B7D00086B7D0008CF
:10413000DFF80CD005F07CFC0048004751800008F7
:10414000803B002030BF000031490143314A1160FB
:10415000704770B5002100230F22C47804B32D4CA2
:10416000246804F4E064C4F5E064210AC1F10403A6
:10417000CA40447804FA03F18478144021430901C9
:10418000254C0678A155047804F01F050124AC40A5
:1041900005786D11AD0005F1E025C5F8004109E095
:1041A000047804F01F050124AC401C4D06787611FC
:1041B00045F8264070BD1A4A0A400243154B1B1FA2
:1041C0001A60704739B1134A121D12680243114B2D
:1041D0001B1D1A6006E00F4A121D126882430D4B28
:1041E0001B1D1A607047042808D14FF0E0210969AF
:1041F00041F004014FF0E022116107E04FF0E021AF
:10420000096921F004014FF0E022116170470000BC
:104210000000FA050CED00E000E400E080E100E0C1
:1042200080FFFF1F0A480068000C704708480068BC
:10423000C0F30B00704729B1054A52680243044B92
:104240005A6004E0024A52688243014B5A60704748
:10425000002004E0002044490860091D0860091D91
:104260000860091D086041483F49143108607047E3
:1042700000213D498279002A3AD00A461268036833
:104280009A430B461A600A1D126803689A430B1D75
:104290001A60027911440A6803681A430A60324AB4
:1042A0000832126803689A432F4B08331A601A1DAC
:1042B000126803689A432C4B0C331A604279102A17
:1042C0000ED11A1F126803681A43274B08331A606D
:1042D0001A1D126803681A43234B0C331A600DE051
:1042E0002149427911440A6803681A430A6005E0CB
:1042F000027911440A6803689A430A6070470021F2
:10430000016001710C2141710021817170471649D2
:10431000103109680143144A103211607047014698
:104320000020114A143212680A400AB1012000E04C
:10433000002070470C491431086070470146002086
:104340000022094B1B6803EA0102074B14331B6868
:104350000B4013B10AB1012000E000207047024970
:10436000143108607047000000040140FFFF0F0097
:1043700001460020FE4A106800F038000843106033
:104380007047FB49096821F00801F94A116011469C
:104390000968014311607047F549096821F010016F
:1043A000F34A116011460968014311607047F148F2
:1043B000EF494860F04848607047EE48EC49486073
:1043C000ED4848607047EA48006940F08000E849DD
:1043D00008617047E648006940F08000E4490861E0
:1043E00070470420E249C96801F0010109B10120C8
:1043F0000EE0DF49C96801F0040109B1022007E0BD
:10440000DB49C96801F0100109B1032000E0042074
:10441000704700B502460423FFF7E3FF034603E0BD
:10442000FFF7DFFF0346521E012B01D1002AF7D10F
:1044300002B90523184600BD30B5044604254FF4E3
:104440003020FFF7E6FF0546042D17D1C848006964
:1044500040F00200C649086108464461006940F026
:10446000400008614FF43020FFF7D3FF0546C048F5
:10447000006941F6FD710840BD490861284630BD1C
:1044800010B504244FF43020FFF7C3FF0446042C7A
:1044900016D1B748006940F00400B54908610846E4
:1044A000006940F0400008614FF43020FFF7B1FF91
:1044B0000446AF48006941F6FB710840AC49086109
:1044C000204610BD00B502460423FFF78AFF0346CD
:1044D00003E0FFF786FF0346521E012B01D1002A9D
:1044E000F7D102B90523184600BD10B504244FF4D6
:1044F0003020FFF7E7FF0446042C16D19C480069E2
:1045000040F004009A4908610846006940F0400004
:1045100008614FF43020FFF7D5FF04469448006946
:1045200041F6FB71084092490861204610BD002009
:104530008F49C96901F0020109B1012000E00020A2
:10454000704730B5A5250424FFF7F1FF00B1002521
:104550004FF43020FFF75DFF0446042C3AD1854824
:1045600083498860844888600846006940F02000DC
:1045700008610846006940F0400008614FF43020AF
:10458000FFF747FF0446042C1BD17948006941F628
:10459000DF710840764908610846006940F0100064
:1045A000086176480580E002FFF733FF0446052CDA
:1045B00010D06F48006941F6EF7108406C490861FE
:1045C00008E0052C06D06A48006941F6EF71084002
:1045D00067490861204630BD78B506460C4604257B
:1045E00000200090E802FFF714FF0546042D24D1B7
:1045F0005F48006940F001005D4908613480E802CD
:10460000FFF707FF0546042D10D1B01C0090200CC9
:1046100000990880E802FFF7FCFE0546544800694F
:1046200041F6FE7108405249086106E050480069B1
:1046300041F6FE7108404E490861284678BD70B5C4
:1046400004460D460426F002FFF7E3FE0646042E5C
:1046500011D14748006940F00100454908612580B3
:10466000F002FFF7D6FE06464148006941F6FE71AA
:1046700008403F490861304670BD70B505460E469A
:104680000424E002FFF7C5FE0446042C17D1394884
:1046900037498860384888600846006940F0100053
:1046A00008612E80E002FFF7B4FE0446052C06D018
:1046B0002F48006941F6EF7108402D4908612046F6
:1046C00070BD2DE9F04304464FF6FF763746B046FD
:1046D000B1460425E443E6B2C4F30727C4F3074810
:1046E0004FEA1469E802FFF794FE0546042D49D10C
:1046F00020481F498860204888600846006940F0CB
:1047000010000861FF2E06D01C4808300680E80221
:10471000FFF77FFE0546042D08D1FF2F06D017486E
:104720000A300780E802FFF774FE0546042D0AD11F
:10473000B8F1FF0F07D011480C30A0F80080E80254
:10474000FFF767FE0546042D0AD1B9F1FF0F07D028
:104750000A480E30A0F80090E802FFF75AFE05461E
:10476000052D0FD00248006941F6EF71084007E0BF
:104770000020024023016745AB89EFCD00F8FF1F01
:10478000664908612846BDE8F08330B50546042433
:104790004FF43020FFF73DFE0446042C41D1604821
:1047A0005E4988605F4888600846006940F02000E4
:1047B00008610846006940F0400008614FF430206D
:1047C000FFF727FE0446042C22D15448006941F625
:1047D000DF710840514908610846006940F0100047
:1047E00008611DB100205049088002E0A5204E4913
:1047F00008804FF43020FFF70CFE0446052C10D043
:104800004648006941F6EF7108404449086108E0F4
:10481000052C06D04148006941F6DF7108403F4948
:104820000861204630BDF0B505460E461746042403
:104830003B483A4988603B488860E002FFF7E9FD61
:104840000446042C19D13548006940F01000334962
:10485000086147F0F800304328433349891C088039
:10486000E002FFF7D6FD0446052C06D02B48006970
:1048700041F6EF710840294908612046F0BD2748FC
:10488000C069800870472548006A704700202349A6
:10489000096801F0200109B1012000E00020704703
:1048A00029B11E4A126902431C4B1A6104E01B4ADB
:1048B00012698243194B1A61704701460020012991
:1048C00008D1164AD26902F001020AB1012008E0BB
:1048D000002006E0114AD2680A400AB1012000E037
:1048E000002070470D49C860704704200B49C96813
:1048F00001F0010109B101200EE00849C96801F089
:10490000040109B1022007E00449C96801F010015F
:1049100009B1032000E0042070470000002002409D
:1049200023016745AB89EFCD00F8FF1F10B50446A2
:10493000CC48844208D10121042000F02DFB002145
:10494000042000F029FB46E0C748844208D1012139
:10495000082000F021FB0021082000F01DFB3AE0B8
:10496000C248844208D10121102000F015FB00212B
:10497000102000F011FB2EE0BD48844208D1012137
:10498000202000F009FB0021202000F005FB22E0A0
:10499000B848844208D10121402000F0FDFA0021EE
:1049A000402000F0F9FA16E0B348844208D1012112
:1049B000802000F0F1FA0021802000F0EDFA0AE0FA
:1049C000AE48844207D10121801500F0E5FA0021AC
:1049D000A01500F0E1FA10BD10B50121084600F065
:1049E000DBFA0021012000F0D7FA10BD2DE9F041DB
:1049F000024600250026002000230024002791F80D
:104A000003C00CF00F0591F803C00CF0100CBCF1C2
:104A1000000F03D091F802C04CEA050591F800C0E0
:104A2000BCF1000F31D0146800202BE04FF0010CD6
:104A30000CFA00F3B1F800C00CEA03069E4220D144
:104A400083004FF00F0C0CFA03F7BC4305FA03FC8C
:104A50004CEA040491F803C0BCF1280F06D14FF0D2
:104A6000010C0CFA00FCC2F814C00AE091F803C073
:104A7000BCF1480F05D14FF0010C0CFA00FCC2F854
:104A800010C0401C0828D1D31460B1F800C0BCF19C
:104A9000FF0F34DD546800202EE000F1080C4FF0C9
:104AA000010808FA0CF3B1F800C00CEA03069E42B4
:104AB00021D183004FF00F0C0CFA03F7BC4305FA29
:104AC00003FC4CEA040491F803C0BCF1280F05D1A3
:104AD00000F1080C08FA0CF8C2F8148091F803C031
:104AE000BCF1480F07D100F1080C4FF0010808FA9B
:104AF0000CF8C2F81080401C0828CED35460BDE8E2
:104B0000F0814FF6FF710180022181700421C17094
:104B100070470246002093680B400BB1012000E073
:104B2000002070470146886880B270470246002026
:104B3000D3680B400BB1012000E000207047014614
:104B4000C86880B2704701617047416170470AB11F
:104B5000016100E041617047C16070474FF48032ED
:104B60000A4382618161826182698269704702467B
:104B70000020434B18684FF68073184040EA02103B
:104B800008433F4B186070473E49C8617047F0B515
:104B90000A46002300240021002500F00046B6F15B
:104BA000004F02D1364EF16901E0354E7168C0F315
:104BB000034583B200F44016B6F5401F08D121F03A
:104BC00070612F4E766826F070662D4F7E6012E081
:104BD00000F48016B6F5801F06D1032606FA05F408
:104BE000A14341F0706106E0460D360103FA06F676
:104BF000B14341F0706122B1460D360103FA06F669
:104C0000314300F00046B6F1004F02D11C4EF16175
:104C100001E01B4E7160F0BD30B500228B071C0F08
:104C20000F2303FA04F2164B08338C1053F8243088
:104C30009343134C08348D1044F8253023468C10D0
:104C400053F824308C07240F00FA04F423430C4C4F
:104C500008348D1044F8253030BD0A49DC31086035
:104C60007047000000080140000C014000100140A6
:104C70000014014000180140001C014000200140C8
:104C80000000014000002042DF48006840F00100C1
:104C9000DD49086008464068DC490840DA49486058
:104CA00008460068DA490840D749086008460068A5
:104CB00020F4802008600846406820F4FE00486028
:104CC0004FF41F0088607047CF49096821F4803194
:104CD000CD4A11601146096821F480211160B0F5B8
:104CE000803F03D0B0F5802F0ED106E0C649096899
:104CF00041F48031C44A116007E0C349096841F4B6
:104D0000A021C14A116000E000BF00BF704710B58C
:104D100001460022002300204A11012A02D1BA4C88
:104D2000236806E0022A02D1B74C236A01E0B64CA0
:104D3000636A01F01F02012494401C400CB1012061
:104D400000E0002010BD38B50020009000240025B0
:104D500000BF3120FFF7DBFF05460098401C0090A4
:104D60000098B0F5A06F01D0002DF2D03120FFF7F0
:104D7000CEFF08B1012400E00024204638BD0146E2
:104D80000020A14A106820F0F80040EAC10010603D
:104D90007047A04908607047024600209A4B586847
:104DA00020F47C1042EA01031843974B5860704787
:104DB00098490866704701460020934A506820F0E1
:104DC00003000843506070478F48406800F00C00B3
:104DD0007047014600208C4A506820F0F0000843DC
:104DE0005060704701460020874A506820F4E06018
:104DF00008435060704701460020834A506820F401
:104E0000605040EAC1005060704729B17E4A527A32
:104E100002437D4B5A7204E07B4A527A82437A4BBA
:104E20005A7270477B49D8310860704701460020AC
:104E3000754A506820F44040084350607047002194
:104E4000714A20321170704A82F82010012802D075
:104E500004280AD104E001216B4A2032117005E0D8
:104E60000521694A2032117000E000BF00BF704781
:104E70006949086070476449096A0143624A1162DE
:104E80007047654944390860704730B500210022F9
:104E9000002400235C4D6D6805F00C0121B104294C
:104EA00005D0082923D105E05C4D056022E05B4D6B
:104EB00005601FE0544D6D6805F47012524D6D6829
:104EC00005F48034022505EB92421CB9544D55433C
:104ED00005600BE04C4D6D6805F400351DB1504D7B
:104EE0005543056002E04D4D5543056002E04B4DD2
:104EF000056000BF00BF444D6D6805F0F001090971
:104F0000484D6B5C0568DD4045603F4D6D6805F4BC
:104F1000E061090A434D6B5C4568DD4085603A4DB0
:104F20006D6805F46051C90A3E4D6B5C4568DD4013
:104F3000C560354D6D6805F44041890B3A4D6B5C99
:104F4000C568B5FBF3F5056130BD29B12E4A52693C
:104F500002432D4B5A6104E02B4A526982432A4B8B
:104F60005A61704729B1284A92690243264B9A61D7
:104F700004E0254A92698243234B9A61704729B124
:104F8000214AD2690243204BDA6104E01E4AD26909
:104F900082431D4BDA61704729B11B4AD268024334
:104FA000194BDA6004E0184AD2688243164BDA6083
:104FB000704729B1144A12690243134B1A6104E085
:104FC000114A12698243104B1A61704712494039E5
:104FD000086070470F49C86470470B49C871704733
:104FE0000948406A40F080700749486270470146AE
:104FF0000020054A92680A400AB1012000E0002022
:105000007047014988727047001002400000FFF8A5
:10501000FFFFF6FE000042428004424200127A0086
:1050200000093D00002000201020002010B504469B
:10503000FE48844208D10121C014FFF7ADFF0021D2
:10504000E014FFF7A9FFC4E0B4F1804F08D10121BB
:105050000846FFF7AEFF00210120FFF7AAFFB8E0E6
:10506000F348844208D101210220FFF7A2FF00216A
:105070000220FFF79EFFACE0EE48844208D10121F8
:105080000420FFF796FF00210420FFF792FFA0E025
:10509000E948844208D101210820FFF78AFF002156
:1050A0000820FFF786FF94E0E448844208D10121FC
:1050B0001020FFF77EFF00211020FFF77AFF88E025
:1050C000DF48844208D101212020FFF772FF002130
:1050D0002020FFF76EFF7CE0DA48844208D10121EE
:1050E0004014FFF759FF00216014FFF755FF70E0EF
:1050F000D548844209D10121C804FFF74DFF0021A2
:105100004FF40020FFF748FF63E0D048844209D104
:1051100001210805FFF740FF00214FF48010FFF741
:105120003BFF56E0CA48844209D101214805FFF7F8
:1051300033FF00214FF40010FFF72EFF49E0C54870
:10514000844208D101214020FFF733FF0021402095
:10515000FFF72FFF3DE0C048844208D101218020A5
:10516000FFF727FF00218020FFF723FF31E0BB4836
:10517000844208D101218015FFF71BFF0021A015F3
:10518000FFF717FF25E0B648844209D10121080442
:10519000FFF702FF00214FF48030FFF7FDFE18E01B
:1051A000B048844209D101214804FFF7F5FE0021EF
:1051B0004FF40030FFF7F0FE0BE0AB48844208D11B
:1051C00001218804FFF7E8FE00214FF48020FFF75B
:1051D000E3FE10BD00220288944B98420ED0994BFA
:1051E00098420BD0B0F1804F08D0914B984205D037
:1051F000904B984202D0904B984204D14FF68F7357
:105200001A404B881A438D4B984207D08C4B9842DA
:1052100004D04FF6FF431A40CB881A4302808B8894
:1052200083850B880385814B98420BD0854B984230
:1052300008D08B4B984205D08A4B984202D08A4BBB
:10524000984201D10B7A038601238382704770B59F
:10525000002400220023058C4FF6FE76354005849D
:10526000028C8388048B4FF68F752C40B51E2C4022
:105270000D882C43751E2A400D892A434D882A43E8
:105280006A4DA8420BD06F4DA84208D0744DA84279
:1052900005D0744DA84202D0734DA84213D14FF6E9
:1052A000F7752A404D892A434FF6FB752A408D88B1
:1052B0002A434FF6FF652B404FF6FF552B408D8953
:1052C0002B43CD892B4383800483CD88858602843C
:1052D00070BD70B5002400220023058C4FF6EF76D8
:1052E00035400584028C8388048B48F6FF752C407A
:1052F0004FF6FF452C400D884FF6FF7606EA052550
:105300002C434FF6DF752A400D8906EA05152A431E
:105310004D8806EA05152A43444DA84202D0494D5E
:10532000A8421DD14FF67F752A404D894FF6FF7672
:1053300006EA05152A434FF6BF752A408D8806EA0E
:1053400005152A434FF6FF352B404FF2FF752B40D2
:105350008D8906EA85052B43CD8906EA85052B4311
:1053600083800483CD880587028470BD70B50024D6
:1053700000220023058C4FF6FF6635400584028C21
:105380008388848B4FF68F752C404FF6FC752C402C
:105390000D882C434FF6FF552A400D894FF6FF76B6
:1053A00006EA05252A434D8806EA05252A431F4DAE
:1053B000A84202D0234DA8421DD14FF2FF752A40CA
:1053C0004D894FF6FF7606EA05252A434FF6FF354D
:1053D0002A408D8806EA05252A434EF6FF752B40A4
:1053E0004DF6FF752B408D8906EA05152B43CD89B7
:1053F00006EA05152B4383808483CD888587028444
:1054000070BD70B5002200230024058C4EF6FF7697
:1054100035400584038C8488828B48F6FF752A40CA
:105420004FF6FF452A400D8820E00000002C014087
:105430000004004000080040000C00400010004044
:105440000014004000340140004C01400050014075
:105450000054014000180040001C004000200040A3
:105460000040014000440140004801404FF6FF76F3
:1054700006EA05252A434DF6FF752B400D8906EAFD
:1054800005352B434D8806EA05352B43FA4DA842D6
:1054900002D0FA4DA84208D14BF6FF752C408D89F9
:1054A0004FF6FF7606EA85152C4384808283CD88EB
:1054B000A0F84050038470BD828B4FF2FF331A4036
:1054C0008283828B4FF6FF7303EA01231A438283A0
:1054D0007047F0B50C461546002200210026078CC7
:1054E0004EF6FF7C07EA0C070784828B018C4FF68F
:1054F000FF7707EA043640F6FF473A404FF6FF775A
:1055000007EA05273A434FF6FF7707EA03373A439E
:10551000D94FB8420ED0D94FB8420BD0B0F1804F1E
:1055200008D0D74FB84205D0D64FB84202D0D64F98
:10553000B84206D14DF6FF77394046F480573943DB
:1055400005E047F6FF57394044F4805739438283DA
:105550000184F0BD828B4FF6F3731A408283828BF5
:105560000A4382837047F0B50C461546002200219D
:105570000026078C4FF6FF6C07EA0C070784828B26
:10558000018C4FF6FF7707EA04264FF60C773A4076
:105590004FF6FF7707EA03172F433A43B64FB84257
:1055A0000ED0B64FB8420BD0B0F1804F08D0B44FF8
:1055B000B84205D0B34FB84202D0B34FB84206D17B
:1055C0004FF6FF57394046F48077394305E04FF2F4
:1055D000FF57394044F48077394382830184F0BD1A
:1055E000028B4FF2FF331A400283028B4FF6FF7398
:1055F00003EA01231A4302837047F0B50C461546AF
:10560000002200210026078C4FF6EF7C07EA0C07EA
:105610000784028B018C4FF6FF7707EA041640F6E9
:10562000FF473A404FF6FF7707EA03373A434FF612
:10563000FF7707EA05273A438F4FB8420ED08F4FC6
:10564000B8420BD0B0F1804F08D08D4FB84205D092
:105650008C4FB84202D08C4FB84206D14FF6DF775C
:10566000394046F01007394305E04FF65F7739407F
:1056700044F01007394302830184F0BD028B4FF6DA
:10568000F3731A400283028B0A4302837047F0B51A
:105690000C46154600220021068C4FF6FE773E4050
:1056A0000684028B018C4FF60C7632407E1C06EA93
:1056B00003162E433243704EB0420ED06F4EB042AE
:1056C0000BD0B0F1804F08D06D4EB04205D06D4E7A
:1056D000B04202D06C4EB04206D14FF6FD7631405A
:1056E00044F00106314305E04FF6F576314044F0D1
:1056F0000106314302830184F0BD70B505460C46B6
:105700005D4885420ED05D4885420BD0B5F1804F93
:1057100008D05B48854205D05A48854202D05A4895
:10572000854200D100E000BF208850B92389A288BB
:1057300061882846FFF7ABFFE1882846FFF79EFF08
:1057400025E0208804280AD12389A2886188284678
:10575000FFF753FFE1882846FFF742FF17E0208854
:1057600008280AD12389A28861882846FFF7FBFE12
:10577000E1882846FFF7EEFE09E02389A2886188C8
:105780002846FFF7A6FEE1882846FFF795FE70BD84
:105790002DE9F04105460C4600260127608808B92E
:1057A000022600E00026A088012801D1022700E09F
:1057B00001272088A0B92389A28861882846FFF79D
:1057C00066FFE1882846FFF759FF23893A463146AC
:1057D0002846FFF712FFE1882846FFF701FF13E094
:1057E0002389A28861882846FFF707FFE1882846B9
:1057F000FFF7F6FE23893A4631462846FFF747FF72
:10580000E1882846FFF73AFFBDE8F0810A884B8817
:105810001A438B881A43CB881A430B891A434B8946
:105820001A438B891A43A0F8442070474FF6FF7142
:10583000818000210180C180418001727047002178
:10584000018041808180C180018141818181C1814C
:105850007047002101804180012181800021C180A9
:10586000018170470021018041808180C1800181D8
:105870004181818170470000002C014000340140CB
:105880000004004000080040000C004021B10288E4
:1058900042F00102028004E002884FF6FE731A40D3
:1058A0000280704731B1B0F8442042F40042A0F8C1
:1058B000442005E0B0F84420C2F30E02A0F84420D2
:1058C00070471AB183890B43838102E083898B433C
:1058D000838170478182704741EA0203A0F8483013
:1058E00070471AB183890B43838102E083898B431C
:1058F0008381704701894FF6F8721140018170472A
:105900000A46002101894FF68F7319401143018126
:10591000704730B504460D4629462046FFF7F0FF94
:10592000208940F00700208130BD2DE9F041044678
:105930000D4616461F46602D06D13B4601223146D4
:105940002046FFF75AFE05E03B460122314620463D
:10595000FFF79DFE29462046FFF7D2FF208940F041
:1059600007002081BDE8F08130B50C460021018997
:10597000C9B24FF6FF7505EA0325154325432943B0
:10598000018130BD2DE9F04105460E461746984687
:10599000002443463A4631462846FFF7E5FF2C8966
:1059A0004FF6F870044044F007044FF68F7004403F
:1059B00044F070042C81BDE8F081F0B504460D463A
:1059C00016461F463B46324629462046FFF7CCFF87
:1059D000208940F480402081F0BD0185828270479B
:1059E0000A46002101884FF68F7319401143018048
:1059F0007047F0B50C4615461E46002100220023D4
:105A00000189028B038C4FF6F877394021434FF61A
:105A1000FC473A4040F201173A434FF6DD773B40EE
:105A20004FF6FF7707EA06172F433B4301810283B6
:105A30000384F0BD0A460021018B4FF68F73194095
:105A40001143018370470A460021018B48F6FF731A
:105A500019404FF6FF7303EA02231943018370478D
:105A60000A460021818B4FF68F73194011438183C1
:105A700070470A460021818B48F6FF7319404FF6A4
:105A8000FF7303EA022319438183704721B102881F
:105A900042F08002028004E002884FF67F731A40D1
:105AA0000280704721B1828842F00402828004E0C3
:105AB00082884FF6FB731A408280704721B182883A
:105AC00042F00802828004E082884FF6F7731A40A1
:105AD0008280704721B1828842F00102828004E016
:105AE00082884FF6FE731A40828070470A46002172
:105AF000018B4FF6F77319401143018370470A4633
:105B00000021018B4FF2FF7319404FF6FF7303EA38
:105B100002231943018370470A460021818B4FF607
:105B2000F77319401143818370470A460021818B26
:105B30004FF2FF7319404FF6FF7303EA0223194334
:105B4000818370470A460021018B4FF6FB73194091
:105B50001143018370470A460021018B4FF6FF3342
:105B600019404FF6FF7303EA02231943018370477C
:105B70000A460021818B4FF6FB7319401143818344
:105B800070470A460021818B4FF6FF3319404FF6CC
:105B9000FF7303EA02231943818370470A460021F9
:105BA000018B4FF67F7319401143018370470A46FA
:105BB0000021018BC1F30E014FF6FF7303EA0223AC
:105BC0001943018370470A460021818B4FF67F738A
:105BD00019401143818370470A460021818BC1F32C
:105BE0000E014FF6FF7303EA0223194381837047C6
:105BF0000A460021018C4FF6FD73194011430184C0
:105C000070470A460021018C4FF6F7731940114383
:105C1000018470470A460021018C4FF6DF7319405A
:105C20004FF6FF7303EA02131943018470470A46D3
:105C30000021018C4FF67F7319404FF6FF7303EA82
:105C400002131943018470470A460021018C4FF664
:105C5000FF5319404FF6FF7303EA022319430184EF
:105C600070470A460021018C4FF2FF7319404FF62E
:105C7000FF7303EA02231943018470470A46002197
:105C8000018C4DF6FF7319404FF6FF7303EA0233A0
:105C900019430184704730B5002301248C40A3B21E
:105CA000048C9C430484048C02FA01F5ADB22C43AD
:105CB000048430BD30B5002304248C40A3B2048C8E
:105CC0009C430484048C02FA01F5ADB22C43048495
:105CD00030BD70B503460020002418461830012559
:105CE0008D40ACB21D8CA5431D8409B1082909D192
:105CF00000EB6100056825F0700505600568154337
:105D000005600EE00D1FC5F34E052844056825F417
:105D1000E045056005684FF6FF7606EA0226354342
:105D2000056070BD21B1028842F00202028004E0E9
:105D300002884FF6FD731A400280704721B1028835
:105D400042F00402028004E002884FF6FB731A401E
:105D50000280704721B1828842F08002828004E094
:105D600082884FF67F731A408280704702884FF610
:105D7000F7731A40028002880A43028070478288C3
:105D80004FF68F731A40828082880A438280704760
:105D900002894FF6F8731A40028102890A43028190
:105DA000704702894FF67F731A40028102890A43C5
:105DB0000281704781847047818570478186704772
:105DC0000187704781877047A0F8401070470288AC
:105DD0004FF6FF431A40028002880A430280704750
:105DE0000146888E70470146088F70470146888FAC
:105DF00070470146B1F8400070470146888C7047F3
:105E00000146088D704702460020138A0B400BB1F3
:105E1000012000E000207047CA430282704730B57D
:105E20000246002000230024158A05EA0103958913
:105E300005EA010413B10CB1012000E0002030BDDF
:105E4000CA4302827047000010B504462CB90120F5
:105E5000F64909680882002010BDF54909680868FC
:105E60008047F24800680A30F6E710B5EF4800684E
:105E7000C078F0494978884213DCEC4800688078A3
:105E800078B9EA480068808858B9E8480068C0785E
:105E9000E64909688872E649096848688047002031
:105EA00010BD0220FCE710B504462CB90120DF49E3
:105EB00009680882002010BDDD49096888688047AC
:105EC000DA4800680C30F6E710B5D84B1B68D97873
:105ED000D64B1B685879D84B1B689A699047044683
:105EE000D2480068807AE8B13CB9D04800680079AF
:105EF00018B9CE480068807808B1022010BD8CB96E
:105F0000CB490968C8688047C84800684079C749D4
:105F10000968C872C5480068C078C4490968087330
:105F20000020EBE70220E9E710B504462CB9022077
:105F3000BE4909680882002010BD0020BF490880C2
:105F4000BA480068007800F07F0018BBB7490968BC
:105F5000487A00F0200131B1B849097841F00201D6
:105F6000B64A117005E0B549097801F0FD01B34A60
:105F7000117000F0400131B1B049097841F00101E0
:105F8000AE4A117005E0AD49097801F0FE01AB4A57
:105F900011703AE0A5480068007800F07F00012801
:105FA00001D1A648C8E7A1480068007800F07F004A
:105FB000022828D19D4A1268517901F00F0001F0A2
:105FC00080027AB19E4B03EB8002D2F8002C02F0E3
:105FD0003002102A16D1994A127842F00102974BEA
:105FE0001A700FE0964B03EB8002D2F8002C02F4FB
:105FF0004052B2F5805F05D1904A127842F001021A
:106000008E4B1A7001E0002096E7894909680869FB
:1060100080478A4890E72DE9F04784480068007877
:1060200000F07F08B8F1000F0AD180480068407A7C
:1060300000F0DF007D49096848720020BDE8F08764
:10604000B8F1020F7ED179480068408818B97748C6
:106050000068007908B10220F0E7DFF8D8917348B2
:106060000068477927F080052C4670480068407921
:1060700000F0800038B1724901EB8400D0F8000CC8
:1060800000F0300606E06E4901EB8400D0F8000C09
:1060900000F4405699F80000A84204D91EB16348A4
:1060A0000068807A08B90220C8E707F0800080B154
:1060B000634901EB8400D0F8000C00F03000102898
:1060C0004BD1E0B201F01DF8E0B2302100F09FFEAC
:1060D00043E05B4901EB8400D0F8000C00F4405031
:1060E000B0F5805F39D1E4B9564A92F82C10E0B28D
:1060F00001F091F8524A02EB8401D1F8001C4BF6F2
:106100008F7201EA020080F4805080F4005040F465
:10611000004141F080014A4B03EB8402C2F8001CAD
:106120001BE0E0B200F0D5FF454A02EB8401D1F854
:10613000001C4BF68F7201EA020080F4805080F45C
:10614000005000E00FE040F4004141F080013C4B82
:1061500003EB8402C2F8001C00BF35490968486996
:10616000804700206AE700BF022067E72DE9F04181
:106170002E480068467926F080073C462B48006888
:10618000407900F0800038B12D4901EB8400D0F84F
:10619000000C00F0300506E0294901EB8400D0F83E
:1061A000000C00F4405523480078A04208D91F484D
:1061B0000068408820B91DB11C480068807A10B979
:1061C0000220BDE8F08106F08000A0B11C4A02EB7D
:1061D0008401D1F8001C48F6BF7201EA020080F089
:1061E000100040F4004141F08001154B03EB8402A4
:1061F000C2F8001C14E0124A02EB8401D1F8001C22
:106200004BF68F7201EA020080F4805040F40041A6
:1062100041F080010A4B03EB8402C2F8001C00BF6E
:1062200003490968886980470020CAE71C200020CC
:10623000282000209C200020202000201420002066
:1062400000500040A020002010B5F7480068407AB8
:1062500040F02000F44909684872F4490968C869A7
:106260008047002010BD10B50246EF480068438A01
:1062700032B98888C01AEC4C24682082002010BDF6
:1062800008681844FBE72DE9F041E748006800F191
:1062900010042688A068C0B1BEB1A588B54200D957
:1062A0003546A8B2A168884707462088401B208051
:1062B000608828446080002000F07FFF8046AAB2FA
:1062C0004146384600F03EFD00BF208850B14FF4F3
:1062D0004050D74908800021084600F07AFF30205E
:1062E000D44908802088A188884204DB0320CE4955
:1062F0000968087218E02088002804DD0520CA49D2
:106300000968087210E0208870B90620C64909683B
:1063100008720021C848006880B2801CC74A42F851
:1063200010103020C3490880BDE8F0812DE9F04706
:10633000BD48006800F110052E88BB480068077A48
:10634000D6B9042F18D1BE48007801280FD10021FA
:10635000B948006880B2801CB84A42F8101030205A
:10636000B449088000BF0020B549087003E0072742
:106370001020B049088027E0AC88A64201D804204C
:1063800000E002200746B44200D93446A0B2A96812
:1063900088478046002000F005FF8146A2B24946AA
:1063A000404600F0B5FCA1B2002000F012FF2888A2
:1063B000001B288068882044688030209D49088020
:1063C00000029B49088000BF974909680F72BDE829
:1063D000F08770B5022694480068447892480068B7
:1063E000007800F07F00002844D1092C03D1FFF78A
:1063F0003CFD06465FE0052C14D18B480068C07850
:106400007F280BDC88480068807838B986480068A7
:10641000808818B984480068807A08B1082565E04A
:10642000002648E0032C0ED17F480068C078012880
:1064300007D17D480068808818B9FFF705FF064638
:1064400039E0022637E0012C35D177480068C07862
:1064500001280DD174480068808848B972480068E6
:10646000407A00F0200018B1FFF7D5FD064622E083
:10647000022620E06C480068007800F07F000128C8
:1064800005D10B2C17D1FFF71FFD064613E0664818
:106490000068007800F07F0002280BD1012C03D1A6
:1064A000FFF7B9FD064606E0032C04D1FFF75EFEB8
:1064B000064600E002264EB1E0B2624A1268516917
:1064C00088470646032E01D109250FE00EB10825A5
:1064D0000CE0062500215848006880B2801C574A0D
:1064E00042F8101030205349088000BF4E49096817
:1064F0000D7270BD2DE9F84F4B48006845780027B4
:10650000BA46062D1BD148480068007800F07F008D
:10651000002813D1444909688878012803D14949E2
:106520000968CF690AE0022803D1464909680F6A61
:1065300004E0032802D1434909684F6AADE0002D09
:1065400067D1394800684088002862D13648006821
:10655000C08802285DD1344800680079002858D1ED
:1065600031480068007800F07F0030B92E4800689C
:10657000808810B9AFF24F678FE02B480068007831
:1065800000F07F00012811D12749096848792D4979
:1065900009688A690021904700287ED12248006856
:1065A000807A002879D0AFF27F6776E01E480068D5
:1065B000007800F07F0002286FD11B480068407906
:1065C00000F00F0618480068407900F0700916487E
:1065D0000068407900F0800038B11B4901EB86006B
:1065E000D0F8000C00F0300806E0174901EB8600F7
:1065F000D0F8000C00F4405814480078B0424CD950
:10660000B9F1000F49D1B8F1000F46D0AFF2E767FA
:1066100043E0082D1CD104480068007800F07F009A
:10662000D8BBAFF2DB7738E01C2000202820002008
:106630002C2000202E200020505C004000600040F4
:106640001620002020200020005000409C20002028
:106650000A2D22D1C5480068007800F07F0001288B
:106660001BD1C2480068807AB8B1C0480068408831
:1066700098B9BE480068007978B9BC480068C088FD
:1066800001280AD1B94909684879B94909688A696C
:106690000021904708B9AFF2F17757B1B3480068CD
:1066A000A0F812A0B148006887610020B847002414
:1066B0000FE0AE4A12685078AD4A126811698847F7
:1066C0000446032C05D10920A84909680872BDE8D1
:1066D000F88FA6480068008A4FF6FF71884204D1FF
:1066E0000920A24909680872F1E7022C03D09F48EB
:1066F0000068008A20B908209C4909680872E6E70A
:106700009A480068007800F08000E0B3974800687D
:10671000C088009095480068008A0099884204D992
:10672000924900980968088223E090480068008A2E
:106730008E490968C98888421BDA8C480068008A3B
:106740008B49096891F82C10884203DA00208949A6
:1067500008700EE085480068008A8549096891F84C
:106760002C1090FBF1F201FB120010B901208149BD
:1067700008707F48006890F82C107C48006881827F
:10678000FFF7D4FD07E0FFE70320784909680872A6
:1067900000037949088000BF99E710B5774890F861
:1067A0002C10002000F037FD70480068007A08289F
:1067B00005D14002704908801020714908806B485B
:1067C0000068007A092801D1012010BD0020FCE7F3
:1067D00038B501246B48006880B2001D6A4931F861
:1067E000100080B201EB4000009060480068007A21
:1067F000092832D0009800785C4909680870009830
:10680000401C00900098007858490968487000982A
:10681000401C0090009800EB44000090009931F873
:10682000020B009100F0A0FE5049096848800098D2
:1068300000EB44000090009931F8020B009100F049
:1068400093FE4A4909688880009800EB4400009054
:106850000098008845490968C880012043490968B3
:10686000087242480068C08810B9FFF7B2FD01E025
:10687000FFF740FEFFF791FF38BD30B50146434BAF
:106880001A78002014E00306414C04EB9353D3F82C
:10689000003C48F68F74234048F280042343C4B27E
:1068A000234304063A4D05EB9454C4F8003C401CC5
:1068B0009042E8D341F08003324C241F236030BD66
:1068C00010B52A480068047A022C01D0042C05D1A6
:1068D000FFF72CFD25480068047A1CE0062C19D12E
:1068E00022480068407805280ED1204800680078CA
:1068F00000F07F0040B91D490968C878FFF7BDFF67
:1069000024490968086A80471949096888688047E6
:10691000082400E00824154909680C72FFF73DFFC0
:1069200010BD10B511480068047A022C01D0042C67
:1069300001D1082412E0032C01D0052C05D1FFF76A
:10694000A2FC0A480068047A08E0072C05D108492F
:106950000968C8688047082400E0082403490968DA
:106960000C72FFF71AFF10BD704700001C200020BA
:1069700020200020162000202C200020A020002015
:106980002E200020505C0040006000409C20002031
:10699000005000402820002010B508480849086031
:1069A0000220096808720748074908600748084933
:1069B0000860054909680868804710BDFC2100206F
:1069C0001C200020A020002020200020D02000201B
:1069D0002820002008B50020009022E1C44800884B
:1069E00000F00F00C34908700846007800287CD1E9
:1069F000C1480068C14908800846008800F030009E
:106A0000BF490880BD48008800F44050BB49088059
:106A1000B94909684BF6BF7201EA020080F40050E0
:106A200080F0200040F4004141F08001B24A116042
:106A3000AF48008800F0100090BB1046006848F690
:106A40000F71084011460860FFF73AFFAA4909682C
:106A50004BF6BF7201EA0200A849098801F480518F
:106A600009B180F48050A549098801F4005109B1A9
:106A700080F40050A249098801F0100109B180F0AA
:106A800010009F49098801F0200109B180F0200021
:106A900081B241F4004141F08001974A116008BD84
:106AA000FFE79548006880B20090BDF8000000F450
:106AB0000060B0B390480068C0F30E0048F68F71D4
:106AC00008408D490860FFF783FE8B4909684BF643
:106AD000BF7201EA02008949098801F4805109B1B5
:106AE00080F480508549098800E056E001F40051A7
:106AF00009B180F400508249098801F0100109B100
:106B000080F010007E49098801F0200109B180F071
:106B1000200081B241F4004141F08001764A1160C9
:106B2000BDE7FFE7BDF8000000F40040002878D082
:106B300071480068C0F30E0048F68F7108406E4936
:106B40000860FFF7EEFE6C4909684BF6BF7201EA78
:106B500002006A49098801F4805109B180F480502B
:106B60006649098801F4005109B180F40050644974
:106B7000098801F0100109B180F01000604909880E
:106B800001F0200109B180F0200081B241F4004100
:106B900041F08001584A116081E756480078594910
:106BA00001EB8000D0F8000C80B20090BDF800002E
:106BB00000F40040C0B14F48007801EB8000D0F8ED
:106BC000000CC0F30E0048F68F710840494909785F
:106BD0004C4A02EB8101C1F8000C46490978491E74
:106BE000494A52F821008047BDF8000000F08000BB
:106BF000B8B140480078434901EB8000D0F8000C60
:106C000048F60F7108403B4909783E4A02EB810182
:106C1000C1F8000C37490978491E3C4A52F8210056
:106C2000804735484430006880B23149088000F41C
:106C3000004000287FF4D2AE00BF30E710B500243A
:106C40004AE047F6FF702C49443108602848008824
:106C500000F00F002749087008460078294901EB29
:106C60008000D0F8000C84B204F40040C8B1214880
:106C7000007801EB8000D0F8000CC0F30E0048F65D
:106C80008F7108401B4909781E4A02EB8101C1F847
:106C9000000C18490978491E1B4A52F82100804708
:106CA0001AE004F08000B8B112480078154901EBF1
:106CB0008000D0F8000C48F60F7108400D490978A3
:106CC000104A02EB8101C1F8000C0A490978491EFB
:106CD0000E4A52F82100804707484430006880B2CD
:106CE0000349088000F400400028AAD110BD00002C
:106CF0005C20002018200020005C00402C20002098
:106D00002E200020005000407C2000206020002029
:106D1000F0B5144604F1010C4FEA6C07DFF848C0E7
:106D20000CEB41033D460AE00678401C90F800C099
:106D300046EA0C2223F8022B9B1C401C6D1E002DE2
:106D4000F2D1F0BDF0B5561C7510074E06EB4104AC
:106D50002B4605E034F8047B20F8017B401C5B1EC9
:106D6000002BF7D1F0BD000000600040FA49086038
:106D70007047F948006880B27047F749091D0860FC
:106D80007047F548001D006880B27047F24808302F
:106D9000006880B27047F0490C3108607047EE48D7
:106DA0000C30006880B270474FF6F8710140EA4A33
:106DB000103211607047E8481030006880B27047A8
:106DC000E64B03EB8002C2F8001C70470146E34A21
:106DD00002EB8100D0F8000C80B2704710B5DF4B99
:106DE00003EB8002D2F8002C48F68F131A400A43B6
:106DF000DA4C04EB8003C3F8002C10BD0146D74ADF
:106E000002EB8100D0F8000C00F4C060704730B590
:106E1000D24C04EB8003D3F8003C48F6BF7403EA7D
:106E2000040201F010030BB182F0100201F0200304
:106E30000BB182F0200242F4004343F08003C74DBF
:106E400005EB8004C4F8003C30BD30B5C34C04EB06
:106E50008003D3F8003C4BF68F7403EA040201F47C
:106E600080530BB182F4805201F400530BB182F4D1
:106E7000005242F4004343F08003B84D05EB800418
:106E8000C4F8003C30BD30B503460C461846FFF749
:106E90009DFF0546012C07D125F48050AF4A02EB37
:106EA0008301C1F8000C08E0022C06D125F0100087
:106EB000AA4A02EB8301C1F8000C30BD0146A74A83
:106EC00002EB8100D0F8000C00F030007047014662
:106ED000A24A02EB8100D0F8000C00F44050704749
:106EE00010B59E4B03EB8002D2F8002C48F6BF731E
:106EF00002EA030181F0100181F0200141F4004217
:106F000042F08002954C04EB8003C3F8002C10BDC6
:106F100010B5924B03EB8002D2F8002C4BF68F7326
:106F200002EA030181F4805181F4005141F40042EE
:106F300042F08002894C04EB8003C3F8002C10BDA2
:106F4000864A02EB8001D1F8001C41F4807148F6BA
:106F50008F72114048F280021143804B03EB800294
:106F6000C2F8001C70477D4A02EB8001D1F8001C7A
:106F700048F68F62114048F280021143774B03EBD1
:106F80008002C2F8001C7047744A02EB8001D1F8FD
:106F9000001C48F68F62114048F2800211436F4B8B
:106FA00003EB8002C2F8001C70476C4A02EB8001C0
:106FB000D1F8001C41F4807148F68F72114048F2FC
:106FC00080021143654B03EB8002C2F8001C70473E
:106FD000624A02EB8001D1F8001C41F4807148F64E
:106FE0008F72114048F2800211435C4B03EB800228
:106FF000C2F8001C7047594A02EB8001D1F8001C0E
:1070000048F68F62114048F280021143534B03EB64
:107010008002C2F8001C70470146504A02EB810012
:10702000D0F8000C00F03000102801D1012070478A
:107030000020FCE70146494A02EB8100D0F8000C31
:1070400000F44050B0F5805F01D10120704700206E
:10705000FCE7424A02EB8001D1F8001CC1F30E01AB
:1070600048F68F7211403D4B03EB8002C2F8001CC2
:1070700070473A4A02EB8001D1F8001C48F60F72C3
:107080001140364B03EB8002C2F8001C7047334AB4
:1070900002EB8001D1F8001C48F68F7211404CF2CF
:1070A000800211432D4B03EB8002C2F8001C704795
:1070B0002A4A02EB8001D1F8001C48F68F72114079
:1070C00048F2C0021143254B03EB8002C2F8001CBA
:1070D0007047224A02EB8001D1F8001C01F4804184
:1070E00071B102EB8001D1F8001C48F68F7211409B
:1070F0004CF280021143194B03EB8002C2F8001CD2
:107100007047164A02EB8001D1F8001C01F04001E3
:1071100071B102EB8001D1F8001C48F68F7211406A
:1071200048F2C00211430D4B03EB8002C2F8001C71
:10713000704710B5094B03EB8002D2F8002C48F6DB
:107140008F731A4048F280031A430A43034C04EB3E
:107150008003C3F8002C10BD405C0040005000408C
:107160000146FC4A02EB8100D0F8000C00F00F0051
:10717000704710B54A105200F74B1B689BB203EBE7
:10718000C003F64C44F8132010BD10B54A1053004C
:10719000F14A126892B202EBC002121DEF4C44F8A1
:1071A000123010BD0146EC48006880B200EBC1000F
:1071B000EA4A32F8100080B270470146E64800689B
:1071C00080B200EBC100001DE44A32F8100080B22A
:1071D0007047E14A126892B202EBC002921CDF4B88
:1071E00043F81210704702463E290BDD481101F0AA
:1071F0001F030BB9431E98B24FF4004343EA8023A8
:10720000136007E0481001F001030BB1431C98B272
:1072100083021360704710B50246CF48006880B201
:1072200000EBC200801DCD4C04EB40033E290BDD7A
:10723000481101F01F040CB9441EA0B24FF40044E1
:1072400044EA80241C6007E0481001F001040CB1FE
:10725000441CA0B284021C6010BD0146BE480068F8
:1072600080B200EBC100801CBC4A32F81000C0F3B1
:10727000090070470146B848006880B200EBC100C1
:10728000801DB64A32F81000C0F30900704730B5CF
:107290004B105B00B04C2468A4B204EBC004AF4DAB
:1072A00045F8143053105C00AB4B1B689BB203EBEA
:1072B000C0031B1D45F8134030BD10B54A105200E5
:1072C000A54B1B689BB203EBC003A44C44F81320EE
:1072D00010BD10B54A1053009F4A126892B202EBDB
:1072E000C002121D9D4C44F8123010BD01469A4850
:1072F000006880B200EBC100984A32F8100080B2FA
:10730000704701469448006880B200EBC100001D40
:10731000924A32F8100080B2704730B50B46012B0C
:107320001FD18D49096889B201EBC001891C8B4DC1
:1073300005EB41043E2A0BDD511102F01F050DB98A
:107340004D1EA9B24FF4004545EA8125256007E0AE
:10735000511002F001050DB14D1CA9B28D0225603E
:107360000AE0022B08D17C49096889B201EBC0010F
:10737000891C7A4C44F81120012B1FD176490968E9
:1073800089B201EBC001891D744D05EB41043E2A11
:107390000BDD511102F01F050DB94D1EA9B24FF4BE
:1073A000004545EA8125256007E0511002F00105FE
:1073B0000DB14D1CA9B28D0225600AE0022B08D147
:1073C0006549096889B201EBC001891D634C44F825
:1073D000112030BD30B5034601291FD15E48006839
:1073E00080B200EBC300801C5C4D05EB40043E2ADC
:1073F0000BDD501102F01F050DB9451EA8B24FF468
:10740000004545EA8025256007E0501002F001059F
:107410000DB1451CA8B2850225600AE0022908D1F9
:107420004D48006880B200EBC300801C4B4C44F810
:10743000102030BD30B5034601291FD146480068F1
:1074400080B200EBC300801D444D05EB40043E2A92
:107450000BDD501102F01F050DB9451EA8B24FF407
:10746000004545EA8025256007E0501002F001053F
:107470000DB1451CA8B2850225600AE0022908D199
:107480003548006880B200EBC300801D334C44F8DF
:10749000102030BD01463048006880B200EBC100CA
:1074A000801C2E4A32F81000C0F3090070470146D4
:1074B0002948006880B200EBC100801D274A32F8DD
:1074C0001000C0F30900704701462348006880B2ED
:1074D00000EBC100801D214A32F8100000F47C400E
:1074E00008B1012070471C48006880B200EBC10061
:1074F000801C1A4A32F81000C0F3090008B10220BB
:10750000F0E70020EEE710B5012910D1114B03EB95
:107510008002D2F8002C48F68F731A4048F2C0035C
:107520001A430C4C04EB8003C3F8002C11E0022931
:107530000FD1084B03EB8002D2F8002C48F68F7372
:107540001A404CF280031A43024C04EB8003C3F848
:10755000002C10BD00500040505C00400060004016
:10756000024641EA022070470146CAB20B1243EAC2
:107570000220704700201D4908604FF43F401C491D
:107580000880084600881949091F086000207047D4
:107590002DE9F04104460E46154604F07F00FFF742
:1075A00001FE0746AAB239463046FFF7B1FBA9B241
:1075B00004F07F00FFF70DFE0020BDE8F0812DE90B
:1075C000F04104460E46002504F07F00FFF752FE0E
:1075D000054604F07F00FFF7F0FD07462A463946CE
:1075E0003046FFF7AFFB2846BDE8F081445C004021
:1075F0002620002010B50020FDF714FC0121C8054D
:10760000FDF7BDFC10BD032022490860704710B58E
:10761000214CA07A18B105201E49086002E0012023
:107620001C49086000F013FB10BD08B54FF4A060C2
:10763000FCF78AFD14208DF8000001208DF8010070
:1076400000208DF8020001208DF803006846FCF749
:1076500080FD08BD10B504462CB14FF400410F4821
:10766000FDF773FA04E04FF400410C48FDF76BFAA4
:1076700010BD704710B50446012C04D10103084821
:10768000FDF761FA04E04FF480510548FDF75DFA1B
:1076900010BD000034210020FC210020000C01401E
:1076A0000008014010B501200D49087001F0B1FD3E
:1076B00010BD10B50B480078012810D10220FFF74B
:1076C000FDFB202808D1402207498220FFF760FFF8
:1076D00030210220FFF79BFB00200249087010BDFB
:1076E00051210020502100201822002010B53748D9
:1076F0000068374908800846008800F480603549F2
:107700000988084030B14FF6FF30304908603249EF
:10771000486880472E48008800F400502D490988A9
:10772000084018B14DF6FF702849086028480088C5
:1077300000F4805027490988084030B14EF6FF70A8
:1077400022490860002000F0B8F92148008800F4C0
:10775000006020490988084060B12048007810B1D5
:1077600000F08BF902E0022000F0A7F94FF2FF7061
:10777000164908601648008800F400701549098809
:10778000084040B14FF6FF50104908601448007897
:10779000401C134908700E48008800F480700D49A1
:1077A0000988084030B14FF6FF600849086007209B
:1077B00000F083F90648008800F400400549098874
:1077C000084008B1FFF706F910BD0000445C004016
:1077D0005C20002026200020A0200020382100204E
:1077E0005E20002010B5FFF744FF002081490968A2
:1077F000887200F013F9FFF7BDFE00207E49086093
:1078000010BD10B500207B49096888727949096864
:10781000C8727A48C0797749096848720020FFF732
:10782000C3FA4FF400710020FFF7D8FA10210020AE
:10783000FFF7EDFA18210020FFF7A7FC58210020E0
:10784000FFF797FC0020FFF79FFB6D4890F82C1086
:107850000020FFF7E0FC0020FFF75AFB4FF4C06167
:107860000120FFF7BBFA98210120FFF78EFC402191
:107870000120FFF7D0FC4FF440510120FFF7E5FA5B
:107880004FF4C0610220FFF7A9FA4FF48C71022077
:10789000FFF76FFC40210220FFF79BFC2021022014
:1078A000FFF7B5FA0120544908600020FEF7E5FF14
:1078B00010BD50480068807A10B105204E4908601C
:1078C000704704204C490860704770477047014674
:1078D00029B90120474A12681082002070474948A0
:1078E000FCE710B5044648492046FEF7BCFC10BD35
:1078F00010B5044645492046FEF7B5FC10BD70B5ED
:1079000005463C480068808808B1022070BD00240C
:10791000062D16D137480068007800F07F00012856
:107920000FD1344800688078222802D1AFF23F049A
:1079300012E030480068807821280DD1AFF25D0454
:107940000AE02C480068007800F07F00212803D16D
:10795000032D01D1AFF289040CB90220D6E72548E6
:107960000068846100212348006841820020A0470C
:107970000020CBE71F480068C17822480160002042
:10798000704700B502461B480068007800F07F0091
:10799000212804D10B2A02D1FFF7ECFF00BD022001
:1079A000FCE710B504461A492046FEF75CFC10BD02
:1079B00010B5044617492046FEF755FC10BD70B5BA
:1079C00005460C480068C478042C01DD002070BD19
:1079D000114800EBC4012846FEF745FCF7E70246D4
:1079E000002901DD02207047002A01DD0220FAE7AC
:1079F0000020F8E71C20002034210020209C0008F3
:107A0000A0200020982000200C210020042100202C
:107A1000F4200020FC2000201421002010B50120BB
:107A2000FFF728FE0120FFF715FE01244D480460F2
:107A300000204D490880084600884A490860002017
:107A4000091D08604FF4E050474908800846008847
:107A500044490860002010BD10B50120414908606C
:107A60000020091D0860FFF705FE0020FFF7F2FD6A
:107A700003203C490860002010BD10B5394800685B
:107A800084B244F0080437480460006884B244F0CB
:107A9000040434480460FFF7B6FD10BD10B531484A
:107AA000006884B224F004042E480460FFF7AFFDA0
:107AB0004FF43F402B49086010BD70B50546072DB7
:107AC00001D02A48057029480078082841D2DFE80B
:107AD00000F0040A1016212E4142FFF7DFFF0620B6
:107AE000224908703BE0FFF7D9FF04201F490870C6
:107AF00035E002201D494870032008702FE01B4824
:107B00004078401E194948700846407808B904205A
:107B1000087024E01348006884B244F0100411484F
:107B200004600520114908700A20487017E00F48CA
:107B30004078401E0D4948700846407840B90948D1
:107B4000006884B224F0100406480460062008701F
:107B500005E000BF00BF06200449087000BF00BF59
:107B600070BD0000405C004026200020392100202C
:107B70000CB50020019000906B48006840F4803004
:107B80006949086000BF6848006800F40030009050
:107B90000198401C0190009818B90198B0F5A06FA9
:107BA000F1D16148006800F4003010B1012000906C
:107BB00001E0002000900098012843D15B48006854
:107BC00040F01000594908600846006820F00300A2
:107BD00008600846006840F00200086052484068AB
:107BE000514948600846406848600846406840F48B
:107BF000806048600846406820F47C104860084671
:107C0000406840F4E81048600846006840F0807022
:107C1000086000BF4448006800F000700028F9D0F8
:107C20004148406820F003003F49486008464068EA
:107C300040F00200486000BF3B48406800F00C0084
:107C40000828F9D10CBD10B5FFF792FF10BD10B593
:107C50003548006840F00100334908600846406834
:107C600033490840304948600846006831490840B7
:107C70002D4908600846006820F480200860084606
:107C8000406820F4FE0048604FF41F008860FFF752
:107C9000DAFF29482949086010BD10B500210020ED
:107CA0000022214B5B6803F00C0121B1042906D0AE
:107CB000082928D107E0224B224C236027E0204BE3
:107CC000204C236023E0184B5B6803F47010164BC4
:107CD0005B6803F48032022303EB904022B91A4B15
:107CE0004343184C23600DE00F4B5B6803F40033F3
:107CF00023B1154B4343134C236003E0104B434324
:107D0000104C236003E00E4B0E4C236000BF00BFFD
:107D1000054B5B68C3F303130C4CE15C094B1B6818
:107D2000CB40084C236010BD0010024000200240F0
:107D30000000FFF8FFFFF6FE0040000808ED00E03D
:107D400000127A003C21002000093D004021002063
:107D50000648804706480047FEE7FEE7FEE7FEE7E5
:107D6000FEE7FEE7FEE7FEE7FEE7FEE74F7C0008E2
:107D700031410008704700BFFEE700BFFEE700BFCB
:107D8000FEE700BFFEE770477047704770477047D7
:107D900010B5FFF7ABFC10BD704710B54FF4802055
:107DA000FCF7DDFA10BD10B501219348FEF737F856
:107DB000C8B101219048FEF743F890484068401D43
:107DC0008E4948608E48007868B9084640688D49F9
:107DD000884208D389484068401A88494860084664
:107DE0000068401C086010BD10B501218648FEF7F0
:107DF00016F828B101218448FEF722F801F080F836
:107E000010BD10B501218148FEF709F828B1012104
:107E10007E48FEF715F801F09BF810BD10B5012063
:107E2000FCF78CFA40B10120FCF799FA7848006819
:107E300010B177480068804710BD10B50220FCF7EC
:107E40007DFA40B10220FCF78AFA7248006810B14E
:107E500070480068804710BD10B50420FCF76EFA2A
:107E600040B10420FCF77BFA6B48006810B16A4807
:107E70000068804710BD10B50820FCF75FFA40B1DC
:107E80000820FCF76CFA6548006810B16348006888
:107E9000804710BD10B51020FCF750FA40B11020FB
:107EA000FCF75DFA5E48006810B15D4800688047E5
:107EB00010BD10B52020FCF741FA40B12020FCF79E
:107EC0004EFA5848006810B1564800688047402074
:107ED000FCF734FA40B14020FCF741FA5248006800
:107EE00010B15148006880478020FCF727FA40B164
:107EF0008020FCF734FA4D48006810B14B48006808
:107F000080474FF48070FCF719FA48B14FF4807045
:107F1000FCF725FA4648006810B1454800688047DC
:107F20004FF40070FCF70AFA48B14FF40070FCF708
:107F300016FA4048006810B13E480068804710BDFE
:107F400010B54FF48060FCF7F9F948B14FF4806048
:107F5000FCF705FA3848006810B1374800688047D8
:107F60004FF40060FCF7EAF948B14FF40060FCF709
:107F7000F6F93248006810B13048006880474FF485
:107F80008050FCF7DBF948B14FF48050FCF7E7F97B
:107F90002B48006810B12A48006880474FF4005011
:107FA000FCF7CCF948B14FF40050FCF7D8F925485C
:107FB000006810B12348006880474FF48040FCF708
:107FC000BDF948B14FF48040FCF7C9F91E4800687C
:107FD00010B11D48006880474FF40040FCF7AEF92F
:107FE00048B14FF40040FCF7BAF91848006810B1E6
:107FF00016480068804710BD00080040D4210020CA
:10800000D021002040420F00000C00400010004032
:108010008C21002090210020942100209821002014
:108020009C210020A0210020A4210020A8210020C4
:10803000AC210020B0210020B4210020B821002074
:10804000BC210020C0210020C4210020C821002024
:1080500010B5FFF7FCFD00F05FFB01218802FCF783
:10806000EAF80121C802FCF7E6F801210803FCF751
:10807000E2F801214803FCF7DEF801218804FCF74F
:10808000DAF80121C804FCF7D6F801210805FCF74D
:10809000D2F801214804FCF7CEF800F057FB00F0BD
:1080A00008FC002010BD000010B500210F222F4B4E
:1080B00000BF08E0585C2E4C645CA04201D0002058
:1080C00010BD481C81B29142F4DB0120F8E710B5E5
:1080D0004FF40061274800F0F7F810BD10B54FF4D9
:1080E0000061224800F0F0F810BD10B50F242246C0
:1080F0001F491E4800F007F910BD10B500F09DFAA9
:1081000000211D48FDF7C2FB00214FF08040FDF724
:10811000BDFB00211948FDF7B9FB00211848FDF708
:10812000B5FB00211748FDF7B1FB00211648FDF70C
:10813000ADFB00211548FDF7A9FB00211448FDF710
:10814000A5FB10BD10B50B4C206812490840B0F1DA
:10815000005F02D0FFF7C2FF6403206880F3088845
:1081600000BF00F0B6FA002010BD000000000408B7
:10817000889C000800400008002C014000040040DA
:1081800000080040000C00400010004000140040B7
:10819000003401400000FE2F10B500206F49087028
:1081A0006F49087040216F4801F02FFC40216E4854
:1081B00001F02BFC00206D49087010BD01700A12FF
:1081C000427070470146002008784A7840EA022051
:1081D000704701700A0A42700A0C82700A0EC2705F
:1081E00070470146002008784A7840EA02208A78E1
:1081F00040EA0240CA7840EA026070477047F8B52A
:1082000007460C4615461E46ADF800408DF8025054
:108210008DF8036069463846FCF7E8FBF8BD10B5F9
:1082200001210820FCF79EFE01210420FCF79AFEA4
:1082300001210820FCF796FE01211020FCF792FE98
:1082400001212020FCF78EFE01214020FCF78AFE50
:1082500001218020FCF786FE01210802FCF782FE46
:1082600001210846FCF77EFE01210420FCF787FE71
:1082700001210820FCF783FE01211020FCF77FFE7E
:108280004FF480503A4908601023032201463848D1
:108290001438FFF7B4FF0423032201213548FFF708
:1082A000AEFF04230322D9023348FFF7A8FF314869
:1082B000324908604860022008810120488100207E
:1082C0008881D020887310BD2DE9F04106460C4608
:1082D000E70AC4F30A0000B17F1C3520FCF702FB5B
:1082E000FCF765F8002507E03046FCF7A5F82449BF
:1082F000087006F500666D1CBD42F5DBFCF763F8FF
:108300000020BDE8F0812DE9F04105460E461746F4
:1083100000243520FCF7E6FAFCF749F800BF0AE034
:108320003019FFF75EFF804660194146FCF754F9AB
:1083300013490870241DBC42F2D3FCF744F8002016
:10834000BDE8F08170B504460D461646324621461A
:10835000284601F041FB002070BD000050210020A4
:1083600051210020182200205822002052210020F4
:10837000140801400018014000100140982200201C
:10838000532100200EB5E748FCF750FE40F2E730DD
:10839000ADF804004720ADF800000020ADF806005D
:1083A000ADF802006946DF48FCF714FF0121DD4803
:1083B000FDF732FD0021DB48FDF768FB0122114685
:1083C000D848FDF77EFA0021D648FDF75FFA0EBDCA
:1083D0000EB5D548FCF72AFE0420ADF8040047206E
:1083E000ADF800000020ADF80600ADF802008DF8F1
:1083F00008006946CC48FCF7EDFE0121CA48FDF7AC
:108400000BFD01221146C848FDF75BFA0121C64861
:10841000FDF73CFA0EBD7CB505460C462846FBF739
:108420009EFF009500208DF804008DF80540012086
:108430008DF806006846FBF71BFF7CBD10B50021D8
:108440000420FCF7E9FB08210120FFF7E4FF0D21E0
:108450000220FCF7E1FB08218802FFF7DCFF10BDDA
:1084600008B54FF4A060FBF76FFE1E208DF80000EA
:1084700000208DF801008DF8020001208DF8030026
:108480006846FBF766FE32208DF8000001208DF86B
:10849000010000208DF8020001208DF803006846DD
:1084A000FBF757FE36208DF8000001208DF8010003
:1084B0008DF802008DF803006846FBF74AFE142091
:1084C0008DF8000001208DF8010002208DF80200D7
:1084D00001208DF8030006208DF8000002208DF8A1
:1084E000010000208DF8020001208DF8030068468D
:1084F000FBF72FFE28208DF8000002208DF80100E8
:1085000000208DF8020001208DF803006846FBF77B
:1085100020FE08BD10B5FCF7B7FB4FF48030FCF728
:10852000D3FBFCF710FC012826D11020FBF734FF09
:108530000220FBF71DFF0020FCF74BFC0020FCF79E
:108540005AFC4FF48060FCF74DFC4FF4E0114FF4FF
:108550008030FCF721FC0120FCF72AFC00BF392009
:10856000FCF7D5FB0028FAD00220FCF724FC00BF62
:10857000FCF72AFC0828FBD110BD10B5FFF7CAFF95
:10858000FFF76EFFFFF74BFEFFF758FFFFF720FFE7
:10859000FFF7F8FEFFF749F8FFF72CF8FEF7FCF9B4
:1085A00010BD3EB504466148FCF740FD601E80B238
:1085B000ADF804004720ADF800000020ADF806003B
:1085C000ADF8020069465948FCF704FE01215748FE
:1085D000FDF722FC00215548FDF758FA012211460B
:1085E0005248FDF76EF900215048FDF74FF93EBDA6
:1085F0001FB504466846FDF722F96020ADF800007B
:10860000ADF806400020ADF808000120ADF80200EA
:1086100069464548FCF75DFE08214348FDF76FFABF
:1086200069464148FCF713FE08213F48FDF75EFA12
:1086300001213D48FDF736F91FBD00203C49086186
:10864000C8601420486100208861C861084600683D
:1086500040F0010008600846406836490840344947
:1086600048600846006834490840314908600846B7
:10867000006820F4802008600846406820F4FE006E
:10868000486000208860704710B52C48006840F0B2
:1086900004002A4908602648C06940F080502449F7
:1086A000C8610846C06940F00060C861244840685D
:1086B00040F48070224948600846006840F0040099
:1086C00008600846006840F002000860FBF73AFDC9
:1086D00010BD012080F3138800BF00BF00BF00BFA2
:1086E00000BF00BFBFF34F8F00BF00BF00BF1348E4
:1086F000001F006800F4E06012490843001D0F49A4
:10870000091F086000BF00BF00BFBFF34F8F00BF4D
:1087100000BF00BF00BFFEE710B50B48FCF7B5FB7C
:1087200010BD0000000C0040000800400010004098
:10873000001002400000FFF8FFFFF6FE10ED00E021
:10874000007000400000FA05A822002010B5FFF7D5
:1087500023FDFFF712FF00F09DFB00F059FB00F036
:10876000E8F900F04DFA00F00BFB0021574800F04B
:108770005CFF00F0EDFC10BD0020704710B55448C0
:108780000078B8B90120524908700020514908808A
:10879000514908804FF40071504801F036F94FF408
:1087A00000714F4801F031F94D484E4908604A4880
:1087B0004D4908604D480078002878D000204B498A
:1087C000087047480478132C26D006DC102C0BD0F8
:1087D000112C11D0122C39D116E0142C21D0702C70
:1087E00024D0712C32D129E03A4B3C4A3A480188D6
:1087F0003B4800F0FDFD29E0364B384A36480188F9
:10880000374800F00AFE21E0324B344A32480188F2
:10881000334800F0F6FD19E02E49304800F0E1FD44
:1088200014E02C492D4800F0DCFD0FE0294B2B4AC9
:10883000294801882A4800F007FE07E0254B274A0F
:1088400025480188264800F054FE00BF00BF4FF4C1
:108850007A7220480188214800F0CDFC2448007835
:1088600088B1122C0FD1002021490870C82000F0D7
:10887000C1FBFFF7F1F84FF4FA7000F0BBFBFFF714
:108880003CFCFFF726FF132C01D0142C0FD1132C26
:1088900001D1012000E0002016490870132C03D1FB
:1088A0004FF0FF3001E002E00A2013490860002089
:1088B00010BD00200F49087006E0FFF75FFF0D486C
:1088C000007808B9FFF758FFF7E700003C2F0020B9
:1088D000642100206021002062210020BC220020B1
:1088E000BC240020F4210020F0210020EC210020F5
:1088F00052210020582100205C21002038B5044678
:1089000000BF2089ADF8000003208DF80200102080
:108910008DF8030069462068FCF768F800BF00BFC7
:108920006089ADF8000003208DF8020014208DF856
:10893000030069466068FCF759F800BF204601F063
:10894000C3F8204601F0C8F8204601F0D1F82046CF
:1089500001F0BAF838BD2DE9F04105460F4614463E
:108960001E46284601F01CF9B0F1000802D040462E
:10897000BDE8F081A87B00F0FE01284601F0C6F8B2
:1089800020B1284601F031F90120F1E739462846A7
:1089900001F0BCF804E014F8011B284601F0B6F819
:1089A000301EA6F10101CEB2F5D1284601F01DF925
:1089B0000020DDE72DE9F05F0446884616461D4697
:1089C000204601F0EDF8B0F1000902D04846BDE8BC
:1089D000F09FA07B00F0FE01204601F097F820B147
:1089E000204601F002F90120F1E74146204601F05E
:1089F0008DF8204601F0D4F8A07B40F0010120461C
:108A000001F084F85EE0A2460027504601F070F8BD
:108A1000BB4615E07806070E504601F05DF850465B
:108A200001F052F8504601F05BF8504601F04CF866
:108A3000504601F061F807430BF1010000F0FF0B15
:108A4000BBF1080FE6DB504601F046F806F8017B63
:108A5000012D1AD100BF204601F03EF8204601F05A
:108A600033F8204601F044F8204601F02DF8204666
:108A700001F036F8204601F027F8204601F02CF8E6
:108A8000204601F021F800BF1AE000BF204601F0A7
:108A900023F8204601F018F8204601F025F820467A
:108AA00001F012F8204601F01BF8204601F00CF806
:108AB000204601F011F8204601F006F800BF00BF83
:108AC000681EC5B2002D9ED1204601F08EF8002010
:108AD0007DE700000246002100BF0BE0414800EBAB
:108AE00001100078904203D13E4800EB011070471E
:108AF000481CC1B20229F1D30020F8E770B5054641
:108B00002846FFF7E7FF041E08D0012061680870BF
:108B1000607818B104F1080000F022FA70BD10B5B9
:108B20000220FFF7EBFF10BD10B50120FFF7E6FFB5
:108B300010BD10B501202C49086040032B49086185
:108B400004230322012128481038FFF758FB04238F
:108B50000322D9022548FFF752FB00202449087060
:108B600024490870AFF23F0023490860AFF251007A
:108B70002249086010BD1E48007810B91D480078D1
:108B800008B1012070470020FCE7014600220129BE
:108B900002D002290BD105E013480838006800F024
:108BA000010204E011488068C0F3403200BF00BFFA
:108BB0000AB9012070470020FCE730B504460B4697
:108BC0002046FFF787FF051E00D06B7030BD10B543
:108BD00003461846FFF77EFF041E01D0607810BDE3
:108BE0000020FCE76C21002010180140001001401B
:108BF00068210020692100208C210020C021002054
:108C000010B54FF400505C49086040005B49486172
:108C100010230322411058481438FFF7F0FA1023AC
:108C2000032299025548FFF7EAFA10BD78B10128EE
:108C300002D0022814D105E04FF400514E4A121F11
:108C400011600DE04FF480414C4A116108E04FF48F
:108C50000051494A121F11604900484A116100BF82
:108C600000BF704770B1012802D0022812D104E081
:108C70004FF40051404A11600CE04FF480413F4AEC
:108C8000516107E04FF400513B4A116049003B4AF3
:108C9000516100BF00BF704708B101280FD13649AC
:108CA0000C390968C1F3403121B14FF40051324A07
:108CB000116004E04FF400512F4A121F116008B1F7
:108CC00002280DD12D498968C1F3803121B14FF4BB
:108CD00080412A4A516103E04FF48041274A1161E3
:108CE0007047024600217AB1012A02D0022A17D128
:108CF00005E021480C380068C0F3403110E01F48FF
:108D00008068C0F380310BE01B480C380068C0F36A
:108D10004030014319488068C0F38030014300BFF0
:108D200000BF002901DD012070470020FCE700B5ED
:108D30000120FFF797FF00BD00B50220FFF792FF6B
:108D400000BD70B505460C46012D02D0022D0ED196
:108D500006E02246AFF22901002000F0A8F806E064
:108D60002246AFF22B01012000F0A1F800BF00BFA6
:108D70002846FFF75BFF70BD14140140002001403E
:108D800010B52248FFF7BAFD10BD70B504460D4678
:108D9000164633462A4621461C48FFF70BFE70BD97
:108DA00070B504460D46164633462A4621461748F6
:108DB000FFF7D1FD70BD70B504460D4601232A466C
:108DC00021461248FFF7F6FD70BD13B50446012396
:108DD00001AA21460D48FFF7BEFD1CBDF8B50646A9
:108DE0000D461446FF2C0BD069463046FFF7E3FFD3
:108DF0009DF80000A043009025409DF80000054329
:108E000029463046FFF7E1FFF8BD00009822002018
:108E10000020104908601049086010490860104996
:108E2000086010490860104908601049086010493E
:108E3000086010490860104908601049086010492E
:108E4000086010490860104908601049086010491E
:108E5000086070478C210020902100209421002080
:108E6000982100209C210020A0210020A421002086
:108E7000A8210020AC210020B0210020B421002036
:108E8000B8210020BC210020C0210020C4210020E6
:108E9000C821002010B50020A3490860A34908603C
:108EA000A34908608021A34800F0AFFD10BD2DE963
:108EB000F04105460E4617460024A0460EE09D48A8
:108EC00000EBC400406838B19A4850F8340018B13B
:108ED00008F1010000F0FF08601CC4B2102CEEDBAA
:108EE000944800EBC5004660924840F83570B8F1F0
:108EF000000F03D101219048FCF7C8FCBDE8F081C8
:108F000070B5002400251BE08A4800EBC4004068CF
:108F1000A0B1884850F8340080B1864850F8340039
:108F2000401E844941F83400084650F8340018B90E
:108F300001EBC40148688047681CC5B2601CC4B21C
:108F4000102CE1DB1DB900217B48FCF79FFC70BDB4
:108F500010B57748006810B175480068804710BDAB
:108F60000121764A1170764909680160744949689F
:108F7000416000211170704700B503466A480360E4
:108F80007048FFF7EDFF00BD1CB50346002468469E
:108F9000FFF7E6FF18680099884207D8186800991B
:108FA000884205D158680199884201D300201CBD30
:108FB00000981968441AB4F57A6F01D9624802E042
:108FC000624904FB01F00446019820445968441AA0
:108FD0002046ECE700B55B48FFF7D6FF4FF47A7107
:108FE000B0FBF1F050490968884201D9012000BD69
:108FF0000020FCE73CB504464FF47A7004FB00F512
:109000006846FFF7ADFF00BF6846FFF7BDFFA84207
:10901000FAD33CBD3CB5054601246846FFF7A0FFE6
:1090200000BF6846FFF7B0FFA042FAD33CBD3CB595
:10903000054602246846FFF793FF00BF6846FFF726
:10904000A3FFA042FAD33CBD3CB5054605246846C3
:10905000FFF786FF00BF6846FFF796FFA042FAD3EE
:109060003CBD3CB505460A246846FFF779FF00BFC2
:109070006846FFF789FFA042FAD33CBD37E000BF46
:1090800000BF00BF00BF00BF00BF00BF00BF00BFE8
:1090900000BF00BF00BF00BF00BF00BF00BF00BFD8
:1090A00000BF00BF00BF00BF00BF00BF00BF00BFC8
:1090B00000BF00BF00BF00BF00BF00BF00BF00BFB8
:1090C00000BF00BF00BF00BF00BF00BF00BF00BFA8
:1090D00000BF00BF00BF00BF00BF00BF00BF00BF98
:1090E00000BF00BF00BF00BF00BF00BF00BF011E28
:1090F000A0F10100C3D1704700BF00BF00BF00BF97
:1091000000BF00BF00BF00BF00BF00BF00BF00BF67
:1091100000BF00BF00BF00BF00BF00BF00BF00BF57
:1091200000BF00BF70470000CC210020E4210020D8
:10913000E8210020BC260020000C0040D0210020A7
:10914000D4210020DC21002000286BEE40420F00DB
:109150000020F7490860F7490860F7490870704730
:109160002DE9F04706460D4617464FF03C083846B5
:10917000FFF702FF002431E0281B1FFA80F9C845E1
:1091800001DA404600E0484681464021EB4800F0C5
:109190003CFC31194A46E94800F01EFC40224FF4DD
:1091A0008C71E648FDF7B4FD40210220FEF711F86E
:1091B0000220FDF795FE00BF0220FDF77FFE20286C
:1091C00003D0FFF707FF0028F6D0FFF703FF10B129
:1091D0000720BDE8F08704EB080084B2AC42CBDB8B
:1091E0000020F6E710B50446AFF28B022146D448C2
:1091F00000F0D0FB10BDF8B504460D461646AFF2A0
:109200009F0033462A4621460090CD4800F00DFBD2
:10921000F8BD70B50026CB48007858B10020C94988
:10922000087040229821C848FDF78CFD0120FDF709
:109230006FFE3C26002E2ADDBD48006838B3BD48CD
:10924000006820B300241EE0B948006810B1B94896
:10925000006800B919E0BC48015DB6480368B4482D
:109260000268B74800F006FB05461DB90120B24967
:1092700008700AE0062D04D14FF47A70FFF7B2FFB0
:1092800003E0601C84B2B442DEDB00BF0026002095
:1092900070BD70B504460D4616460020A6490870FC
:1092A000A3480460A3480560FFF7B3FF3046FFF70B
:1092B00063FE00BFA048007818B9FFF78BFE0028B6
:1092C000F8D000209A4908609A4908609A480078C6
:1092D00008B1002070BD0820FCE730B5034600202F
:1092E0000BE013F8104001F8104033F8104025123D
:1092F0004400641C0D55441CA0B202EBD275B0EBC7
:10930000650FEEDB30BD30B50346002015E04400AC
:10931000641C1C5D21F8104031F810404FF6FF75B9
:1093200005EA042421F8104031F8104013F81050D9
:109330002C4321F81040441CA0B202EBD275B0EBD4
:10934000650FE4DB30BD2DE9F05F05460E4617469C
:109350009846DDE90BABDDF828900024285D3870D5
:10936000641C285D88F80000641C285D89F80000F2
:10937000641C281900F08BF9AAF80000A41C281915
:10938000CBF80000B44202DD0120BDE8F09F0020D0
:10939000FBE72DE9F05F05460E4617469846DDE9E6
:1093A0000BABDDF828900024285D3870641C285D24
:1093B00088F80000641C281900F078F9C9F800004A
:1093C000241D281900F072F9CAF80000241D28197C
:1093D000CBF80000B44202DD0120BDE8F09F002080
:1093E000FBE7024600201070012008800020704733
:1093F00070B505460E46144619462046FFF7F1FFA4
:1094000070BD70B505460E46144601204F490870E0
:1094100019462046FFF7E5FF70BD2DE9F0410746EC
:10942000884614461D464A4800F0FAFA401C86B2A7
:109430000020207032464649601C00F0CDFA701CB6
:1094400028800020BDE8F0812DE9F04788B08046F3
:10945000894616461C460027354606F1010A03A830
:1094600004A905AA06ABCDE90021029007AA494646
:109470004046FFF78EFF30B1022028700120208087
:1094800008B0BDE8F0879DF81800072804D0082828
:1094900011D009282AD11BE05146DDE90420FEF74E
:1094A00051FF07460FB9002000E0072028700498FC
:1094B000401C20801AE0DDE90410FEF705FF074696
:1094C0000FB9002000E008202870012020800DE066
:1094D000DDE903120598FEF716FF07460FB90020D5
:1094E00000E0092028700120208000BF00BF00207C
:1094F000C6E72DE9F04788B08046894616461C46E7
:109500000027354606F1010A03A804A905AA06ABFF
:10951000CDE90021029007AA49464046FFF713FF14
:10952000C0B1022028700120208008B0BDE8F0877B
:10953000F4210020F0210020EC210020182200203E
:109540003C2F0020512100205822002052210020D1
:10955000979C00089DF81800012802D0022824D109
:1095600012E0BDF81000C2B251469DF81400FFF79A
:109570000CFC07460FB9002000E003202870BDF85E
:109580001000401C208010E0BDF81000C2B29DF811
:1095900014000399FFF704FC07460FB9002000E010
:1095A000042028700120208000BF00BF0020BCE7FD
:1095B00010B5044600206080A0802072607240F2E6
:1095C0000B2104F2214000F020FA10BD10B5044632
:1095D00040F20B2104F2162000F017FA0020E08080
:1095E00010BD10B5034600211CE04FF6FF7404EADD
:1095F000012000220EE000F400442CB141F22104CD
:1096000084EA4004A0B203E04FF6FF7404EA40008D
:10961000541CE2B2082AEEDB03F1160424F8110010
:109620004C1CA1B2FF29E0DD10BD70B504460D460B
:109630002046FFF7D6FF2046FFF7C8FF2046FFF77A
:10964000B7FF257000202061E060A08270BDF0B5FA
:1096500003460C461546002100220BE0A05C80EA80
:10966000212603F1160030F8160080EA012081B2AD
:10967000501C82B2AA42F1DB4FF6FF7781EA070065
:10968000F0BD0161704701700A12427070470146D7
:10969000002008784A7840EA0220704701700A0AE0
:1096A00042700A0C82700A0EC27070470146002098
:1096B00008784A7840EA02208A7840EA0240CA786C
:1096C00040EA0260704710B503460C4620781870D7
:1096D000601CFFF7DCFF5880E01CFFF7E7FF5860D5
:1096E000E01DFFF7D4FF188104F10900FFF7CFFF59
:1096F000588110BD10B503460C4618782070598863
:10970000601CFFF7C0FFE01C5968FFF7C7FF19890D
:10971000E01DFFF7B8FF598904F10900FFF7B3FF17
:1097200010BD2DE9F04706460F4614461D46DDE9FB
:109730000889B4F5007F00DC14B90320BDE8F08788
:109740006820A249087008464480C0F80490224668
:1097500039463046FFF77BFF9C49088129469B48E4
:10976000FFF7C8FF092229463046FFF770FF9749E7
:1097700048810846418905F10900FFF784FF224628
:10978000394605F10B0000F027F904F10B00A8F8A9
:1097900000000020D2E72DE9F04707460D461646A7
:1097A0001C46DDE90889B8F5037F02DB0320BDE82C
:1097B000F08721468648FFF786FF854800786828AD
:1097C00001D00220F3E782484088B0F5007F02DC38
:1097D0007F48408808B90320E9E709222146384636
:1097E000FFF735FF7A494989884201D00520DEE735
:1097F0007748428804F10B013846FFF728FF744987
:109800000989884201D00520D1E77148408830801D
:109810006F484068C9F800006D48428804F10B01A8
:10982000284600F0D9F80020C1E72DE9FC4704469E
:109830000F4690461E46DDF82890207810B120692A
:10984000401C2061A11D206904F216234246CDE987
:10985000001039462046FFF764FF054615B128463B
:10986000BDE8FC87E188324604F21620C847054669
:109870002846F5E72DE9FE4304460E46174698466E
:109880004FF00109A188481CA08004F221404654F1
:10989000207A68B9A08801280AD194F821046828A0
:1098A00002D1012020726AE02046FFF781FE66E0C7
:1098B000607AC0B9A088032815D104F22240FFF7CE
:1098C000E6FE60806088002809DD6088B0F5007FD2
:1098D00005DC60880B306080012060724FE020461C
:1098E000FFF766FE4BE0A0880B2810D104F22A4057
:1098F000FFF7CDFE0546092204F221412046FFF77D
:10990000A6FE85423BD02046FFF752FE37E0A088F6
:109910006188884233DBA0880B2830DD02A9A0884B
:1099200004F221434246CDE9000139462046FFF7C3
:1099300032FF8146B9F1000F1DD1A28804F2214106
:109940002046FFF784FE0546207830B12069029951
:1099500088420DD04FF004090AE002982061E068C7
:109960000299884204D1A08AA84201D14FF0060989
:10997000A5820298E0602046FFF71AFE00BFA0888B
:1099800040F20B21884202DB2046FFF711FE4846D9
:10999000BDE8FE832DE9FF4104460D46164602A9A7
:1099A000E08804F2162303AACDE900010949204604
:1099B000FFF7F1FE07462FB9E1882A4604F2162088
:1099C000B0470746384604B0BDE8F081683500204E
:1099D000743500208035002040EA01039B0703D046
:1099E00009E008C9121F08C0042AFAD203E011F8DE
:1099F000013B00F8013B521EF9D27047D2B201E0A0
:109A000000F8012B491EFBD270470022F6E710B583
:109A100013460A4604461946FFF7F0FF204610BDDC
:109A2000421C10F8011B0029FBD1801A704700006E
:109A3000064C074D06E0E06840F0010394E807009B
:109A400098471034AC42F6D3FAF776FBA09C000896
:109A5000C09C000870B58C1810F8015B15F0070366
:109A600001D110F8013B2A1106D110F8012B03E0B7
:109A700010F8016B01F8016B5B1EF9D12B0705D4BF
:109A80000023521E0DD401F8013BFAE710F8013B08
:109A9000CB1A921C03E013F8015B01F8015B521E24
:109AA000F9D5A142D8D3002070BD02E008C8121F2A
:109AB00008C1002AFAD170477047002001E001C1B7
:109AC000121F002AFBD17047818900BF0A1EA1F135
:109AD000010399B2FAD17047018902685161704758
