:020000040800F2
:10000000E81A00204501000889180008C5170008F3
:1000100085180008E90200085130000800000000BF
:100020000000000000000000000000005120000857
:10003000CD13000800000000591B0008AD2900087E
:100040005F0100085F0100085F0100085F01000810
:100050005F0100085F0100085F0100085F01000800
:100060005F0100085F0100085F010008B50F00088C
:100070005F0100085F0100085F0100085F010008E0
:100080005F0100085F0100085F0100086D2E000895
:10009000D12F00085F0100085F0100085F01000820
:1000A0005F0100085F0100085F0100085F010008B0
:1000B0005F0100085F0100085D2A00085F01000879
:1000C0005F0100085F0100085F0100085F01000890
:1000D0005F0100085F0100085F0100085F01000880
:1000E0005F0100085F0100083D2E00085F01000865
:1000F0005F0100085F0100085F0100085F01000860
:100100005F0100085F010008B12A00085F010008D4
:100110005F0100085F010008D12A00085F010008A4
:100120005F0100085F0100085F0100085F0100082F
:10013000DFF80CD000F044F8004800471332000804
:10014000E81A00200648804706480047FEE7FEE719
:10015000FEE7FEE7FEE7FEE7FEE7FEE7FEE7FEE777
:10016000B12900083101000840EA01039B0703D0D0
:1001700009E008C9121F08C0042AFAD203E011F8E6
:10018000013B00F8013B521EF9D27047D2B201E0A8
:1001900000F8012B491EFBD270470022F6E710B58C
:1001A00013460A4604461946FFF7F0FF204610BDE5
:1001B000421C10F8011B0029FBD1801A7047000077
:1001C000064C074D06E0E06840F0010394E80700A4
:1001D00098471034AC42F6D3FFF7AEFF74350008F1
:1001E0009435000870B58C1810F8015B15F0070302
:1001F00001D110F8013B2A1106D110F8012B03E0C0
:1002000010F8016B01F8016B5B1EF9D12B0705D4C7
:100210000023521E0DD401F8013BFAE710F8013B10
:10022000CB1A921C03E013F8015B01F8015B521E2C
:10023000F9D5A142D8D3002070BD000010B500212F
:100240000F22084B00BF08E0585C074C645CA042DA
:1002500001D0002010BD481C81B29142F4DB012086
:10026000F8E70000000004085A35000810B501F056
:10027000F9FE0021104802F04DFC00214FF08040B3
:1002800002F048FC00210D4802F044FC00210C481B
:1002900002F040FC00210B4802F03CFC00210A481F
:1002A00002F038FC0021094802F034FC0021084823
:1002B00002F030FC10BD0000002C014000040040A2
:1002C00000080040000C00400010004000140040F6
:1002D0000034014010B54FF40061024802F002FF03
:1002E00010BD00000000040800BFFEE70146CAB2CE
:1002F0000B1243EA0220704708B50020009022E16B
:100300009748008800F00F0096490870084600786A
:1003100000287CD1944800689449088008460088E9
:1003200000F03000924908809048008800F4405066
:100330008E4908808C4909684BF6BF7201EA0200B9
:1003400080F4005080F0200040F4004141F0800132
:10035000854A11608248008800F0100090BB10466A
:10036000006848F60F7108401146086001F02CFA49
:100370007D4909684BF6BF7201EA02007B49098892
:1003800001F4805109B180F480507849098801F462
:10039000005109B180F400507549098801F010013D
:1003A00009B180F010007249098801F0200109B1FB
:1003B00080F0200081B241F4004141F080016A4A9E
:1003C000116008BDFFE76848006880B20090BDF882
:1003D000000000F40060B0B363480068C0F30E0092
:1003E00048F68F7108406049086002F025F85E49C0
:1003F00009684BF6BF7201EA02005C49098801F402
:10040000805109B180F480505849098800E056E0D5
:1004100001F4005109B180F400505549098801F0F8
:10042000100109B180F010005149098801F0200144
:1004300009B180F0200081B241F4004141F0800117
:10044000494A1160BDE7FFE7BDF8000000F4004035
:10045000002878D044480068C0F30E0048F68F7139
:1004600008404149086001F03BFB3F4909684BF6F1
:10047000BF7201EA02003D49098801F4805109B1C7
:1004800080F480503949098801F4005109B180F4A1
:1004900000503749098801F0100109B180F01000BF
:1004A0003349098801F0200109B180F0200081B2B0
:1004B00041F4004141F080012B4A116081E7294855
:1004C00000782C4901EB8000D0F8000C80B200903D
:1004D000BDF8000000F40040C0B12248007801EBF4
:1004E0008000D0F8000CC0F30E0048F68F71084071
:1004F0001C4909781F4A02EB8101C1F8000C194917
:100500000978491E1C4A52F821008047BDF80000B6
:1005100000F08000B8B113480078164901EB800064
:10052000D0F8000C48F60F7108400E490978114ABE
:1005300002EB8101C1F8000C0A490978491E0F4AF3
:1005400052F82100804708484430006880B20449CE
:10055000088000F4004000287FF4D2AE00BF30E7EE
:100560004C00002018000020005C00402C000020FF
:100570002E000020005000406C00002050000020A1
:100580000B4A02EB8001D1F8001C01F4804171B1EB
:1005900002EB8001D1F8001C48F68F7211404CF23A
:1005A00080021143024B03EB8002C2F8001C70472B
:1005B000005000400B4A02EB8001D1F8001C01F012
:1005C000400171B102EB8001D1F8001C48F68F7236
:1005D000114048F2C0021143024B03EB8002C2F803
:1005E000001C704700500040084A02EB8001D1F81F
:1005F000001C48F68F62114048F280021143034B01
:1006000003EB8002C2F8001C70470000005000405D
:100610002DE9F0410746884614461D460848FFF775
:10062000C7FD401C86B20020207032460449601C81
:10063000FFF79AFD701C28800020BDE8F0810000C3
:100640006935000800200349086003490860034930
:1006500008707047680100206401002060010020DC
:100660000246002010700120088000207047000022
:100670002DE9F04706460D4617464FF03C08384630
:1006800001F0C4FE00242DE0281B1FFA80F9C845A4
:1006900001DA404600E04846814640211348FFF712
:1006A0007CFD31194A461148FFF75EFD40224FF4A8
:1006B0008C710E4802F0CEFC022001F007FE00BF54
:1006C000022001F051F8202803D001F0B5F80028ED
:1006D000F6D001F0B1F810B10720BDE8F08704EBC7
:1006E000080084B2AC42CFDB0020F6E78C0100208A
:1006F00070B505460E46144619462046FFF7B0FF72
:1007000070BD000070B500261F48007868B1002059
:100710001D490870402298211C4801F009FA4FF445
:100720004051012001F05AFD3C26002E2ADD1848D8
:10073000006838B31748006820B300241EE014484E
:10074000006810B11348006800B919E00F48015D56
:10075000104803680E4802680F4800F0CEF90546BD
:100760001DB901200D4908700AE0062D04D14FF48F
:100770007A7000F027F803E0601C84B2B442DEDB3C
:1007800000BF0026002070BD2C010020CC010020FD
:100790006801002064010020A00E002060010020FC
:1007A000F8B504460D461646044833462A46214607
:1007B0000090034800F03FFAF8BD00007106000801
:1007C000A00E002010B50446024A2146024800F05F
:1007D00063FA10BD71060008A00E002070B5054632
:1007E0000E46144601200349087019462046FFF7BB
:1007F00037FF70BD2D0100202DE9F04788B08046FD
:10080000894616461C460027354606F1010A03A80C
:1008100004A905AA06ABCDE90021029007AA494622
:10082000404600F03EF830B10220287001202080C0
:1008300008B0BDE8F0879DF81800072804D0082804
:1008400011D009282AD11BE05146DDE9042002F02D
:100850006BFC07460FB9002000E0072028700498C1
:10086000401C20801AE0DDE9041002F03BFC074642
:100870000FB9002000E008202870012020800DE042
:10088000DDE90312059802F05BFC07460FB9002072
:1008900000E0092028700120208000BF00BF002058
:1008A000C6E72DE9F05F05460E4617469846DDE996
:1008B0000BABDDF828900024285D3870641C285D9F
:1008C00088F80000641C281900F0F8F8C9F8000046
:1008D000241D281900F0F2F8CAF80000241D281978
:1008E000CBF80000B44202DD0120BDE8F09F0020FB
:1008F000FBE7F0B503460C461546002100220BE04D
:10090000A05C80EA212603F1160030F8160080EA88
:10091000012081B2501C82B2AA42F1DB4FF6FF7770
:1009200081EA0700F0BD10B5034600211CE04FF638
:10093000FF7404EA012000220EE000F400442CB110
:1009400041F2210484EA4004A0B203E04FF6FF74B0
:1009500004EA4000541CE2B2082AEEDB03F116045C
:1009600024F811004C1CA1B2FF29E0DD10BD0000ED
:100970002DE9F04707460D4616461C46DDE9088975
:10098000B8F5037F02DB0320BDE8F08721461D4850
:1009900000F076F81B480078682801D00220F3E7C1
:1009A00018484088B0F5007F02DC1648408808B936
:1009B0000320E9E7092221463846FFF79AFF11494B
:1009C0004989884201D00520DEE70E48428804F1BB
:1009D0000B013846FFF78DFF0A490989884201D08B
:1009E0000520D1E707484088308006484068C9F8AC
:1009F00000000448428804F10B012846FFF7B4FBCD
:100A00000020C1E7D81400202DE9F04706460F4624
:100A100014461D46DDE90889B4F5007F00DC14B9F1
:100A20000320BDE8F0876820144908700846448018
:100A3000C0F80490224639463046FFF75AFF0F4966
:100A4000088129460D4800F045F90922294630461B
:100A5000FFF74FFF094948810846418905F1090020
:100A600000F04FF92246394605F10B00FFF77CFBF9
:100A700004F10B00A8F800000020D2E7CC140020FD
:100A800010B503460C4620781870601C00F00FF873
:100A90005880E01C00F012F85860E01D00F007F8E4
:100AA000188104F1090000F002F8588110BD0146D8
:100AB000002008784A7840EA02207047014600206A
:100AC00008784A7840EA02208A7840EA0240CA78E8
:100AD00040EA0260704770B504460D462046FFF7B5
:100AE00022FF204600F0CCF8204600F096F8257052
:100AF00000202061E060A08270BD2DE9FE43044625
:100B00000E46174698464FF00109A188481CA08060
:100B100004F221404654207A68B9A08801280AD1FD
:100B200094F82104682802D1012020726AE020464E
:100B300000F073F866E0607AC0B9A088032815D188
:100B400004F22240FFF7B3FF60806088002809DDCF
:100B50006088B0F5007F05DC60880B306080012084
:100B600060724FE0204600F058F84BE0A0880B2858
:100B700010D104F22A40FFF79AFF0546092204F239
:100B800021412046FFF7B5FE85423BD0204600F0CC
:100B900044F837E0A0886188884233DBA0880B28BE
:100BA00030DD02A9A08804F221434246CDE90001CC
:100BB00039462046FFF7DCFE8146B9F1000F1DD112
:100BC000A28804F221412046FFF793FE05462078D3
:100BD00030B12069029988420DD04FF004090AE033
:100BE00002982061E0680299884204D1A08AA84254
:100BF00001D14FF00609A5820298E060204600F07E
:100C00000CF800BFA08840F20B21884202DB20468E
:100C100000F003F84846BDE8FE8310B50446002006
:100C20006080A0802072607240F20B2104F22140AB
:100C3000FFF7B3FA10BD2DE9FC4704460F46904676
:100C40001E46DDF82890207810B12069401C2061F4
:100C5000A11D206904F216234246CDE90010394651
:100C60002046FFF7D1FE054615B12846BDE8FC87B2
:100C7000E188324604F21620C84705462846F5E7C3
:100C800010B5044640F20B2104F21620FFF785FA56
:100C90000020E08010BD00002DE9FF4104460D4614
:100CA000164602A9E08804F2162303AACDE9000142
:100CB00007492046FFF75CFE07462FB9E1882A4620
:100CC00004F21620B0470746384604B0BDE8F0816C
:100CD000E414002010B503460C461878207059889B
:100CE000601C00F00EF8E01C596800F00EF819893D
:100CF000E01D00F006F8598904F1090000F001F840
:100D000010BD01700A124270704701700A0A4270E9
:100D10000A0C82700A0EC2707047000070B505465A
:100D20001A480068808808B1022070BD0024062D92
:100D300014D116480068007800F07F0001280DD11A
:100D4000124800688078222801D1114C10E00F4829
:100D50000068807821280BD10E4C09E00B48006810
:100D6000007800F07F00212802D1032D00D10A4C29
:100D70000CB90220D9E705480068846100210348C6
:100D8000006841820020A0470020CEE71C00002020
:100D9000F50D0008C50D0008D90D000810B5044672
:100DA0000249204601F070FC10BD0000EC0000205C
:100DB00010B504460249204601F066FC10BD000053
:100DC000E400002010B504460249204601F05CFC16
:100DD00010BD0000FC000020014629B90120034A93
:100DE00012681082002070470148FCE71C000020B8
:100DF0008800002010B504460249204601F044FC5A
:100E000010BD0000F400002070B5054606480068DB
:100E1000C478042C01DD002070BD044800EBC4013F
:100E2000284601F031FCF7E71C00002004010020F7
:100E30000246002901DD02207047002A01DD022060
:100E4000FAE70020F8E7000000B50246064800680F
:100E5000007800F07F00212804D10B2A02D100F095
:100E600077F800BD0220FCE71C00002010B5002030
:100E70002A490968887229490968C8722848C079CE
:100E8000264909684872002001F040F94FF40071CA
:100E9000002001F035FA1021002001F0F7F91821A7
:100EA000002001F063F95821002001F0D1F9002061
:100EB000FFF79AFB1B4890F82C10002001F068F90E
:100EC000002001F0ABF94FF4C061012001F018FAE5
:100ED0009821012001F04AF94021012001F058F940
:100EE0004FF44051012001F079F94FF4C061022024
:100EF00001F006FA4FF48C71022001F0A9F94021AB
:100F0000022001F0B5F92021022001F0BFF90120F3
:100F100005490860002001F001F910BD1C00002007
:100F2000F2340008900000202401002003480068EB
:100F3000807A10B105200249086070471C0000202B
:100F4000240100200420014908607047240100208A
:100F500003480068C1780348016000207047000022
:100F60001C000020880000207047704710B500F07A
:100F700007FC002005490968887200F027FE02F08E
:100F80002BF800200249086010BD00001C00002062
:100F90002401002029B1064A52680243044B5A60DA
:100FA00004E0034A52688243014B5A6070470000D4
:100FB000002004E0704700002DE9F0472848006851
:100FC00000F110052E8826480068077AD6B9042F4C
:100FD00018D12448007801280FD100212248006848
:100FE00080B2801C214A42F810103020204908802D
:100FF00000BF00201B49087003E0072710201C4990
:10100000088027E0AC88A64201D8042000E0022036
:101010000746B44200D93446A0B2A9688847804642
:10102000002000F091FB8146A2B24946404602F002
:1010300011F8A1B2002001F01BF92888001B2880BC
:1010400068882044688030200949088000020949E6
:10105000088000BF024909680F72BDE8F0870000F0
:101060001C00002016000020505C00400060004082
:101070002E0000202C0000202DE9F04128480068B7
:1010800000F110042688A068C0B1BEB1A588B542A1
:1010900000D93546A8B2A168884707462088401B7A
:1010A0002080608828446080002000F03DFB80465E
:1010B000AAB24146384600F03BFD00BF208850B13F
:1010C0004FF44050174908800021084601F0D0F83D
:1010D0003020154908802088A188884204DB03203D
:1010E0000F490968087218E02088002804DD0520EF
:1010F0000B490968087210E0208870B90620084979
:101100000968087200210948006880B2801C084AFA
:1011100042F81010302004490880BDE8F08100003A
:101120001C0000202C0000202E000020505C0040FD
:10113000006000402DE9F84F9B4800684578002783
:10114000BA46062D1BD198480068007800F07F0051
:10115000002813D1944909688878012803D193495C
:101160000968CF690AE0022803D1904909680F6A2B
:1011700004E0032802D18D4909684F6A94E0002DEC
:1011800064D189480068408800285FD1864800689B
:10119000C08802285AD1844800680079002855D1B7
:1011A00081480068007800F07F0028B97E48006818
:1011B000808808B97E4F77E07B480068007800F0AF
:1011C0007F00012810D17849096848797749096872
:1011D0008A6900219047002866D173480068807AA8
:1011E000002861D0724F5FE06F480068007800F01F
:1011F0007F00022858D16C480068407900F00F0643
:1012000069480068407900F07009674800684079D3
:1012100000F0800038B1674901EB8600D0F8000C7F
:1012200000F0300806E0634901EB8600D0F8000CBE
:1012300000F4405860480078B04235D9B9F1000F49
:1012400032D1B8F1000F2FD0594F2DE0082D07D122
:1012500055480068007800F07F0028BB574F23E016
:101260000A2D21D150480068007800F07F00012845
:101270001AD14D480068807AB0B14B480068408868
:1012800090B949480068007970B947480068C0883B
:10129000012809D1444909684879444909688A699B
:1012A0000021904700B9464F57B13F480068A0F869
:1012B00012A03D48006887610020B84700240FE075
:1012C000394A12685078394A1268116988470446C9
:1012D000032C05D10920344909680872BDE8F88F4C
:1012E00031480068008A4FF6FF71884204D1092016
:1012F0002D4909680872F1E7022C03D02A480068DA
:10130000008A20B90820284909680872E6E72648BB
:101310000068007800F08000E0B323480068C088CF
:10132000009021480068008A0099884204D91E492B
:1013300000980968088223E01B480068008A1A495F
:101340000968C98888421BDA17480068008A17496B
:10135000096891F82C10884203DA002019490870B6
:101360000EE011480068008A1049096891F82C10B5
:1013700090FBF1F201FB120010B901201149087035
:101380000A48006890F82C10074800688182FFF72F
:1013900013FE07E0FFE70320034909680872000312
:1013A0000949088000BF99E71C00002020000020A8
:1013B000D9260008005000408C0000205D2600085F
:1013C000AD260008160000202C0000207047000009
:1013D00010B5012002490870FFF794F910BD000014
:1013E0002C01002010B50B480078012810D10220F4
:1013F00000F0BAF9202808D140220749822001F0E4
:10140000FDFD3021022000F041FF0020014908705D
:1014100010BD00002B0100208C0100200149086054
:101420007047000014040140032001490860704720
:10143000240100200149C8607047000000200240DC
:1014400030B5044604254FF4302000F09FF80546DF
:10145000042D17D10C48006940F002000A490861C8
:1014600008464461006940F0400008614FF43020B4
:1014700000F08CF805460448006941F6FD7108400B
:1014800001490861284630BD0020024004200B4974
:10149000C96801F0010109B101200EE00749C968DE
:1014A00001F0040109B1022007E00449C96801F014
:1014B000100109B1032000E0042070470020024021
:1014C0000348006940F0800001490861704700004E
:1014D000002002400549096821F01001034A11600B
:1014E0001146096801431160704700000020024066
:1014F00078B506460C46042500200090E80200F06E
:1015000045F80546042D24D11348006940F0010038
:10151000114908613480E80200F038F80546042DCE
:1015200010D1B01C0090200C00990880E80200F057
:101530002DF805460848006941F6FE710840064945
:10154000086106E00448006941F6FE71084002495E
:101550000861284678BD00000020024001460020B6
:10156000034A106800F0380008431060704700001C
:101570000020024002480349486003484860704721
:101580002301674500200240AB89EFCD00B502463C
:101590000423FFF77BFF034603E0FFF777FF0346D3
:1015A000521E012B01D1002AF7D102B9052318469A
:1015B00000BD000070B50026094C206809490840AC
:1015C000B0F1005F02D0FEF785FE640365682E4629
:1015D000206880F3088800BFB047002070BD00007D
:1015E000004000080000FE2F2DE9F04102460025D2
:1015F0000026002000230024002791F803C00CF0EF
:101600000F0591F803C00CF0100CBCF1000F03D0D3
:1016100091F802C04CEA050591F800C0BCF1000F3A
:1016200031D0146800202BE04FF0010C0CFA00F3CD
:10163000B1F800C00CEA03069E4220D183004FF0AF
:101640000F0C0CFA03F7BC4305FA03FC4CEA040444
:1016500091F803C0BCF1280F06D14FF0010C0CFA31
:1016600000FCC2F814C00AE091F803C0BCF1480FB6
:1016700005D14FF0010C0CFA00FCC2F810C0401C60
:101680000828D1D31460B1F800C0BCF1FF0F34DDDD
:10169000546800202EE000F1080C4FF0010808FA11
:1016A0000CF3B1F800C00CEA03069E4221D183007E
:1016B0004FF00F0C0CFA03F7BC4305FA03FC4CEA9D
:1016C000040491F803C0BCF1280F05D100F1080C07
:1016D00008FA0CF8C2F8148091F803C0BCF1480F66
:1016E00007D100F1080C4FF0010808FA0CF8C2F815
:1016F0001080401C0828CED35460BDE8F081F8B5B6
:1017000007460C4615461E46ADF800408DF80250BF
:101710008DF8036069463846FFF766FFF8BD416102
:10172000704701617047000001460548006880B2BB
:1017300000EBC100001D034A32F8100080B2704770
:10174000505C00400060004001460548006880B2DF
:1017500000EBC100034A32F8100080B2704700006D
:10176000505C0040006000400146044A02EB8100EA
:10177000D0F8000C00F0300070470000005000402E
:101780007047000010B50121082000F061FA012126
:10179000042000F05DFA0121084600F059FA012109
:1017A000042000F035FA4FF48050054908601023FA
:1017B0000322014602481438FFF7A1FF10BD0000C4
:1017C0001408014000BFFEE710B518480068047A0D
:1017D000022C01D0042C05D1FFF7EEFB1348006862
:1017E000047A1CE0062C19D11048006840780528BE
:1017F0000ED10E480068007800F07F0040B90B4918
:101800000968C87800F08AFC09490968086A8047B5
:101810000849096888688047082400E008240349CB
:1018200009680C7200F09AF910BD00001C0000203D
:10183000280000202000002000B5074801F0A2FC8D
:101840004FF47A71B0FBF1F004490968884201D97C
:10185000012000BD0020FCE75001002040010020D5
:1018600010B5064CA07A18B105200549086002E0C1
:1018700001200349086001F09BF810BD70010020B1
:101880002401002000BFFEE77047704770B50021BB
:1018900000230F22C47804B3154C246804F4E064D8
:1018A000C4F5E064210AC1F10403CA40447804FA93
:1018B00003F184781440214309010E4C0678A155A8
:1018C000047804F01F050124AC4005786D11AD00CB
:1018D00005F1E025C5F8004109E0047804F01F0592
:1018E0000124AC40044D0678761145F8264070BDC1
:1018F0000CED00E000E400E080E100E0024901437B
:10190000024A1160704700000000FA050CED00E08B
:10191000024A0A400243024B1A60704780FFFF1FD1
:1019200008ED00E070B50226474800684478464854
:101930000068007800F07F00002844D1092C03D112
:1019400000F04AFF06465FE0052C14D13E480068CF
:10195000C0787F280BDC3C480068807838B93A486A
:101960000068808818B938480068807A08B108256E
:1019700065E0002648E0032C0ED133480068C078AB
:10198000012807D130480068808818B900F048FF66
:10199000064639E0022637E0012C35D12A48006896
:1019A000C07801280DD128480068808848B92648A9
:1019B0000068407A00F0200018B100F099FD06465A
:1019C00022E0022620E020480068007800F07F0036
:1019D000012805D10B2C17D100F09EFF064613E01D
:1019E00019480068007800F07F0002280BD1012C14
:1019F00003D100F07DFD064606E0032C04D100F083
:101A000023FF064600E002264EB1E0B20F4A1268FC
:101A1000516988470646032E01D109250FE00EB112
:101A200008250CE0062500210948006880B2801CCA
:101A3000084A42F8101030200749088000BF0249C8
:101A400009680D7270BD00001C00002020000020FD
:101A5000505C0040006000402E00002008B50021CE
:101A60004FF00060FFF754FF4FF4A060FFF746FF10
:101A70001E208DF8000000208DF801008DF8020076
:101A800001208DF803006846FFF700FF32208DF833
:101A9000000001208DF8010000208DF802000120D7
:101AA0008DF803006846FFF7F1FE36208DF8000040
:101AB00001208DF801008DF802008DF803006846C2
:101AC000FFF7E4FE14208DF8000001208DF80100DE
:101AD00002208DF8020001208DF8030008BD0000EF
:101AE00010B511480068047A022C01D0042C01D1F1
:101AF000082412E0032C01D0052C05D1FFF7BCFA15
:101B000009480068047A08E0072C05D107490968EC
:101B1000C8688047082400E00824034909680C725B
:101B200000F01CF810BD00001C0000202000002068
:101B3000F0B5561C7510074E06EB41042B4605E028
:101B400034F8047B20F8017B401C5B1E002BF7D18E
:101B5000F0BD0000006000407047000010B50D4867
:101B600090F82C10002000F013FB0B480068007A5E
:101B7000082805D14002094908801020084908803A
:101B800005480068007A092801D1012010BD002015
:101B9000FCE70000900000201C0000202C0000202A
:101BA0002E00002010B50120074908600020091D03
:101BB000086001F03BFA002001F046F903200249D9
:101BC0000860002010BD0000405C004010B50120FE
:101BD00001F02CFA012001F037F901240A480460D1
:101BE00000200A490880084600880749086000204C
:101BF000091D08604FF4E050044908800846008839
:101C000001490860002010BD405C00402600002013
:101C100029B1064AD2690243044BDA6104E0034A5F
:101C2000D2698243014BDA61704700000010024024
:101C300029B1064A12690243044B1A6104E0034ABF
:101C400012698243014B1A61704700000010024084
:101C500029B1064A92690243044B9A6104E0034A9F
:101C600092698243014B9A61704700000010024064
:101C700029B1064AD2680243044BDA6004E0034A01
:101C8000D2688243014BDA607047000000100240C6
:101C90000F48006840F001000D49086008464068A0
:101CA0000C4908400A494860084600680A4908404B
:101CB000074908600846006820F48020086008464C
:101CC000406820F4FE0048604FF41F0088607047B1
:101CD000001002400000FFF8FFFFF6FE30B50021C3
:101CE0000022002400232D4D6D6805F00C0121B168
:101CF000042905D0082923D105E0294D056022E0FB
:101D0000274D05601FE0254D6D6805F47012234DC9
:101D10006D6805F48034022505EB92421CB9214D13
:101D2000554305600BE01D4D6D6805F400351DB190
:101D30001C4D5543056002E0194D5543056002E016
:101D4000174D056000BF00BF144D6D6805F0F00130
:101D50000909154D6B5C0568DD4045600F4D6D68E8
:101D600005F4E061090A104D6B5C4568DD40856053
:101D70000A4D6D6805F46051C90A0B4D6B5C4568EE
:101D8000DD40C560054D6D6805F44041890B074D88
:101D90006B5CC568B5FBF3F5056130BD0010024012
:101DA00000127A0000093D00000000201000002011
:101DB00010B501460022002300204A11012A02D159
:101DC000094C236806E0022A02D1074C236A01E08D
:101DD000054C636A01F01F02012494401C400CB1C1
:101DE000012000E0002010BD0010024002484068C1
:101DF00000F00C0070470000001002400146002077
:101E0000034A506820F0F00008435060704700001B
:101E1000001002401149096821F480310F4A116015
:101E20001146096821F480211160B0F5803F03D08C
:101E3000B0F5802F0ED106E00849096841F48031E1
:101E4000064A116007E00549096841F4A021034AE8
:101E5000116000E000BF00BF7047000000100240AA
:101E600001460020034A506820F4E06008435060B7
:101E7000704700000010024001460020034A5068ED
:101E800020F4605040EAC1005060704700100240EA
:101E900001490866704700000000424202460020E7
:101EA000044B586820F47C1042EA01031843014BAC
:101EB000586070470010024001460020034A5068F5
:101EC00020F00300084350607047000000100240FB
:101ED0000149086070470000D800424238B5002030
:101EE00000900024002500BF3120FFF761FF054668
:101EF0000098401C00900098B0F5A06F01D0002D14
:101F0000F2D03120FFF754FF08B1012400E0002493
:101F1000204638BD10B5FFF7BBFE4FF48030FFF709
:101F200079FFFFF7DBFF012826D11020FFF7D2FA57
:101F30000220FFF713FB0020FFF760FF0020FFF7F0
:101F40009BFF4FF48060FFF78BFF4FF4E0114FF4DD
:101F50008030FFF7A3FF0120FFF79AFF00BF392071
:101F6000FFF726FF0028FAD00220FFF7A5FF00BFE9
:101F7000FFF73CFF0828FBD110BD000070B50546F7
:101F8000072D01D02748057026480078082841D23F
:101F9000DFE800F0040A1016212E414200F046F856
:101FA0000620204908703BE000F040F804201D495D
:101FB000087035E002201B494870032008702FE0AC
:101FC00018484078401E174948700846407808B9BC
:101FD0000420087024E01448006884B244F010041F
:101FE0001148046005200F4908700A20487017E066
:101FF0000C484078401E0B4948700846407840B96C
:102000000948006884B224F01004074804600620E0
:10201000087005E000BF00BF06200249087000BF3D
:1020200000BF70BD29010020405C004010B507488A
:10203000006884B224F0040404480460FFF710FC34
:102040004FF43F400149086010BD0000405C004073
:102050007047000010B50248FFF740FE10BD0000B9
:102060000C020020002013490861C8601420486158
:1020700000208861C8610846006840F001000860DF
:10208000084640680C4908400A494860084600680C
:102090000A490840074908600846006820F4802083
:1020A00008600846406820F4FE0048600020886010
:1020B00070470000001002400000FFF8FFFFF6FE2E
:1020C000012080F3138800BF00BF00BF00BF00BF26
:1020D00000BFBFF34F8F00BF00BF00BF09480068BB
:1020E00000F4E06008490843001D0649086000BF8D
:1020F00000BF00BFBFF34F8F00BF00BF00BF00BFD6
:10210000FEE700000CED00E00000FA054FF6F87164
:102110000140014A11607047505C004030B50146F3
:102120000F4B1A78002014E003060E4C04EB935377
:10213000D3F8003C48F68F74234048F280042343D0
:10214000C4B223430406074D05EB9454C4F8003C85
:10215000401C9042E8D341F08003034C236030BD23
:102160008C000020005000404C5C004010B54A102C
:102170005300054A126892B202EBC002121D034CD2
:1021800044F8123010BD0000505C00400060004078
:1021900010B502460F48006880B200EBC200801DF7
:1021A0000D4C04EB40033E290BDD481101F01F04E8
:1021B0000CB9441EA0B24FF4004444EA80241C60D1
:1021C00007E0481001F001040CB1441CA0B28402E5
:1021D0001C6010BD505C00400060004030B50E4CEB
:1021E00004EB8003D3F8003C4BF68F7403EA04023F
:1021F00001F480530BB182F4805201F400530BB10F
:1022000082F4005242F4004343F08003024D05EB98
:102210008004C4F8003C30BD0050004010B50B4BAA
:1022200003EB8002D2F8002C4BF68F7302EA030115
:1022300081F4805181F4005141F4004242F0800267
:10224000024C04EB8003C3F8002C10BD005000408A
:1022500010B54A105200044B1B689BB203EBC0033D
:10226000024C44F8132010BD505C00400060004058
:10227000044A126892B202EBC002921C024B43F86D
:1022800012107047505C00400060004030B50E4CAA
:1022900004EB8003D3F8003C48F6BF7403EA040261
:1022A00001F010030BB182F0100201F020030BB11A
:1022B00082F0200242F4004343F08003024D05EB1C
:1022C0008004C4F8003C30BD0050004010B50B4BFA
:1022D00003EB8002D2F8002C48F6BF7302EA030138
:1022E00081F0100181F0200141F4004242F08002AF
:1022F000024C04EB8003C3F8002C10BD00500040DA
:1023000010B5074B03EB8002D2F8002C48F68F1370
:102310001A400A43024C04EB8003C3F8002C10BDA2
:102320000050004010B500F001F810BD0CB50020C1
:10233000019000903348006840F4803031490860D3
:1023400000BF3048006800F4003000900198401C45
:102350000190009818B90198B0F5A06FF1D1294803
:10236000006800F4003010B10120009001E000206E
:1023700000900098012843D12348006840F01000E5
:10238000214908600846006820F0030008600846FC
:10239000006840F0020008601A4840681949486027
:1023A0000846406848600846406840F480604860DD
:1023B0000846406820F47C1048600846406840F4B5
:1023C000E81048600846006840F08070086000BF70
:1023D0000C48006800F000700028F9D009484068F7
:1023E00020F00300074948600846406840F00200BA
:1023F000486000BF0348406800F00C000828F9D18D
:102400000CBD0000001002400020024000B5034651
:1024100002480360024800F0DFFE00BD40010020DA
:102420005001002010B50020FFF752FD0121C80522
:10243000FFF7EEFB10BD000038B501242948006805
:1024400080B2001D284931F8100080B201EB400035
:10245000009026480068007A092832D00098007859
:102460002249096808700098401C00900098007884
:102470001E49096848700098401C0090009800EBC5
:1024800044000090009931F8020B0091FDF72EFFF7
:10249000164909684880009800EB440000900099B4
:1024A00031F8020B0091FDF721FF1049096888807F
:1024B000009800EB44000090009800880B490968E0
:1024C000C880012009490968087208480068C08866
:1024D00010B9FFF727FA01E0FEF72CFEFFF73EFBED
:1024E00038BD0000505C0040006000401C0000202F
:1024F0002DE9F04754480068007800F07F08B8F1F3
:10250000000F0AD150480068407A00F0DF004E49C1
:10251000096848720020BDE8F087B8F1020F7CD14D
:1025200049480068408818B947480068007908B1F0
:102530000220F0E7DFF8149143480068477927F05C
:1025400080052C4640480068407900F0800038B192
:102550003F4901EB8400D0F8000C00F0300606E0A3
:102560003B4901EB8400D0F8000C00F4405699F888
:102570000000A84204D91EB133480068807A08B927
:102580000220C8E707F0800080B1314901EB8400E8
:10259000D0F8000C00F0300010284BD1E0B2FEF76C
:1025A00009F8E0B23021FFF771FE43E0284901EB62
:1025B0008400D0F8000C00F44050B0F5805F39D1B1
:1025C000E4B9244A92F82C10E0B2FFF7E1FD204A6A
:1025D00002EB8401D1F8001C4BF68F7201EA020075
:1025E00080F4805080F4005040F4004141F08001BC
:1025F000174B03EB8402C2F8001C1BE0E0B2FDF7AE
:10260000BFFF134A02EB8401D1F8001C4BF68F7216
:1026100001EA020080F4805000E011E080F40050F4
:1026200040F4004141F08001094B03EB8402C2F801
:10263000001C00BF084909684869804700206AE714
:1026400000BF022067E700001C0000208C00002073
:1026500000500040900000202800002010B50446E3
:102660002CB90120064909680882002010BD0549DF
:10267000096808688047024800680A30F6E70000E9
:102680001C0000202800002010B502460648006803
:10269000438A32B98888C01A034C246820820020FB
:1026A00010BD08681844FBE71C00002010B5044664
:1026B0002CB90120064909680882002010BD05498F
:1026C000096888688047024800680C30F6E7000017
:1026D0001C0000202800002010B504462CB9022060
:1026E000394909680882002010BD00203749088058
:1026F00035480068007800F07F0018BB324909684F
:10270000487A00F0200131B13049097841F00201E6
:102710002E4A117005E02D49097801F0FD012B4A80
:10272000117000F0400131B12849097841F00101F0
:10273000264A117005E02549097801F0FE01234A77
:1027400011703AE020480068007800F07F0001280E
:1027500001D11E48C8E71C480068007800F07F00DF
:10276000022828D1184A1268517901F00F0001F0AF
:1027700080027AB1164B03EB8002D2F8002C02F0F3
:102780003002102A16D1114A127842F001020F4B82
:102790001A700FE00E4B03EB8002D2F8002C02F40B
:1027A0004052B2F5805F05D1084A127842F001022A
:1027B000064B1A7001E0002096E70649096808698F
:1027C0008047024890E700001C0000201400002011
:1027D000005000402800002010B50E480068C07866
:1027E0000D494978884213DC0A480068807878B936
:1027F00008480068808858B906480068C0780549CC
:10280000096888720549096848688047002010BD3A
:102810000220FCE71C0000208C0000202800002083
:1028200010B507480068407A40F020000449096864
:10283000487204490968C8698047002010BD00003B
:102840001C000020280000202DE9F0412E480068DF
:10285000467926F080073C462B480068407900F016
:10286000800038B1294901EB8400D0F8000C00F059
:10287000300506E0254901EB8400D0F8000C00F497
:10288000405523480078A04208D91F480068408876
:1028900020B91DB11C480068807A10B90220BDE83B
:1028A000F08106F08000A0B1184A02EB8401D1F853
:1028B000001C48F6BF7201EA020080F0100040F4EC
:1028C000004141F08001114B03EB8402C2F8001C6F
:1028D00014E00E4A02EB8401D1F8001C4BF68F7213
:1028E00001EA020080F4805040F4004141F0800190
:1028F000064B03EB8402C2F8001C00BF05490968BF
:10290000886980470020CAE71C0000200050004072
:102910008C0000202800002010B5174B1B68D978C8
:10292000154B1B685879154B1B689A6990470446EC
:1029300011480068807AE8B13CB90F480068007916
:1029400018B90D480068807808B1022010BD8CB914
:102950000B490968C86880470748006840790649FC
:102960000968C87204480068C07803490968087398
:102970000020EBE70220E9E71C00002020000020F7
:102980002800002010B50848006884B244F008040C
:1029900005480460006884B244F0040402480460FE
:1029A000FEF742FD10BD0000405C00407047000093
:1029B00010B51348006840F001001149086008464E
:1029C0004068104908400E494860084600680E49B2
:1029D00008400B4908600846006820F48020086021
:1029E0000846406820F4FE0048604FF41F008860ED
:1029F000FFF798FC4FF000600449086010BD00002C
:102A0000001002400000FFF8FFFFF6FE08ED00E0B6
:102A10000EB5114800F08AF80420ADF804004720F4
:102A2000ADF800000020ADF80600ADF802008DF80A
:102A300008006946084800F087F90121064800F0BF
:102A400063F801221146044800F075F9012102489B
:102A500000F060F80EBD00000008004010B5012134
:102A60000F4800F057F9C8B101210D4800F04FF8A8
:102A70000C484068401D0B4948600B48007868B915
:102A8000084640680949884208D306484068401A09
:102A90000449486008460068401C086010BD0000FA
:102AA00000080040480100204401002040420F007F
:102AB00010B50121054800F02DF928B10121034886
:102AC00000F025F800F030FC10BD0000000C0040C4
:102AD00010B50121054800F01DF928B10121034876
:102AE00000F015F800F04CFC10BD00000010004094
:102AF00021B1028842F08002028004E002884FF691
:102B00007F731A4002807047CA4302827047CA43EB
:102B10000282704721B1028842F00102028004E083
:102B200002884FF6FE731A400280704710B50446C3
:102B30006848844208D10121C014FFF799F80021A8
:102B4000E014FFF795F8C4E0B4F1804F08D10121FB
:102B50000846FFF76DF800210120FFF769F8B8E09B
:102B60005D48844208D101210220FFF761F800216D
:102B70000220FFF75DF8ACE05848844208D10121FB
:102B80000420FFF755F800210420FFF751F8A0E0DA
:102B90005348844208D101210820FFF749F8002159
:102BA0000820FFF745F894E04E48844208D10121FF
:102BB0001020FFF73DF800211020FFF739F888E0DA
:102BC0004948844208D101212020FFF731F8002133
:102BD0002020FFF72DF87CE04448844208D10121F1
:102BE0004014FFF745F800216014FFF741F870E04A
:102BF0003F48844209D10121C804FFF739F8002178
:102C00004FF40020FFF734F863E03A48844209D1DA
:102C100001210805FFF72CF800214FF48010FFF781
:102C200027F856E03448844209D101214805FFF7CE
:102C30001FF800214FF40010FFF71AF849E02F4861
:102C4000844208D101214020FEF7F2FF00214020FC
:102C5000FEF7EEFF3DE02A48844208D101218020A2
:102C6000FEF7E6FF00218020FEF7E2FF31E0254875
:102C7000844208D101218015FEF7DAFF0021A0155A
:102C8000FEF7D6FF25E02048844209D1012108043F
:102C9000FEF7EEFF00214FF48030FEF7E9FF18E069
:102CA0001A48844209D101214804FEF7E1FF0021BE
:102CB0004FF40030FEF7DCFF0BE01548844208D1EA
:102CC00001218804FEF7D4FF00214FF48020FEF795
:102CD000CFFF10BD002C0140000400400008004060
:102CE000000C00400010004000140040003401407F
:102CF000004C0140005001400054014000180040C9
:102D0000001C004000200040004001400044014001
:102D10000048014030B50246002000230024158AF7
:102D200005EA0103958905EA010413B10CB10120FC
:102D300000E0002030BD1AB183890B43838102E09B
:102D400083898B4383817047002202881D4B984200
:102D50000ED01D4B98420BD0B0F1804F08D01B4BCA
:102D6000984205D01A4B984202D01A4B984204D18F
:102D70004FF68F731A404B881A43174B984207D06F
:102D8000164B984204D04FF6FF431A40CB881A43A3
:102D900002808B8883850B8803850A4B98420BD071
:102DA000094B984208D00E4B984205D00D4B9842E3
:102DB00002D00D4B984201D10B7A03860123838206
:102DC00070470000002C0140003401400004004026
:102DD00000080040000C00400010004000140040BB
:102DE0000040014000440140004801400EB5124837
:102DF000FFF79CFE40F2E730ADF804004720ADF845
:102E000000000020ADF80600ADF8020069460A484F
:102E1000FFF79AFF01210848FFF776FE00210648D8
:102E2000FFF766FE012211460348FFF784FF0021E9
:102E30000148FFF76FFE0EBD000C004010B54FF4C7
:102E40008020FEF7EBFA10BD10B504462CB14FF40C
:102E500000410548FEF763FC04E04FF400410248DE
:102E6000FEF75FFC10BD0000000C01407047000041
:102E700010B5084808490860022009680872074828
:102E80000749086007480849086005490968086853
:102E9000804710BD700100201C0000209000002021
:102EA00020000020C00000202800002008B54FF4BA
:102EB000A060FEF723FD14208DF8000001208DF89E
:102EC000010000208DF8020001208DF80300684603
:102ED000FEF7DCFC08BD000010B537480068374934
:102EE00008800846008800F4806035490988084059
:102EF00030B14FF6FF3030490860324948688047AA
:102F00002E48008800F400502D490988084018B167
:102F10004DF6FF70284908602848008800F480506A
:102F200027490988084030B14EF6FF7022490860F1
:102F30000020FFF723F82148008800F400602049B2
:102F40000988084060B12048007810B1FFF71AFDE9
:102F500002E00220FFF712F84FF2FF7016490860F6
:102F60001648008800F4007015490988084040B1EF
:102F70004FF6FF501049086014480078401C134970
:102F800008700E48008800F480700D4909880840D8
:102F900030B14FF6FF60084908600720FEF7EEFFEA
:102FA0000648008800F4004005490988084008B137
:102FB000FDF7A2F910BD0000445C00404C00002069
:102FC0002600002090000020280100204E00002054
:102FD00010B5FFF781FF10BD0020064908604FF4CF
:102FE0003F4005490880084600880249091F0860DB
:102FF00000207047445C0040260000202DE9F0418D
:1030000004460E46154604F07F00FEF79DFB07467A
:10301000AAB23946304600F01DF8A9B204F07F008C
:10302000FFF726F90020BDE8F081000010B5044646
:10303000012C04D101030548FEF773FB04E04FF4B3
:1030400080510248FEF76BFB10BD000000080140F4
:1030500000BFFEE7F0B5144604F1010C4FEA6C071F
:10306000DFF824C00CEB41033D460AE00678401C23
:1030700090F800C046EA0C2223F8022B9B1C401C4F
:103080006D1E002DF2D1F0BD0060004002E008C8C6
:10309000121F08C1002AFAD170477047002001E0D2
:1030A00001C1121F002AFBD17047000010B500209B
:1030B000074908700749087040210748FDF76DF877
:1030C00040210648FDF769F800200549087010BD49
:1030D0002B0100202C0100208C010020CC010020BD
:1030E0002D0100202DE9F04106460C46E70AC4F305
:1030F0000A0000B17F1C3520FEF79CF9FEF73AFA72
:10310000002507E03046FEF79BF90649087006F5F2
:1031100000666D1CBD42F5DBFEF7D2F90020BDE86C
:10312000F08100002E01002070B504460D461646C1
:10313000324621462846FDF717F8002070BD0000F2
:103140002DE9F04105460E46174600243520FEF7CE
:1031500071F9FEF70FFA00BF0AE0301900F04CF8E1
:10316000804660194146FEF7C3F905490870241DE1
:10317000BC42F2D3FEF7A4F90020BDE8F0810000C4
:103180002E0100201CB503460024684600F024F8F8
:1031900018680099884207D818680099884205D1B4
:1031A00058680199884201D300201CBD0098196815
:1031B000441AB4F57A6F01D9054802E0054904FBC9
:1031C00001F00446019820445968441A2046ECE76F
:1031D00000286BEE40420F000121054A117005499D
:1031E0000968016003494968416000211170704716
:1031F00044010020480100200146002008784A7858
:1032000040EA02208A7840EA0240CA7840EA026036
:10321000704710B5FDF712F8012803D1FDF726F825
:10322000FEF7C8F9FFF7C4FBFEF714FF012188027F
:10323000FDF7B0FE0121C802FDF7ACFE0121080335
:10324000FDF7A8FE01214803FDF7A4FE0121880433
:10325000FDF7A0FE0121C804FDF79CFE0121080531
:10326000FDF798FE01214804FDF794FE00F026F8D2
:1032700000F034F8002010BD10B5FEF74BFEFEF74D
:10328000EDFBFEF77FFAFFF7C3FBFFF7AFFDFFF79C
:103290000DFEFFF7C7F8FFF7EBFD10BD3CB5044688
:1032A0004FF47A7004FB00F56846FFF795FF00BF06
:1032B0006846FFF767FFA842FAD33CBD10B5FFF799
:1032C000F5FEFFF7D9FF00210348FDF704FCFDF7E9
:1032D000B9F900F013F810BDA00E00200020054938
:1032E000087006E000F056F80248007808B900F0CF
:1032F00003F8F7E7300100200020704710B50020E8
:1033000005490860054908600549086080210548AD
:10331000FCF743FF10BD00004001002058010020D1
:103320005C0100202006002070B5002400251BE071
:10333000114800EBC4004068A0B10F4850F83400B9
:1033400080B10D4850F83400401E0B4941F834005C
:10335000084650F8340018B901EBC40148688047AA
:10336000681CC5B2601CC4B2102CE1DB1DB9002181
:103370000248FFF7CFFB70BD20060020000C004084
:1033800010B50348006810B101480068804710BDBF
:103390005C01002010B547480078B8B901204549C4
:1033A0000870002044490880444908804FF40071A7
:1033B0004348FCF7F2FE4FF400714248FCF7EDFE83
:1033C0004048414908603D4840490860404800780D
:1033D00000286DD000203E4908703A480478132C2C
:1033E00024D006DC102C09D0112C0FD0122C2FD198
:1033F00014E0142C1FD0702C2AD121E02E4B304A1F
:103400002E4801882F48FDF773F921E02A4B2C4AFA
:103410002A4801882B48FDF7FBF819E0264B284A7B
:10342000264801882748FDF7D9F911E022492448A8
:10343000FDF716F90CE020492148FDF711F907E0E6
:103440001D4B1F4A1D4801881E48FDF7D5F900BFD6
:1034500000BF4FF47A72184801881948FDF7A0F9A7
:103460001C48007888B1122C0FD10020194908702F
:10347000C820FFF713FFFEF795FB4FF4FA70FFF734
:103480000DFFFCF7F3FEFEF71BFE132C01D0142CEE
:103490000ED1132C01D1012000E000200E4908704C
:1034A000132C02D14FF0FF3000E00A200B490860D6
:1034B000002010BD3C010020380100203A0100200E
:1034C0002002002020040020680100206401002068
:1034D000600100202D010020300100203401002077
:1034E0001201000200000040830450570002010254
:1034F000030109022900010100C032090400000291
:1035000003000000092110010001222100070582AB
:103510000340000107050103400001058C0901A1DA
:1035200001090315002600FF750895408102090472
:1035300015002600FF750895409102C00403090498
:103540000E034C004F004F004B00310033000C03C2
:10355000530054004D003300320033CC55AA00FF15
:1035600011EE6C6F6F6B203133626F6F742E3030E1
:1035700031000000943500080000002070010000B8
:10358000E4010008303600087001002078190000BE
:103590009C300008412D010203040400091C0607A9
:1035A000080902040608141A035512531242122085
:1035B00012481249021144138B181408E5132A0803
:1035C00008E9040A15D118290441230301136D0FDA
:1035D00014086D0E1B0869081A6B04131D0D1B08D7
:1035E00049101A31041AB10C1A9D041A090C415AD7
:1035F00040701A2D280916581A451C13E034330858
:10360000121AF2083229131B353308211A04083222
:10361000091A3C082A04501908320E1A4E08320CB6
:10362000223073201A199B29323907023B0A000005
:0400000508000131BD
:00000001FF
