:020000040800F2
:10400000903B002041800008658000086780000820
:104010006B8000086F8000087380000800000000BB
:104020000000000000000000000000007780000891
:1040300079800008000000007B800008CD82000825
:104040005B8000085B8000085B800008FD9300082F
:104050005B8000085B80000895800008B380000842
:10406000D1800008EF8000080D81000887800008DB
:104070005B8000085B8000085B8000085B800008B4
:104080005B8000085B8000085B8000087D80000882
:104090007F8000085B8000085B8000082B8100089F
:1040A0005B8000085B8000085B8000085B80000884
:1040B0005B8000085B800008718200085B8000085C
:1040C0005B8000085B8000085B8000085B80000864
:1040D0005B8000085B8000085B8000085B80000854
:1040E000B98100085B800008898000085B800008B7
:1040F0005B8000085B8000085B8000085B80000834
:104100005B8000085B800008918200085B800008EB
:104110005B8000085B800008AB8200085B800008C1
:104120005B8000085B8000085B8000085B80000803
:10413000DFF80CD006F0F4F8004800475983000877
:10414000903B002030BF000031490143314A1160EB
:10415000704770B5002100230F22C47804B32D4CA2
:10416000246804F4E064C4F5E064210AC1F10403A6
:10417000CA40447804FA03F18478144021430901C9
:10418000254C0678A155047804F01F050124AC40A5
:1041900005786D11AD0005F1E025C5F8004109E095
:1041A000047804F01F050124AC401C4D06787611FC
:1041B00045F8264070BD1A4A0A400243154B1B1FA2
:1041C0001A60704739B1134A121D12680243114B2D
:1041D0001B1D1A6006E00F4A121D126882430D4B28
:1041E0001B1D1A607047042808D14FF0E0210969AF
:1041F00041F004014FF0E022116107E04FF0E021AF
:10420000096921F004014FF0E022116170470000BC
:104210000000FA050CED00E000E400E080E100E0C1
:1042200080FFFF1F10B5012000F098FF002000F074
:1042300095FF10BD2A49086070472949091F086089
:104240007047274984310860704701460020254A9D
:1042500010884FF67F4210400843224A1080704772
:10426000014600201F4A10884FF680721040084314
:104270001C4A1080704708B500220092194A2C3A57
:104280000092009A02440092009A116008BD08B59D
:1042900001460020009013482C38009000980844F4
:1042A00000900098008808BD0D489C300068C0B29E
:1042B00070470C480830008840F001000949083177
:1042C000088070470648A0300068C0B270470548B3
:1042D0000830008840F00200024908310880704729
:1042E00004860D422C6C00400A480068000C7047A0
:1042F00008480068C0F30B00704729B1054A5268AE
:104300000243044B5A6004E0024A52688243014B64
:104310005A607047002004E0002044490860091DED
:104320000860091D0860091D086041483F491431B3
:104330000860704700213D498279002A3AD00A4638
:10434000126803689A430B461A600A1D12680368D4
:104350009A430B1D1A60027911440A6803681A43D4
:104360000A60324A0832126803689A432F4B0833B6
:104370001A601A1D126803689A432C4B0C331A609A
:104380004279102A0ED11A1F126803681A43274B6C
:1043900008331A601A1D126803681A43234B0C3342
:1043A0001A600DE02149427911440A6803681A43F2
:1043B0000A6005E0027911440A6803689A430A60BA
:1043C00070470021016001710C2141710021817150
:1043D00070471649103109680143144A10321160C0
:1043E000704701460020114A143212680A400AB18F
:1043F000012000E0002070470C491431086070472C
:10440000014600200022094B1B6803EA0102074B0A
:1044100014331B680B4013B10AB1012000E00020E7
:1044200070470249143108607047000000040140E1
:10443000FFFF0F0001460020FE4A106800F0380020
:10444000084310607047FB49096821F00801F94AE8
:10445000116011460968014311607047F549096808
:1044600021F01001F34A11601146096801431160FF
:104470007047F148EF494860F04848607047EE489F
:10448000EC494860ED4848607047EA48006940F0F0
:104490008000E84908617047E648006940F0800004
:1044A000E449086170470420E249C96801F001014C
:1044B00009B101200EE0DF49C96801F0040109B12A
:1044C000022007E0DB49C96801F0100109B10320AF
:1044D00000E00420704700B502460423FFF7E3FF25
:1044E000034603E0FFF7DFFF0346521E012B01D115
:1044F000002AF7D102B90523184600BD30B504469D
:1045000004254FF43020FFF7E6FF0546042D17D1B0
:10451000C848006940F00200C64908610846446185
:10452000006940F0400008614FF43020FFF7D3FFEE
:104530000546C048006941F6FD710840BD49086163
:10454000284630BD10B504244FF43020FFF7C3FFD8
:104550000446042C16D1B748006940F00400B54960
:1045600008610846006940F0400008614FF43020BF
:10457000FFF7B1FF0446AF48006941F6FB71084000
:10458000AC490861204610BD00B502460423FFF780
:104590008AFF034603E0FFF786FF0346521E012B06
:1045A00001D1002AF7D102B90523184600BD10B584
:1045B00004244FF43020FFF7E7FF0446042C16D103
:1045C0009C48006940F004009A4908610846006967
:1045D00040F0400008614FF43020FFF7D5FF04465B
:1045E0009448006941F6FB710840924908612046F1
:1045F00010BD00208F49C96901F0020109B10120F5
:1046000000E00020704730B5A5250424FFF7F1FF36
:1046100000B100254FF43020FFF75DFF0446042C65
:104620003AD1854883498860844888600846006993
:1046300040F0200008610846006940F04000086131
:104640004FF43020FFF747FF0446042C1BD1794874
:10465000006941F6DF710840764908610846006943
:1046600040F01000086176480580E002FFF733FF54
:104670000446052C10D06F48006941F6EF710840E0
:104680006C49086108E0052C06D06A48006941F6CB
:10469000EF71084067490861204630BD78B506468D
:1046A0000C46042500200090E802FFF714FF0546A1
:1046B000042D24D15F48006940F001005D49086184
:1046C0003480E802FFF707FF0546042D10D1B01C27
:1046D0000090200C00990880E802FFF7FCFE0546D8
:1046E0005448006941F6FE7108405249086106E0ED
:1046F0005048006941F6FE7108404E49086128465D
:1047000078BD70B504460D460426F002FFF7E3FEBF
:104710000646042E11D14748006940F00100454982
:1047200008612580F002FFF7D6FE06464148006981
:1047300041F6FE7108403F490861304670BD70B5D2
:1047400005460E460424E002FFF7C5FE0446042C8D
:1047500017D1394837498860384888600846006969
:1047600040F0100008612E80E002FFF7B4FE04461E
:10477000052C06D02F48006941F6EF7108402D49FD
:104780000861204670BD2DE9F04304464FF6FF76E0
:104790003746B046B1460425E443E6B2C4F30727E2
:1047A000C4F307484FEA1469E802FFF794FE054690
:1047B000042D49D120481F49886020488860084658
:1047C000006940F010000861FF2E06D01C48083038
:1047D0000680E802FFF77FFE0546042D08D1FF2F73
:1047E00006D017480A300780E802FFF774FE054636
:1047F000042D0AD1B8F1FF0F07D011480C30A0F8F2
:104800000080E802FFF767FE0546042D0AD1B9F1E2
:10481000FF0F07D00A480E30A0F80090E802FFF71B
:104820005AFE0546052D0FD00248006941F6EF718A
:10483000084007E00020024023016745AB89EFCD27
:1048400000F8FF1F664908612846BDE8F08330B5CF
:10485000054604244FF43020FFF73DFE0446042CA7
:1048600041D160485E4988605F48886008460069B9
:1048700040F0200008610846006940F040000861EF
:104880004FF43020FFF727FE0446042C22D1544871
:10489000006941F6DF710840514908610846006926
:1048A00040F0100008611DB100205049088002E06E
:1048B000A5204E4908804FF43020FFF70CFE044637
:1048C000052C10D04648006941F6EF710840444974
:1048D000086108E0052C06D04148006941F6DF7107
:1048E00008403F490861204630BDF0B505460E46F8
:1048F000174604243B483A4988603B488860E002F8
:10490000FFF7E9FD0446042C19D13548006940F051
:1049100010003349086147F0F80030432843334919
:10492000891C0880E002FFF7D6FD0446052C06D05E
:104930002B48006941F6EF7108402949086120467B
:10494000F0BD2748C069800870472548006A704755
:1049500000202349096801F0200109B1012000E08D
:104960000020704729B11E4A126902431C4B1A618C
:1049700004E01B4A12698243194B1A6170470146D1
:104980000020012908D1164AD26902F001020AB1B9
:10499000012008E0002006E0114AD2680A400AB16E
:1049A000012000E0002070470D49C86070470420D6
:1049B0000B49C96801F0010109B101200EE0084965
:1049C000C96801F0040109B1022007E00449C9687F
:1049D00001F0100109B1032000E00420704700003D
:1049E0000020024023016745AB89EFCD00F8FF1F8F
:1049F00010B50446CC48844208D10121042000F0BF
:104A000093FB0021042000F08FFB46E0C74884425E
:104A100008D10121082000F087FB0021082000F0C8
:104A200083FB3AE0C248844208D10121102000F003
:104A30007BFB0021102000F077FB2EE0BD48844274
:104A400008D10121202000F06FFB0021202000F080
:104A50006BFB22E0B848844208D10121402000F0DD
:104A600063FB0021402000F05FFB16E0B348844266
:104A700008D10121802000F057FB0021802000F0A8
:104A800053FB0AE0AE48844207D10121801500F0B3
:104A90004BFB0021A01500F047FB10BD10B5012114
:104AA000084600F041FB0021012000F03DFB10BD55
:104AB0002DE9F041024600250026002000230024B5
:104AC000002791F803C00CF00F0591F803C00CF01B
:104AD000100CBCF1000F03D091F802C04CEA0505A0
:104AE00091F800C0BCF1000F31D0146800202BE019
:104AF0004FF0010C0CFA00F3B1F800C00CEA030609
:104B00009E4220D183004FF00F0C0CFA03F7BC43F8
:104B100005FA03FC4CEA040491F803C0BCF1280F29
:104B200006D14FF0010C0CFA00FCC2F814C00AE0E8
:104B300091F803C0BCF1480F05D14FF0010C0CFAFD
:104B400000FCC2F810C0401C0828D1D31460B1F892
:104B500000C0BCF1FF0F34DD546800202EE000F1EE
:104B6000080C4FF0010808FA0CF3B1F800C00CEA89
:104B700003069E4221D183004FF00F0C0CFA03F77D
:104B8000BC4305FA03FC4CEA040491F803C0BCF1F1
:104B9000280F05D100F1080C08FA0CF8C2F81480AF
:104BA00091F803C0BCF1480F07D100F1080C4FF099
:104BB000010808FA0CF8C2F81080401C0828CED36F
:104BC0005460BDE8F0814FF6FF71018002218170D1
:104BD0000421C17070470246002093680B400BB15E
:104BE000012000E0002070470146886880B27047CD
:104BF00002460020D3680B400BB1012000E00020EA
:104C000070470146C86880B27047016170474161D2
:104C100070470AB1016100E041617047C1607047AF
:104C20004FF480320A4382618161826182698269C4
:104C3000704702460020434B18684FF680731840B7
:104C400040EA021008433F4B186070473E49C86174
:104C50007047F0B50A46002300240021002500F02B
:104C60000046B6F1004F02D1364EF16901E0354EF3
:104C70007168C0F3034583B200F44016B6F5401FD7
:104C800008D121F070612F4E766826F070662D4FA6
:104C90007E6012E000F48016B6F5801F06D1032670
:104CA00006FA05F4A14341F0706106E0460D3601B5
:104CB00003FA06F6B14341F0706122B1460D3601A8
:104CC00003FA06F6314300F00046B6F1004F02D178
:104CD0001C4EF16101E01B4E7160F0BD30B5002249
:104CE0008B071C0F0F2303FA04F2164B08338C10AA
:104CF00053F824309343134C08348D1044F8253076
:104D000023468C1053F824308C07240F00FA04F447
:104D100023430C4C08348D1044F8253030BD0A492B
:104D2000DC3108607047000000080140000C0140C1
:104D3000001001400014014000180140001C014017
:104D400000200140000001400000204210B5012178
:104D5000080700F0F6F900214FF0805000F0F1F95B
:104D600010BD2A490862704728490861704701460A
:104D70000020274A106820F0E000084310607047C8
:104D80002249A0310860704710B502460020204B30
:104D9000186820F00300104318601E4B1B6843F096
:104DA00004031C4C2360012901D130BF00E020BF67
:104DB000184B1B6823F00403164C236010BD1448E5
:104DC000006840F00400124908600846006840F09E
:104DD000020008600F48006840F004000D490860B8
:104DE00000BF00BF30BF704701460020084A52682C
:104DF0000A400AB1012000E0002070470449096818
:104E000041EA8001024A11607047000000000E4232
:104E10000070004010ED00E0DF48006840F0010045
:104E2000DD49086008464068DC490840DA494860C6
:104E300008460068DA490840D74908600846006813
:104E400020F4802008600846406820F4FE00486096
:104E50004FF41F0088607047CF49096821F4803102
:104E6000CD4A11601146096821F480211160B0F526
:104E7000803F03D0B0F5802F0ED106E0C649096807
:104E800041F48031C44A116007E0C349096841F424
:104E9000A021C14A116000E000BF00BF704710B5FB
:104EA00001460022002300204A11012A02D1BA4CF7
:104EB000236806E0022A02D1B74C236A01E0B64C0F
:104EC000636A01F01F02012494401C400CB10120D0
:104ED00000E0002010BD38B500200090002400251F
:104EE00000BF3120FFF7DBFF05460098401C009013
:104EF0000098B0F5A06F01D0002DF2D03120FFF75F
:104F0000CEFF08B1012400E00024204638BD014650
:104F10000020A14A106820F0F80040EAC1001060AB
:104F20007047A04908607047024600209A4B5868B5
:104F300020F47C1042EA01031843974B58607047F5
:104F400098490866704701460020934A506820F04F
:104F500003000843506070478F48406800F00C0021
:104F60007047014600208C4A506820F0F00008434A
:104F70005060704701460020874A506820F4E06086
:104F800008435060704701460020834A506820F46F
:104F9000605040EAC1005060704729B17E4A527AA1
:104FA00002437D4B5A7204E07B4A527A82437A4B29
:104FB0005A7270477B49D83108607047014600201B
:104FC000754A506820F44040084350607047002103
:104FD000714A20321170704A82F82010012802D0E4
:104FE00004280AD104E001216B4A2032117005E047
:104FF0000521694A2032117000E000BF00BF7047F0
:105000006949086070476449096A0143624A11624C
:105010007047654944390860704730B50021002267
:10502000002400235C4D6D6805F00C0121B10429BA
:1050300005D0082923D105E05C4D056022E05B4DD9
:1050400005601FE0544D6D6805F47012524D6D6897
:1050500005F48034022505EB92421CB9544D5543AA
:1050600005600BE04C4D6D6805F400351DB1504DE9
:105070005543056002E04D4D5543056002E04B4D40
:10508000056000BF00BF444D6D6805F0F0010909DF
:10509000484D6B5C0568DD4045603F4D6D6805F42B
:1050A000E061090A434D6B5C4568DD4085603A4D1F
:1050B0006D6805F46051C90A3E4D6B5C4568DD4082
:1050C000C560354D6D6805F44041890B3A4D6B5C08
:1050D000C568B5FBF3F5056130BD29B12E4A5269AB
:1050E00002432D4B5A6104E02B4A526982432A4BFA
:1050F0005A61704729B1284A92690243264B9A6146
:1051000004E0254A92698243234B9A61704729B192
:10511000214AD2690243204BDA6104E01E4AD26977
:1051200082431D4BDA61704729B11B4AD2680243A2
:10513000194BDA6004E0184AD2688243164BDA60F1
:10514000704729B1144A12690243134B1A6104E0F3
:10515000114A12698243104B1A6170471249403953
:10516000086070470F49C86470470B49C8717047A1
:105170000948406A40F0807007494862704701461C
:105180000020054A92680A400AB1012000E0002090
:105190007047014988727047001002400000FFF814
:1051A000FFFFF6FE000042428004424200127A00F5
:1051B00000093D00002000201020002029B1564A9F
:1051C00012880243544B1A8004E0534A12888243E7
:1051D000514B1A8070475048001D008840F0100065
:1051E0004D49091D088070474B48001D00884FF647
:1051F000EF7108404849091D0880704700210022CE
:105200000023454818300188001D0388001F0288CC
:10521000914204D0001D008840EA0240704743EAF2
:105220000140FBE700B50246FFF7D5FF100C3A49F5
:1052300018310880091D0A80FFF7D6FF00BD00B5B0
:105240000246FFF7C8FFC2F3034033490831088024
:10525000091D0A80FFF7C8FF00BD00B50246FFF731
:10526000BAFF100C2C4920310880091D0A80FFF775
:10527000BBFF00BD00202849103109880907080B31
:105280002549143109880843704700BF2248001D92
:10529000008800F020000028F8D070471E48001D4C
:1052A00000884FF6F77108401B49091D088000BFB0
:1052B0001948001D008800F008000028F8D0704749
:1052C00001460020144A121D12880A400AB101202A
:1052D00000E0002070471049091D098881430E4AEB
:1052E000121D11807047014600200B4A121D1288C2
:1052F0000A40D0B2084A12880A4012B108B101200F
:1053000000E0002070470449091D09888143024AD2
:10531000121D1180704700000028004010B504469F
:10532000FE48844208D10121C014FFF7FDFE002190
:10533000E014FFF7F9FEC4E0B4F1804F08D1012179
:105340000846FFF7FEFE00210120FFF7FAFEB8E055
:10535000F348844208D101210220FFF7F2FE002128
:105360000220FFF7EEFEACE0EE48844208D10121B6
:105370000420FFF7E6FE00210420FFF7E2FEA0E094
:10538000E948844208D101210820FFF7DAFE002114
:105390000820FFF7D6FE94E0E448844208D10121BA
:1053A0001020FFF7CEFE00211020FFF7CAFE88E094
:1053B000DF48844208D101212020FFF7C2FE0021EE
:1053C0002020FFF7BEFE7CE0DA48844208D10121AC
:1053D0004014FFF7A9FE00216014FFF7A5FE70E05E
:1053E000D548844209D10121C804FFF79DFE002160
:1053F0004FF40020FFF798FE63E0D048844209D1C3
:1054000001210805FFF790FE00214FF48010FFF7FF
:105410008BFE56E0CA48844209D101214805FFF7B6
:1054200083FE00214FF40010FFF77EFE49E0C548DF
:10543000844208D101214020FFF783FE0021402053
:10544000FFF77FFE3DE0C048844208D10121802063
:10545000FFF777FE00218020FFF773FE31E0BB48A5
:10546000844208D101218015FFF76BFE0021A015B1
:10547000FFF767FE25E0B648844209D10121080400
:10548000FFF752FE00214FF48030FFF74DFE18E089
:10549000B048844209D101214804FFF745FE0021AC
:1054A0004FF40030FFF740FE0BE0AB48844208D1D8
:1054B00001218804FFF738FE00214FF48020FFF718
:1054C00033FE10BD00220288944B98420ED0994BB7
:1054D00098420BD0B0F1804F08D0914B984205D044
:1054E000904B984202D0904B984204D14FF68F7364
:1054F0001A404B881A438D4B984207D08C4B9842E8
:1055000004D04FF6FF431A40CB881A4302808B88A1
:1055100083850B880385814B98420BD0854B98423D
:1055200008D08B4B984205D08A4B984202D08A4BC8
:10553000984201D10B7A038601238382704770B5AC
:10554000002400220023058C4FF6FE7635400584AA
:10555000028C8388048B4FF68F752C40B51E2C402F
:105560000D882C43751E2A400D892A434D882A43F5
:105570006A4DA8420BD06F4DA84208D0744DA84286
:1055800005D0744DA84202D0734DA84213D14FF6F6
:10559000F7752A404D892A434FF6FB752A408D88BE
:1055A0002A434FF6FF652B404FF6FF552B408D8960
:1055B0002B43CD892B4383800483CD888586028449
:1055C00070BD70B5002400220023058C4FF6EF76E5
:1055D00035400584028C8388048B48F6FF752C4087
:1055E0004FF6FF452C400D884FF6FF7606EA05255D
:1055F0002C434FF6DF752A400D8906EA05152A432C
:105600004D8806EA05152A43444DA84202D0494D6B
:10561000A8421DD14FF67F752A404D894FF6FF767F
:1056200006EA05152A434FF6BF752A408D8806EA1B
:1056300005152A434FF6FF352B404FF2FF752B40DF
:105640008D8906EA85052B43CD8906EA85052B431E
:1056500083800483CD880587028470BD70B50024E3
:1056600000220023058C4FF6FF6635400584028C2E
:105670008388848B4FF68F752C404FF6FC752C4039
:105680000D882C434FF6FF552A400D894FF6FF76C3
:1056900006EA05252A434D8806EA05252A431F4DBB
:1056A000A84202D0234DA8421DD14FF2FF752A40D7
:1056B0004D894FF6FF7606EA05252A434FF6FF355A
:1056C0002A408D8806EA05252A434EF6FF752B40B1
:1056D0004DF6FF752B408D8906EA05152B43CD89C4
:1056E00006EA05152B4383808483CD888587028451
:1056F00070BD70B5002200230024058C4EF6FF76A5
:1057000035400584038C8488828B48F6FF752A40D7
:105710004FF6FF452A400D8820E00000002C014094
:105720000004004000080040000C00400010004051
:105730000014004000340140004C01400050014082
:105740000054014000180040001C004000200040B0
:105750000040014000440140004801404FF6FF7600
:1057600006EA05252A434DF6FF752B400D8906EA0A
:1057700005352B434D8806EA05352B43FA4DA842E3
:1057800002D0FA4DA84208D14BF6FF752C408D8906
:105790004FF6FF7606EA85152C4384808283CD88F8
:1057A000A0F84050038470BD828B4FF2FF331A4043
:1057B0008283828B4FF6FF7303EA01231A438283AD
:1057C0007047F0B50C461546002200210026078CD4
:1057D0004EF6FF7C07EA0C070784828B018C4FF69C
:1057E000FF7707EA043640F6FF473A404FF6FF7767
:1057F00007EA05273A434FF6FF7707EA03373A43AC
:10580000D94FB8420ED0D94FB8420BD0B0F1804F2B
:1058100008D0D74FB84205D0D64FB84202D0D64FA5
:10582000B84206D14DF6FF77394046F480573943E8
:1058300005E047F6FF57394044F4805739438283E7
:105840000184F0BD828B4FF6F3731A408283828B02
:105850000A4382837047F0B50C46154600220021AA
:105860000026078C4FF6FF6C07EA0C070784828B33
:10587000018C4FF6FF7707EA04264FF60C773A4083
:105880004FF6FF7707EA03172F433A43B64FB84264
:105890000ED0B64FB8420BD0B0F1804F08D0B44F05
:1058A000B84205D0B34FB84202D0B34FB84206D188
:1058B0004FF6FF57394046F48077394305E04FF201
:1058C000FF57394044F48077394382830184F0BD27
:1058D000028B4FF2FF331A400283028B4FF6FF73A5
:1058E00003EA01231A4302837047F0B50C461546BC
:1058F000002200210026078C4FF6EF7C07EA0C07F8
:105900000784028B018C4FF6FF7707EA041640F6F6
:10591000FF473A404FF6FF7707EA03373A434FF61F
:10592000FF7707EA05273A438F4FB8420ED08F4FD3
:10593000B8420BD0B0F1804F08D08D4FB84205D09F
:105940008C4FB84202D08C4FB84206D14FF6DF7769
:10595000394046F01007394305E04FF65F7739408C
:1059600044F01007394302830184F0BD028B4FF6E7
:10597000F3731A400283028B0A4302837047F0B527
:105980000C46154600220021068C4FF6FE773E405D
:105990000684028B018C4FF60C7632407E1C06EAA0
:1059A00003162E433243704EB0420ED06F4EB042BB
:1059B0000BD0B0F1804F08D06D4EB04205D06D4E87
:1059C000B04202D06C4EB04206D14FF6FD76314067
:1059D00044F00106314305E04FF6F576314044F0DE
:1059E0000106314302830184F0BD70B505460C46C3
:1059F0005D4885420ED05D4885420BD0B5F1804FA1
:105A000008D05B48854205D05A48854202D05A48A2
:105A1000854200D100E000BF208850B92389A288C8
:105A200061882846FFF7ABFFE1882846FFF79EFF15
:105A300025E0208804280AD12389A2886188284685
:105A4000FFF753FFE1882846FFF742FF17E0208861
:105A500008280AD12389A28861882846FFF7FBFE1F
:105A6000E1882846FFF7EEFE09E02389A2886188D5
:105A70002846FFF7A6FEE1882846FFF795FE70BD91
:105A80002DE9F04105460C4600260127608808B93B
:105A9000022600E00026A088012801D1022700E0AC
:105AA00001272088A0B92389A28861882846FFF7AA
:105AB00066FFE1882846FFF759FF23893A463146B9
:105AC0002846FFF712FFE1882846FFF701FF13E0A1
:105AD0002389A28861882846FFF707FFE1882846C6
:105AE000FFF7F6FE23893A4631462846FFF747FF7F
:105AF000E1882846FFF73AFFBDE8F0810A884B8825
:105B00001A438B881A43CB881A430B891A434B8953
:105B10001A438B891A43A0F8442070474FF6FF714F
:105B2000818000210180C180418001727047002185
:105B3000018041808180C180018141818181C18159
:105B40007047002101804180012181800021C180B6
:105B5000018170470021018041808180C1800181E5
:105B60004181818170470000002C014000340140D8
:105B70000004004000080040000C004021B10288F1
:105B800042F00102028004E002884FF6FE731A40E0
:105B90000280704731B1B0F8442042F40042A0F8CE
:105BA000442005E0B0F84420C2F30E02A0F84420DF
:105BB00070471AB183890B43838102E083898B4349
:105BC000838170478182704741EA0203A0F8483020
:105BD00070471AB183890B43838102E083898B4329
:105BE0008381704701894FF6F87211400181704737
:105BF0000A46002101894FF68F7319401143018134
:105C0000704730B504460D4629462046FFF7F0FFA1
:105C1000208940F00700208130BD2DE9F041044685
:105C20000D4616461F46602D06D13B4601223146E1
:105C30002046FFF75AFE05E03B460122314620464A
:105C4000FFF79DFE29462046FFF7D2FF208940F04E
:105C500007002081BDE8F08130B50C4600210189A4
:105C6000C9B24FF6FF7505EA0325154325432943BD
:105C7000018130BD2DE9F04105460E461746984694
:105C8000002443463A4631462846FFF7E5FF2C8973
:105C90004FF6F870044044F007044FF68F7004404C
:105CA00044F070042C81BDE8F081F0B504460D4647
:105CB00016461F463B46324629462046FFF7CCFF94
:105CC000208940F480402081F0BD018582827047A8
:105CD0000A46002101884FF68F7319401143018055
:105CE0007047F0B50C4615461E46002100220023E1
:105CF0000189028B038C4FF6F877394021434FF628
:105D0000FC473A4040F201173A434FF6DD773B40FB
:105D10004FF6FF7707EA06172F433B4301810283C3
:105D20000384F0BD0A460021018B4FF68F731940A2
:105D30001143018370470A460021018B48F6FF7327
:105D400019404FF6FF7303EA02231943018370479A
:105D50000A460021818B4FF68F73194011438183CE
:105D600070470A460021818B48F6FF7319404FF6B1
:105D7000FF7303EA022319438183704721B102882C
:105D800042F08002028004E002884FF67F731A40DE
:105D90000280704721B1828842F00402828004E0D0
:105DA00082884FF6FB731A408280704721B1828847
:105DB00042F00802828004E082884FF6F7731A40AE
:105DC0008280704721B1828842F00102828004E023
:105DD00082884FF6FE731A40828070470A4600217F
:105DE000018B4FF6F77319401143018370470A4640
:105DF0000021018B4FF2FF7319404FF6FF7303EA46
:105E000002231943018370470A460021818B4FF614
:105E1000F77319401143818370470A460021818B33
:105E20004FF2FF7319404FF6FF7303EA0223194341
:105E3000818370470A460021018B4FF6FB7319409E
:105E40001143018370470A460021018B4FF6FF334F
:105E500019404FF6FF7303EA022319430183704789
:105E60000A460021818B4FF6FB7319401143818351
:105E700070470A460021818B4FF6FF3319404FF6D9
:105E8000FF7303EA02231943818370470A46002106
:105E9000018B4FF67F7319401143018370470A4607
:105EA0000021018BC1F30E014FF6FF7303EA0223B9
:105EB0001943018370470A460021818B4FF67F7397
:105EC00019401143818370470A460021818BC1F339
:105ED0000E014FF6FF7303EA0223194381837047D3
:105EE0000A460021018C4FF6FD73194011430184CD
:105EF00070470A460021018C4FF6F7731940114391
:105F0000018470470A460021018C4FF6DF73194067
:105F10004FF6FF7303EA02131943018470470A46E0
:105F20000021018C4FF67F7319404FF6FF7303EA8F
:105F300002131943018470470A460021018C4FF671
:105F4000FF5319404FF6FF7303EA022319430184FC
:105F500070470A460021018C4FF2FF7319404FF63B
:105F6000FF7303EA02231943018470470A460021A4
:105F7000018C4DF6FF7319404FF6FF7303EA0233AD
:105F800019430184704730B5002301248C40A3B22B
:105F9000048C9C430484048C02FA01F5ADB22C43BA
:105FA000048430BD30B5002304248C40A3B2048C9B
:105FB0009C430484048C02FA01F5ADB22C430484A2
:105FC00030BD70B503460020002418461830012566
:105FD0008D40ACB21D8CA5431D8409B1082909D19F
:105FE00000EB6100056825F0700505600568154344
:105FF00005600EE00D1FC5F34E052844056825F425
:10600000E045056005684FF6FF7606EA022635434F
:10601000056070BD21B1028842F00202028004E0F6
:1060200002884FF6FD731A400280704721B1028842
:1060300042F00402028004E002884FF6FB731A402B
:106040000280704721B1828842F08002828004E0A1
:1060500082884FF67F731A408280704702884FF61D
:10606000F7731A40028002880A43028070478288D0
:106070004FF68F731A40828082880A43828070476D
:1060800002894FF6F8731A40028102890A4302819D
:10609000704702894FF67F731A40028102890A43D2
:1060A000028170478184704781857047818670477F
:1060B0000187704781877047A0F8401070470288B9
:1060C0004FF6FF431A40028002880A43028070475D
:1060D0000146888E70470146088F70470146888FB9
:1060E00070470146B1F8400070470146888C704700
:1060F0000146088D704702460020138A0B400BB101
:10610000012000E000207047CA430282704730B58A
:106110000246002000230024158A05EA0103958920
:1061200005EA010413B10CB1012000E0002030BDEC
:10613000CA4302827047000010B504462CB9012002
:10614000F64909680882002010BDF5490968086809
:106150008047F24800680A30F6E710B5EF4800685B
:10616000C078F0494978884213DCEC4800688078B0
:1061700078B9EA480068808858B9E8480068C0786B
:10618000E64909688872E64909684868804700203E
:1061900010BD0220FCE710B504462CB90120DF49F0
:1061A00009680882002010BDDD49096888688047B9
:1061B000DA4800680C30F6E710B5D84B1B68D97880
:1061C000D64B1B685879D84B1B689A699047044690
:1061D000D2480068807AE8B13CB9D04800680079BC
:1061E00018B9CE480068807808B1022010BD8CB97B
:1061F000CB490968C8688047C84800684079C749E2
:106200000968C872C5480068C078C449096808733D
:106210000020EBE70220E9E710B504462CB9022084
:10622000BE4909680882002010BD0020BF490880CF
:10623000BA480068007800F07F0018BBB7490968C9
:10624000487A00F0200131B1B849097841F00201E3
:10625000B64A117005E0B549097801F0FD01B34A6D
:10626000117000F0400131B1B049097841F00101ED
:10627000AE4A117005E0AD49097801F0FE01AB4A64
:1062800011703AE0A5480068007800F07F0001280E
:1062900001D1A648C8E7A1480068007800F07F0057
:1062A000022828D19D4A1268517901F00F0001F0AF
:1062B00080027AB19E4B03EB8002D2F8002C02F0F0
:1062C0003002102A16D1994A127842F00102974BF7
:1062D0001A700FE0964B03EB8002D2F8002C02F408
:1062E0004052B2F5805F05D1904A127842F0010227
:1062F0008E4B1A7001E0002096E789490968086909
:1063000080478A4890E72DE9F04784480068007884
:1063100000F07F08B8F1000F0AD180480068407A89
:1063200000F0DF007D49096848720020BDE8F08771
:10633000B8F1020F7ED179480068408818B97748D3
:106340000068007908B10220F0E7DFF8D8917348BF
:106350000068477927F080052C467048006840792E
:1063600000F0800038B1724901EB8400D0F8000CD5
:1063700000F0300606E06E4901EB8400D0F8000C16
:1063800000F4405699F80000A84204D91EB16348B1
:106390000068807A08B90220C8E707F0800080B161
:1063A000634901EB8400D0F8000C00F030001028A5
:1063B0004BD1E0B201F01DF8E0B2302100F09FFEB9
:1063C00043E05B4901EB8400D0F8000C00F440503E
:1063D000B0F5805F39D1E4B9564A92F82C10E0B29A
:1063E00001F091F8524A02EB8401D1F8001C4BF6FF
:1063F0008F7201EA020080F4805080F4005040F473
:10640000004141F080014A4B03EB8402C2F8001CBA
:106410001BE0E0B200F0D5FF454A02EB8401D1F861
:10642000001C4BF68F7201EA020080F4805080F469
:10643000005000E00FE040F4004141F080013C4B8F
:1064400003EB8402C2F8001C00BF354909684869A3
:10645000804700206AE700BF022067E72DE9F0418E
:106460002E480068467926F080073C462B48006895
:10647000407900F0800038B12D4901EB8400D0F85C
:10648000000C00F0300506E0294901EB8400D0F84B
:10649000000C00F4405523480078A04208D91F485A
:1064A0000068408820B91DB11C480068807A10B986
:1064B0000220BDE8F08106F08000A0B11C4A02EB8A
:1064C0008401D1F8001C48F6BF7201EA020080F096
:1064D000100040F4004141F08001154B03EB8402B1
:1064E000C2F8001C14E0124A02EB8401D1F8001C2F
:1064F0004BF68F7201EA020080F4805040F40041B4
:1065000041F080010A4B03EB8402C2F8001C00BF7B
:1065100003490968886980470020CAE71C200020D9
:10652000282000209C200020202000201420002073
:1065300000500040A020002010B5F7480068407AC5
:1065400040F02000F44909684872F4490968C869B4
:106550008047002010BD10B50246EF480068438A0E
:1065600032B98888C01AEC4C24682082002010BD03
:1065700008681844FBE72DE9F041E748006800F19E
:1065800010042688A068C0B1BEB1A588B54200D964
:106590003546A8B2A168884707462088401B20805E
:1065A000608828446080002000F07FFF8046AAB207
:1065B0004146384600F03EFD00BF208850B14FF400
:1065C0004050D74908800021084600F07AFF30206B
:1065D000D44908802088A188884204DB0320CE4962
:1065E0000968087218E02088002804DD0520CA49DF
:1065F0000968087210E0208870B90620C649096849
:1066000008720021C848006880B2801CC74A42F85E
:1066100010103020C3490880BDE8F0812DE9F04713
:10662000BD48006800F110052E88BB480068077A55
:10663000D6B9042F18D1BE48007801280FD1002107
:10664000B948006880B2801CB84A42F81010302067
:10665000B449088000BF0020B549087003E007274F
:106660001020B049088027E0AC88A64201D8042059
:1066700000E002200746B44200D93446A0B2A9681F
:1066800088478046002000F005FF8146A2B24946B7
:10669000404600F0B5FCA1B2002000F012FF2888AF
:1066A000001B288068882044688030209D4908802D
:1066B00000029B49088000BF974909680F72BDE836
:1066C000F08770B5022694480068447892480068C4
:1066D000007800F07F00002844D1092C03D1FFF797
:1066E0003CFD06465FE0052C14D18B480068C0785D
:1066F0007F280BDC88480068807838B986480068B5
:10670000808818B984480068807A08B1082565E057
:10671000002648E0032C0ED17F480068C07801288D
:1067200007D17D480068808818B9FFF705FF064645
:1067300039E0022637E0012C35D177480068C0786F
:1067400001280DD174480068808848B972480068F3
:10675000407A00F0200018B1FFF7D5FD064622E090
:10676000022620E06C480068007800F07F000128D5
:1067700005D10B2C17D1FFF71FFD064613E0664825
:106780000068007800F07F0002280BD1012C03D1B3
:10679000FFF7B9FD064606E0032C04D1FFF75EFEC5
:1067A000064600E002264EB1E0B2624A1268516924
:1067B00088470646032E01D109250FE00EB10825B2
:1067C0000CE0062500215848006880B2801C574A1A
:1067D00042F8101030205349088000BF4E49096824
:1067E0000D7270BD2DE9F84F4B48006845780027C1
:1067F000BA46062D1BD148480068007800F07F009B
:10680000002813D1444909688878012803D14949EF
:106810000968CF690AE0022803D1464909680F6A6E
:1068200004E0032802D1434909684F6AADE0002D16
:1068300067D1394800684088002862D1364800682E
:10684000C08802285DD1344800680079002858D1FA
:1068500031480068007800F07F0030B92E480068A9
:10686000808810B9AFF24F678FE02B48006800783E
:1068700000F07F00012811D12749096848792D4986
:1068800009688A690021904700287ED12248006863
:10689000807A002879D0AFF27F6776E01E480068E2
:1068A000007800F07F0002286FD11B480068407913
:1068B00000F00F0618480068407900F0700916488B
:1068C0000068407900F0800038B11B4901EB860078
:1068D000D0F8000C00F0300806E0174901EB860004
:1068E000D0F8000C00F4405814480078B0424CD95D
:1068F000B9F1000F49D1B8F1000F46D0AFF2E76708
:1069000043E0082D1CD104480068007800F07F00A7
:10691000D8BBAFF2DB7738E01C2000202820002015
:106920002C2000202E200020505C00400060004001
:106930001620002020200020005000409C20002035
:106940000A2D22D1C5480068007800F07F00012898
:106950001BD1C2480068807AB8B1C048006840883E
:1069600098B9BE480068007978B9BC480068C0880A
:1069700001280AD1B94909684879B94909688A6979
:106980000021904708B9AFF2F17757B1B3480068DA
:10699000A0F812A0B148006887610020B847002421
:1069A0000FE0AE4A12685078AD4A12681169884704
:1069B0000446032C05D10920A84909680872BDE8DE
:1069C000F88FA6480068008A4FF6FF71884204D10C
:1069D0000920A24909680872F1E7022C03D09F48F8
:1069E0000068008A20B908209C4909680872E6E717
:1069F0009A480068007800F08000E0B3974800688B
:106A0000C088009095480068008A0099884204D99F
:106A1000924900980968088223E090480068008A3B
:106A20008E490968C98888421BDA8C480068008A48
:106A30008B49096891F82C10884203DA00208949B3
:106A400008700EE085480068008A8549096891F859
:106A50002C1090FBF1F201FB120010B901208149CA
:106A600008707F48006890F82C107C48006881828C
:106A7000FFF7D4FD07E0FFE70320784909680872B3
:106A800000037949088000BF99E710B5774890F86E
:106A90002C10002000F037FD70480068007A0828AC
:106AA00005D14002704908801020714908806B4868
:106AB0000068007A092801D1012010BD0020FCE700
:106AC00038B501246B48006880B2001D6A4931F86E
:106AD000100080B201EB4000009060480068007A2E
:106AE000092832D0009800785C490968087000983D
:106AF000401C009000980078584909684870009838
:106B0000401C0090009800EB44000090009931F880
:106B1000020B009100F0A0FE5049096848800098DF
:106B200000EB44000090009931F8020B009100F056
:106B300093FE4A4909688880009800EB4400009061
:106B40000098008845490968C880012043490968C0
:106B5000087242480068C08810B9FFF7B2FD01E032
:106B6000FFF740FEFFF791FF38BD30B50146434BBC
:106B70001A78002014E00306414C04EB9353D3F839
:106B8000003C48F68F74234048F280042343C4B28B
:106B9000234304063A4D05EB9454C4F8003C401CD2
:106BA0009042E8D341F08003324C241F236030BD73
:106BB00010B52A480068047A022C01D0042C05D1B3
:106BC000FFF72CFD25480068047A1CE0062C19D13B
:106BD00022480068407805280ED1204800680078D7
:106BE00000F07F0040B91D490968C878FFF7BDFF74
:106BF00024490968086A80471949096888688047F4
:106C0000082400E00824154909680C72FFF73DFFCD
:106C100010BD10B511480068047A022C01D0042C74
:106C200001D1082412E0032C01D0052C05D1FFF777
:106C3000A2FC0A480068047A08E0072C05D108493C
:106C40000968C8688047082400E0082403490968E7
:106C50000C72FFF71AFF10BD704700001C200020C7
:106C600020200020162000202C200020A020002022
:106C70002E200020505C0040006000409C2000203E
:106C8000005000402820002010B50848084908603E
:106C90000220096808720748074908600748084940
:106CA0000860054909680868804710BD0022002077
:106CB0001C200020A020002020200020D020002028
:106CC0002820002008B50020009022E1C448008858
:106CD00000F00F00C34908700846007800287CD1F6
:106CE000C1480068C14908800846008800F03000AB
:106CF000BF490880BD48008800F44050BB49088067
:106D0000B94909684BF6BF7201EA020080F40050ED
:106D100080F0200040F4004141F08001B24A11604F
:106D2000AF48008800F0100090BB1046006848F69D
:106D30000F71084011460860FFF73AFFAA49096839
:106D40004BF6BF7201EA0200A849098801F480519C
:106D500009B180F48050A549098801F4005109B1B6
:106D600080F40050A249098801F0100109B180F0B7
:106D700010009F49098801F0200109B180F020002E
:106D800081B241F4004141F08001974A116008BD91
:106D9000FFE79548006880B20090BDF8000000F45D
:106DA0000060B0B390480068C0F30E0048F68F71E1
:106DB00008408D490860FFF783FE8B4909684BF650
:106DC000BF7201EA02008949098801F4805109B1C2
:106DD00080F480508549098800E056E001F40051B4
:106DE00009B180F400508249098801F0100109B10D
:106DF00080F010007E49098801F0200109B180F07F
:106E0000200081B241F4004141F08001764A1160D6
:106E1000BDE7FFE7BDF8000000F40040002878D08F
:106E200071480068C0F30E0048F68F7108406E4943
:106E30000860FFF7EEFE6C4909684BF6BF7201EA85
:106E400002006A49098801F4805109B180F4805038
:106E50006649098801F4005109B180F40050644981
:106E6000098801F0100109B180F01000604909881B
:106E700001F0200109B180F0200081B241F400410D
:106E800041F08001584A116081E75648007859491D
:106E900001EB8000D0F8000C80B20090BDF800003B
:106EA00000F40040C0B14F48007801EB8000D0F8FA
:106EB000000CC0F30E0048F68F710840494909786C
:106EC0004C4A02EB8101C1F8000C46490978491E81
:106ED000494A52F821008047BDF8000000F08000C8
:106EE000B8B140480078434901EB8000D0F8000C6D
:106EF00048F60F7108403B4909783E4A02EB810190
:106F0000C1F8000C37490978491E3C4A52F8210063
:106F1000804735484430006880B23149088000F429
:106F2000004000287FF4D2AE00BF30E710B5002447
:106F30004AE047F6FF702C49443108602848008831
:106F400000F00F002749087008460078294901EB36
:106F50008000D0F8000C84B204F40040C8B121488D
:106F6000007801EB8000D0F8000CC0F30E0048F66A
:106F70008F7108401B4909781E4A02EB8101C1F854
:106F8000000C18490978491E1B4A52F82100804715
:106F90001AE004F08000B8B112480078154901EBFE
:106FA0008000D0F8000C48F60F7108400D490978B0
:106FB000104A02EB8101C1F8000C0A490978491E08
:106FC0000E4A52F82100804707484430006880B2DA
:106FD0000349088000F400400028AAD110BD000039
:106FE0005C20002018200020005C00402C200020A5
:106FF0002E200020005000407C2000206020002037
:10700000F0B5144604F1010C4FEA6C07DFF848C0F4
:107010000CEB41033D460AE00678401C90F800C0A6
:1070200046EA0C2223F8022B9B1C401C6D1E002DEF
:10703000F2D1F0BDF0B5561C7510074E06EB4104B9
:107040002B4605E034F8047B20F8017B401C5B1ED6
:10705000002BF7D1F0BD000000600040FA49086045
:107060007047F948006880B27047F749091D086009
:107070007047F548001D006880B27047F24808303C
:10708000006880B27047F0490C3108607047EE48E4
:107090000C30006880B270474FF6F8710140EA4A40
:1070A000103211607047E8481030006880B27047B5
:1070B000E64B03EB8002C2F8001C70470146E34A2E
:1070C00002EB8100D0F8000C80B2704710B5DF4BA6
:1070D00003EB8002D2F8002C48F68F131A400A43C3
:1070E000DA4C04EB8003C3F8002C10BD0146D74AEC
:1070F00002EB8100D0F8000C00F4C060704730B59E
:10710000D24C04EB8003D3F8003C48F6BF7403EA8A
:10711000040201F010030BB182F0100201F0200311
:107120000BB182F0200242F4004343F08003C74DCC
:1071300005EB8004C4F8003C30BD30B5C34C04EB13
:107140008003D3F8003C4BF68F7403EA040201F489
:1071500080530BB182F4805201F400530BB182F4DE
:10716000005242F4004343F08003B84D05EB800425
:10717000C4F8003C30BD30B503460C461846FFF756
:107180009DFF0546012C07D125F48050AF4A02EB44
:107190008301C1F8000C08E0022C06D125F0100094
:1071A000AA4A02EB8301C1F8000C30BD0146A74A90
:1071B00002EB8100D0F8000C00F03000704701466F
:1071C000A24A02EB8100D0F8000C00F44050704756
:1071D00010B59E4B03EB8002D2F8002C48F6BF732B
:1071E00002EA030181F0100181F0200141F4004224
:1071F00042F08002954C04EB8003C3F8002C10BDD4
:1072000010B5924B03EB8002D2F8002C4BF68F7333
:1072100002EA030181F4805181F4005141F40042FB
:1072200042F08002894C04EB8003C3F8002C10BDAF
:10723000864A02EB8001D1F8001C41F4807148F6C7
:107240008F72114048F280021143804B03EB8002A1
:10725000C2F8001C70477D4A02EB8001D1F8001C87
:1072600048F68F62114048F280021143774B03EBDE
:107270008002C2F8001C7047744A02EB8001D1F80A
:10728000001C48F68F62114048F2800211436F4B98
:1072900003EB8002C2F8001C70476C4A02EB8001CD
:1072A000D1F8001C41F4807148F68F72114048F209
:1072B00080021143654B03EB8002C2F8001C70474B
:1072C000624A02EB8001D1F8001C41F4807148F65B
:1072D0008F72114048F2800211435C4B03EB800235
:1072E000C2F8001C7047594A02EB8001D1F8001C1B
:1072F00048F68F62114048F280021143534B03EB72
:107300008002C2F8001C70470146504A02EB81001F
:10731000D0F8000C00F03000102801D10120704797
:107320000020FCE70146494A02EB8100D0F8000C3E
:1073300000F44050B0F5805F01D10120704700207B
:10734000FCE7424A02EB8001D1F8001CC1F30E01B8
:1073500048F68F7211403D4B03EB8002C2F8001CCF
:1073600070473A4A02EB8001D1F8001C48F60F72D0
:107370001140364B03EB8002C2F8001C7047334AC1
:1073800002EB8001D1F8001C48F68F7211404CF2DC
:10739000800211432D4B03EB8002C2F8001C7047A2
:1073A0002A4A02EB8001D1F8001C48F68F72114086
:1073B00048F2C0021143254B03EB8002C2F8001CC7
:1073C0007047224A02EB8001D1F8001C01F4804191
:1073D00071B102EB8001D1F8001C48F68F721140A8
:1073E0004CF280021143194B03EB8002C2F8001CDF
:1073F0007047164A02EB8001D1F8001C01F04001F1
:1074000071B102EB8001D1F8001C48F68F72114077
:1074100048F2C00211430D4B03EB8002C2F8001C7E
:10742000704710B5094B03EB8002D2F8002C48F6E8
:107430008F731A4048F280031A430A43034C04EB4B
:107440008003C3F8002C10BD405C00400050004099
:107450000146FC4A02EB8100D0F8000C00F00F005E
:10746000704710B54A105200F74B1B689BB203EBF4
:10747000C003F64C44F8132010BD10B54A10530059
:10748000F14A126892B202EBC002121DEF4C44F8AE
:10749000123010BD0146EC48006880B200EBC1001C
:1074A000EA4A32F8100080B270470146E6480068A8
:1074B00080B200EBC100001DE44A32F8100080B237
:1074C0007047E14A126892B202EBC002921CDF4B95
:1074D00043F81210704702463E290BDD481101F0B7
:1074E0001F030BB9431E98B24FF4004343EA8023B5
:1074F000136007E0481001F001030BB1431C98B280
:1075000083021360704710B50246CF48006880B20E
:1075100000EBC200801DCD4C04EB40033E290BDD87
:10752000481101F01F040CB9441EA0B24FF40044EE
:1075300044EA80241C6007E0481001F001040CB10B
:10754000441CA0B284021C6010BD0146BE48006805
:1075500080B200EBC100801CBC4A32F81000C0F3BE
:10756000090070470146B848006880B200EBC100CE
:10757000801DB64A32F81000C0F30900704730B5DC
:107580004B105B00B04C2468A4B204EBC004AF4DB8
:1075900045F8143053105C00AB4B1B689BB203EBF7
:1075A000C0031B1D45F8134030BD10B54A105200F2
:1075B000A54B1B689BB203EBC003A44C44F81320FB
:1075C00010BD10B54A1053009F4A126892B202EBE8
:1075D000C002121D9D4C44F8123010BD01469A485D
:1075E000006880B200EBC100984A32F8100080B207
:1075F000704701469448006880B200EBC100001D4E
:10760000924A32F8100080B2704730B50B46012B19
:107610001FD18D49096889B201EBC001891C8B4DCE
:1076200005EB41043E2A0BDD511102F01F050DB997
:107630004D1EA9B24FF4004545EA8125256007E0BB
:10764000511002F001050DB14D1CA9B28D0225604B
:107650000AE0022B08D17C49096889B201EBC0011C
:10766000891C7A4C44F81120012B1FD176490968F6
:1076700089B201EBC001891D744D05EB41043E2A1E
:107680000BDD511102F01F050DB94D1EA9B24FF4CB
:10769000004545EA8125256007E0511002F001050B
:1076A0000DB14D1CA9B28D0225600AE0022B08D154
:1076B0006549096889B201EBC001891D634C44F832
:1076C000112030BD30B5034601291FD15E48006846
:1076D00080B200EBC300801C5C4D05EB40043E2AE9
:1076E0000BDD501102F01F050DB9451EA8B24FF475
:1076F000004545EA8025256007E0501002F00105AD
:107700000DB1451CA8B2850225600AE0022908D106
:107710004D48006880B200EBC300801C4B4C44F81D
:10772000102030BD30B5034601291FD146480068FE
:1077300080B200EBC300801D444D05EB40043E2A9F
:107740000BDD501102F01F050DB9451EA8B24FF414
:10775000004545EA8025256007E0501002F001054C
:107760000DB1451CA8B2850225600AE0022908D1A6
:107770003548006880B200EBC300801D334C44F8EC
:10778000102030BD01463048006880B200EBC100D7
:10779000801C2E4A32F81000C0F3090070470146E1
:1077A0002948006880B200EBC100801D274A32F8EA
:1077B0001000C0F30900704701462348006880B2FA
:1077C00000EBC100801D214A32F8100000F47C401B
:1077D00008B1012070471C48006880B200EBC1006E
:1077E000801C1A4A32F81000C0F3090008B10220C8
:1077F000F0E70020EEE710B5012910D1114B03EBA3
:107800008002D2F8002C48F68F731A4048F2C00369
:107810001A430C4C04EB8003C3F8002C11E002293E
:107820000FD1084B03EB8002D2F8002C48F68F737F
:107830001A404CF280031A43024C04EB8003C3F855
:10784000002C10BD00500040505C00400060004023
:10785000024641EA022070470146CAB20B1243EACF
:107860000220704700201D4908604FF43F401C492A
:107870000880084600881949091F086000207047E1
:107880002DE9F04104460E46154604F07F00FFF74F
:1078900001FE0746AAB239463046FFF7B1FBA9B24E
:1078A00004F07F00FFF70DFE0020BDE8F0812DE918
:1078B000F04104460E46002504F07F00FFF752FE1B
:1078C000054604F07F00FFF7F0FD07462A463946DB
:1078D0003046FFF7AFFB2846BDE8F081445C00402E
:1078E0002620002010B50020FDF764FB0121C8050B
:1078F000FDF70DFC10BD032022490860704710B54C
:10790000214CA07A18B105201E49086002E0012030
:107910001C49086000F013FB10BD08B54FF4A060CF
:10792000FCF712FC14208DF8000001208DF80100F6
:1079300000208DF8020001208DF803006846FCF756
:1079400008FC08BD10B504462CB14FF400410F48A7
:10795000FDF75DF904E04FF400410C48FDF755F9DF
:1079600010BD704710B50446012C04D1010308482E
:10797000FDF74BF904E04FF480510548FDF747F956
:1079800010BD00003421002000220020000C014026
:107990000008014010B501200D49087001F0CDFF2D
:1079A00010BD10B50B480078012810D10220FFF758
:1079B000FDFB202808D1402207498220FFF760FF05
:1079C00030210220FFF79BFB00200249087010BD08
:1079D00051210020502100201C22002010B53748E2
:1079E0000068374908800846008800F480603549FF
:1079F0000988084030B14FF6FF30304908603249FD
:107A0000486880472E48008800F400502D490988B6
:107A1000084018B14DF6FF702849086028480088D2
:107A200000F4805027490988084030B14EF6FF70B5
:107A300022490860002000F0B8F92148008800F4CD
:107A4000006020490988084060B12048007810B1E2
:107A500000F08BF902E0022000F0A7F94FF2FF706E
:107A6000164908601648008800F400701549098816
:107A7000084040B14FF6FF501049086014480078A4
:107A8000401C134908700E48008800F480700D49AE
:107A90000988084030B14FF6FF60084908600720A8
:107AA00000F083F90648008800F400400549098881
:107AB000084008B1FFF706F910BD0000445C004023
:107AC0005C20002026200020A0200020382100205B
:107AD0005E20002010B5FFF744FF002081490968AF
:107AE000887200F013F9FFF7BDFE00207E490860A0
:107AF00010BD10B500207B49096888727949096872
:107B0000C8727A48C0797749096848720020FFF73F
:107B1000C3FA4FF400710020FFF7D8FA10210020BB
:107B2000FFF7EDFA18210020FFF7A7FC58210020ED
:107B3000FFF797FC0020FFF79FFB6D4890F82C1093
:107B40000020FFF7E0FC0020FFF75AFB4FF4C06174
:107B50000120FFF7BBFA98210120FFF78EFC40219E
:107B60000120FFF7D0FC4FF440510120FFF7E5FA68
:107B70004FF4C0610220FFF7A9FA4FF48C71022084
:107B8000FFF76FFC40210220FFF79BFC2021022021
:107B9000FFF7B5FA0120544908600020FEF7E5FF21
:107BA00010BD50480068807A10B105204E49086029
:107BB000704704204C490860704770477047014681
:107BC00029B90120474A12681082002070474948AD
:107BD000FCE710B5044648492046FEF7BCFC10BD42
:107BE00010B5044645492046FEF7B5FC10BD70B5FA
:107BF00005463C480068808808B1022070BD00241A
:107C0000062D16D137480068007800F07F00012863
:107C10000FD1344800688078222802D1AFF23F04A7
:107C200012E030480068807821280DD1AFF25D0461
:107C30000AE02C480068007800F07F00212803D17A
:107C4000032D01D1AFF289040CB90220D6E72548F3
:107C50000068846100212348006841820020A04719
:107C60000020CBE71F480068C1782248016000204F
:107C7000704700B502461B480068007800F07F009E
:107C8000212804D10B2A02D1FFF7ECFF00BD02200E
:107C9000FCE710B504461A492046FEF75CFC10BD0F
:107CA00010B5044617492046FEF755FC10BD70B5C7
:107CB00005460C480068C478042C01DD002070BD26
:107CC000114800EBC4012846FEF745FCF7E70246E1
:107CD000002901DD02207047002A01DD0220FAE7B9
:107CE0000020F8E71C2000203421002010A5000807
:107CF000A0200020982000200C210020042100203A
:107D0000F4200020FC2000201421002010B50120C8
:107D1000FFF728FE0120FFF715FE01244D480460FF
:107D200000204D490880084600884A490860002024
:107D3000091D08604FF4E050474908800846008854
:107D400044490860002010BD10B501204149086079
:107D50000020091D0860FFF705FE0020FFF7F2FD77
:107D600003203C490860002010BD10B53948006868
:107D700084B244F0080437480460006884B244F0D8
:107D8000040434480460FFF7B6FD10BD10B5314857
:107D9000006884B224F004042E480460FFF7AFFDAD
:107DA0004FF43F402B49086010BD70B50546072DC4
:107DB00001D02A48057029480078082841D2DFE818
:107DC00000F0040A1016212E4142FFF7DFFF0620C3
:107DD000224908703BE0FFF7D9FF04201F490870D3
:107DE00035E002201D494870032008702FE01B4831
:107DF0004078401E194948700846407808B9042068
:107E0000087024E01348006884B244F0100411485C
:107E100004600520114908700A20487017E00F48D7
:107E20004078401E0D4948700846407840B90948DE
:107E3000006884B224F0100406480460062008702C
:107E400005E000BF00BF06200449087000BF00BF66
:107E500070BD0000405C0040262000203921002039
:107E60000CB50020019000906B48006840F4803011
:107E70006949086000BF6848006800F4003000905D
:107E80000198401C0190009818B90198B0F5A06FB6
:107E9000F1D16148006800F4003010B10120009079
:107EA00001E0002000900098012843D15B48006861
:107EB00040F01000594908600846006820F00300AF
:107EC00008600846006840F00200086052484068B8
:107ED000514948600846406848600846406840F498
:107EE000806048600846406820F47C10486008467E
:107EF000406840F4E81048600846006840F0807030
:107F0000086000BF4448006800F000700028F9D005
:107F10004148406820F003003F49486008464068F7
:107F200040F00200486000BF3B48406800F00C0091
:107F30000828F9D10CBD10B5FFF792FF10BD10B5A0
:107F40003548006840F00100334908600846406841
:107F500033490840304948600846006831490840C4
:107F60002D4908600846006820F480200860084613
:107F7000406820F4FE0048604FF41F008860FFF75F
:107F8000DAFF29482949086010BD10B500210020FA
:107F90000022214B5B6803F00C0121B1042906D0BB
:107FA000082928D107E0224B224C236027E0204BF0
:107FB000204C236023E0184B5B6803F47010164BD1
:107FC0005B6803F48032022303EB904022B91A4B22
:107FD0004343184C23600DE00F4B5B6803F4003300
:107FE00023B1154B4343134C236003E0104B434331
:107FF000104C236003E00E4B0E4C236000BF00BF0B
:10800000054B5B68C3F303130C4CE15C094B1B6825
:10801000CB40084C236010BD0010024000200240FD
:108020000000FFF8FFFFF6FE0040000808ED00E04A
:1080300000127A003C21002000093D004021002070
:108040000648804706480047FEE7FEE7FEE7FEE7F2
:10805000FEE7FEE7FEE7FEE7FEE7FEE73F7F0008FC
:1080600031410008704700BFFEE700BFFEE700BFD8
:10807000FEE700BFFEE7704770477047704710B5D6
:10808000FFF7ACFC10BD704710B54FF48020FCF733
:10809000C8F910BD10B50120FCF7B2F940B10120BC
:1080A000FCF7BFF99548006810B194480068804714
:1080B00010BD10B50220FCF7A3F940B10220FCF777
:1080C000B0F98F48006810B18D480068804710BD36
:1080D00010B50420FCF794F940B10420FCF7A1F995
:1080E0008848006810B187480068804710BD10B507
:1080F0000820FCF785F940B10820FCF792F9824886
:10810000006810B180480068804710BD10B510208D
:10811000FCF776F940B11020FCF783F97B48006842
:1081200010B17A480068804710BD10B52020FCF7D8
:1081300067F940B12020FCF774F97548006810B168
:108140007348006880474020FCF75AF940B140204E
:10815000FCF767F96F48006810B16E480068804707
:108160008020FCF74DF940B18020FCF75AF96A48AD
:10817000006810B16848006880474FF48070FCF7D1
:108180003FF948B14FF48070FCF74BF96348006841
:1081900010B16248006880474FF40070FCF730F976
:1081A00048B14FF40070FCF73CF95D48006810B12D
:1081B0005B480068804710BD10B54FF48060FCF745
:1081C0001FF948B14FF48060FCF72BF9554800685F
:1081D00010B15448006880474FF40060FCF710F974
:1081E00048B14FF40060FCF71CF94F48006810B12B
:1081F0004D48006880474FF48050FCF701F948B1C2
:108200004FF48050FCF70DF94848006810B147481A
:10821000006880474FF40050FCF7F2F848B14FF483
:108220000050FCF7FEF84248006810B14048006872
:1082300080474FF48040FCF7E3F848B14FF48040AA
:10824000FCF7EFF83B48006810B13A4800688047F7
:108250004FF40040FCF7D4F848B14FF40040FCF76D
:10826000E0F83548006810B133480068804710BD19
:108270003248008800F0010048B13048001F0088F3
:1082800000F0010018B14FF6FE702C4908807047CD
:1082900010B501212A48FDF73AFF28B101212848ED
:1082A000FDF746FF01F08CF910BD10B501212548FE
:1082B000FDF72DFF48B101212248FDF739FF224883
:1082C000006810B120480068804710BD1F48406812
:1082D000401D1E4948601E48007868B9084640683D
:1082E0001C49884208D319484068401A1749486019
:1082F00008460068401C086070470000902100207C
:1083000094210020982100209C210020A021002001
:10831000A4210020A8210020AC210020B0210020B1
:10832000B4210020B8210020BC210020C021002061
:10833000C4210020C8210020CC21002010080040CA
:10834000000C004000100040EC210020D82100204B
:10835000D421002040420F0010B5FFF7F0FD00F0DF
:108360006AFB01218802FBF7C8FF0121C802FBF765
:10837000C4FF01210803FBF7C0FF01214803FBF7FD
:10838000BCFF01218804FBF7B8FF0121C804FBF7FB
:10839000B4FF01210805FBF7B0FF01214804FBF7FA
:1083A000ACFF00F065FB00F03BFC002010BD0000BE
:1083B00010B500210F222F4B00BF08E0585C2E4C57
:1083C000645CA04201D0002010BD481C81B29142E3
:1083D000F4DB0120F8E710B54FF40061274800F006
:1083E000F7F810BD10B54FF40061224800F0F0F826
:1083F00010BD10B50F2422461F491E4800F007F992
:1084000010BD10B500F0A6FA00211D48FDF7B6FB1F
:1084100000214FF08040FDF7B1FB00211948FDF726
:10842000ADFB00211848FDF7A9FB00211748FDF717
:10843000A5FB00211648FDF7A1FB00211548FDF71B
:108440009DFB00211448FDF799FB10BD10B50B4CA6
:10845000206812490840B0F1005F02D0FFF7C2FF68
:108460006403206880F3088800BF00F0C1FA002090
:1084700010BD00000000040878A5000800400008B6
:10848000002C01400004004000080040000C0040A7
:108490000010004000140040003401400000FE2F96
:1084A00010B500206F4908706F49087040216F486F
:1084B00001F023FF40216E4801F01FFF00206D49AD
:1084C000087010BD01700A1242707047014600200A
:1084D00008784A7840EA0220704701700A0A427020
:1084E0000A0C82700A0EC27070470146002008789C
:1084F0004A7840EA02208A7840EA0240CA7840EA94
:10850000026070477047F8B507460C4615461E4690
:10851000ADF800408DF802508DF80360694638468A
:10852000FCF7C6FAF8BD10B501210820FCF7E2FD02
:1085300001210420FCF7DEFD01210820FCF7DAFD13
:1085400001211020FCF7D6FD01212020FCF7D2FDEF
:1085500001214020FCF7CEFD01218020FCF7CAFD5F
:1085600001210802FCF7C6FD01210846FCF7C2FD07
:1085700001210420FCF7CBFD01210820FCF7C7FDF9
:1085800001211020FCF7C3FD4FF480503A490860E8
:1085900010230322014638481438FFF7B4FF0423A0
:1085A000032201213548FFF7AEFF04230322D9023D
:1085B0003348FFF7A8FF314832490860486002207D
:1085C00008810120488100208881D020887310BD57
:1085D0002DE9F04106460C46E70AC4F30A0000B153
:1085E0007F1C3520FCF7E0F9FBF743FF002507E08F
:1085F0003046FBF783FF2449087006F500666D1CC2
:10860000BD42F5DBFBF741FF0020BDE8F0812DE91D
:10861000F04105460E46174600243520FCF7C4F904
:10862000FBF727FF00BF0AE03019FFF75EFF804627
:1086300060194146FCF732F813490870241DBC420A
:10864000F2D3FBF722FF0020BDE8F08170B50446AD
:108650000D46164632462146284601F035FE0020DA
:1086600070BD000050210020512100201C2200205C
:108670005C22002052210020140801400018014013
:10868000001001409C220020532100200EB5EC4830
:10869000FCF744FE40F2E730ADF804004720ADF8A7
:1086A00000000020ADF80600ADF802006946E4487D
:1086B000FCF708FF0121E248FDF726FD0021E04814
:1086C000FDF75CFB01221146DD48FDF772FA00213F
:1086D000DB48FDF753FA0EBD70B54FF4B471B1F13C
:1086E000807F00D31DE021F07F40401E4FF0E0224C
:1086F000506150170F22002807DA13071D0ED14BC7
:1087000000F00F04241F1D5503E013071C0ECE4B71
:108710001C5400BF00204FF0E02290610720106140
:1087200000BF0420FBF75FFD70BD7CB505460C461D
:108730002846FBF776FE009500208DF804008DF8A2
:10874000054001208DF806006846FBF7F3FD7CBD6F
:1087500010B500210420FCF7C1FA08210120FFF721
:10876000E4FF0D210220FCF7B9FA08218802FFF787
:10877000DCFF10BD08B54FF4A060FBF7E5FC1E2040
:108780008DF8000000208DF801008DF80200012016
:108790008DF803006846FBF7DCFC32208DF8000002
:1087A00001208DF8010000208DF8020001208DF8D5
:1087B00003006846FBF7CDFC36208DF80000012051
:1087C0008DF801008DF802008DF803006846FBF774
:1087D000C0FC14208DF8000001208DF8010002205B
:1087E0008DF8020001208DF8030006208DF80000AE
:1087F00002208DF8010000208DF8020001208DF884
:1088000003006846FBF7A5FC28208DF80000022035
:108810008DF8010000208DF8020001208DF8030082
:108820006846FBF796FC08BD10B5FCF7F5FA4FF467
:108830008030FCF711FBFCF74EFB012826D11020FD
:10884000FBF70CFE0220FBF7F5FD0020FCF789FB8F
:108850000020FCF798FB4FF48060FCF78BFB4FF493
:10886000E0114FF48030FCF75FFB0120FCF768FB60
:1088700000BF3920FCF713FB0028FAD00220FCF7D8
:1088800062FB00BFFCF768FB0828FBD110BD10B5E8
:10889000FFF7CAFFFFF76EFFFFF745FEFFF758FF30
:1088A000FFF71AFFFFF7F2FEFFF737F8FFF71AF8A6
:1088B000FEF7EAF910BD3EB504466448FCF72EFD0C
:1088C0006348B0FBF4F4601E80B2ADF804004720AA
:1088D000ADF800000020ADF80600ADF802006946D2
:1088E0005A48FCF7EFFD01215848FDF70DFC002127
:1088F0005648FDF743FA012211465448FDF759F94D
:1089000000215248FDF73AF93EBD1FB504466846BE
:10891000FDF70DF96020ADF80000ADF8064000202D
:10892000ADF808000120ADF8020069464948FCF79F
:1089300048FE08214748FDF75AFA69464548FCF7C2
:10894000FEFD08214348FDF749FA01214148FDF7A2
:1089500021F91FBD002040490861C860142048610A
:1089600000208861C8610846006840F00100086086
:108970000846406839490840374948600846006859
:1089800037490840344908600846006820F48020D0
:1089900008600846406820F4FE00486000208860B7
:1089A000704710B527480838006840F00400254992
:1089B000083908602848C06940F080502649C861DD
:1089C0000846C06940F00060C8612648406840F42D
:1089D0008070244948600846006840F00400086040
:1089E0000846006840F002000860FBF7ABFB10BDD2
:1089F000012080F3138800BF00BF00BF00BF00BF8D
:108A000000BFBFF34F8F00BF00BF00BF0D480C3841
:108A1000006800F4E06014490843001D09490C395E
:108A2000086000BF00BF00BFBFF34F8F00BF00BF93
:108A300000BF00BFFEE710B50C48FCF7EEFA10BD12
:108A4000000C004018ED00E000E400E000100040E1
:108A500040420F0000080040001002400000FFF8F4
:108A6000FFFFF6FE007000400000FA05AC22002077
:108A700010B5FFF715FDFFF70AFF00F06BFD00F0E2
:108A800027FD00F012FA00F077FA00F069FC00F020
:108A9000D7FC0021694801F03AFA00F0E9FE10BD68
:108AA000002070476648007810B1002064490870C3
:108AB0006448007810B100206249087000207047B7
:108AC00010B561480078B8B901205F4908700020EE
:108AD0005E4908805E4908804FF400715D4801F0EE
:108AE0000CFC4FF400715C4801F007FC5A485B49EC
:108AF000086057485A4908605A48007800287DD0D5
:108B000000205849087054480478142C2FD008DCF1
:108B1000102C0FD0112C15D0122C1BD0132C4BD194
:108B200020E0172C30D0182C36D0702C24D0712C8B
:108B300042D139E0454B474A45480188464800F054
:108B4000EBFF39E0414B434A41480188424800F07D
:108B5000F8FF31E03D4B3F4A3D4801883E4800F078
:108B6000E4FF29E039493B4800F0CFFF24E03749D2
:108B7000384800F0CAFF1FE0344B364A34480188B9
:108B8000354800F0F5FF17E0304B324A3048018895
:108B9000314801F042F80FE02C4B2E4A2C48018856
:108BA0002D4801F0A7F807E0284B2A4A28480188F9
:108BB000294801F020F900BF00BF4FF47A72234822
:108BC0000188244800F0A9FE2748007888B1122CBB
:108BD0000FD1002024490870C82000F09AFDFFF74B
:108BE000B3F84FF4FA7000F094FDFFF70AFCFFF7BA
:108BF000FFFE132C01D0142C10D100E00EE0132C3A
:108C000001D1012000E0002018490870132C02D186
:108C10004FF0FF3000E00A2015490860002010BD29
:108C200000201249087008E0FFF74AFF0F4800785B
:108C300018B9FFF737FFFFF733FFF5E74C2F002098
:108C4000682100206921002064210020602100208B
:108C500062210020C0220020C0240020F821002032
:108C6000F4210020F0210020522100205821002072
:108C70005C21002038B5044600BF2089ADF8000013
:108C800003208DF8020010208DF80300694620684B
:108C9000FBF70EFF00BF00BF6089ADF800000320A6
:108CA0008DF8020014208DF8030069466068FBF718
:108CB000FFFE00BF204601F07FFB204601F084FB51
:108CC000204601F08DFB204601F076FB38BD2DE9F2
:108CD000F04105460F4614461E46284601F0D8FBD3
:108CE000B0F1000802D04046BDE8F081A87B00F05A
:108CF000FE01284601F082FB20B1284601F0EDFB81
:108D00000120F1E73946284601F078FB04E014F829
:108D1000011B284601F072FB301EA6F10101CEB204
:108D2000F5D1284601F0D9FB0020DDE72DE9F05F01
:108D30000446884616461D46204601F0A9FBB0F1C0
:108D4000000902D04846BDE8F09FA07B00F0FE017C
:108D5000204601F053FB20B1204601F0BEFB01206C
:108D6000F1E74146204601F049FB204601F090FB27
:108D7000A07B40F00101204601F040FB5EE0A246EE
:108D80000027504601F02CFBBB4615E07806070E85
:108D9000504601F019FB504601F00EFB504601F021
:108DA00017FB504601F008FB504601F01DFB07433E
:108DB0000BF1010000F0FF0BBBF1080FE6DB5046A2
:108DC00001F002FB06F8017B012D1AD100BF2046FD
:108DD00001F0FAFA204601F0EFFA204601F000FB1C
:108DE000204601F0E9FA204601F0F2FA204601F0AF
:108DF000E3FA204601F0E8FA204601F0DDFA00BF70
:108E00001AE000BF204601F0DFFA204601F0D4FA54
:108E1000204601F0E1FA204601F0CEFA204601F0AA
:108E2000D7FA204601F0C8FA204601F0CDFA2046D4
:108E300001F0C2FA00BF00BF681EC5B2002D9ED16E
:108E4000204601F04AFB00207DE700000246002199
:108E500000BF0BE0414800EB01100078904203D1C5
:108E60003E4800EB01107047481CC1B20229F1D303
:108E70000020F8E770B505462846FFF7E7FF041E17
:108E800008D0012061680870607818B104F108000A
:108E900000F0BEFB70BD10B50220FFF7EBFF10BD68
:108EA00010B50120FFF7E6FF10BD10B501202C49D9
:108EB000086040032B49086104230322012128484C
:108EC0001038FFF720FB04230322D9022548FFF7BF
:108ED0001AFB00202449087024490870AFF23F00B3
:108EE00023490860AFF251002249086010BD1E48B6
:108EF000007810B91D48007808B1012070470020A3
:108F0000FCE701460022012902D002290BD105E02D
:108F100013480838006800F0010204E01148806836
:108F2000C0F3403200BF00BF0AB9012070470020E3
:108F3000FCE730B504460B462046FFF787FF051EC9
:108F400000D06B7030BD10B503461846FFF77EFFAA
:108F5000041E01D0607810BD0020FCE76C210020C9
:108F600010180140001001406821002069210020F4
:108F700090210020C421002010B54FF400505C491E
:108F8000086040005B4948611023032241105848A3
:108F90001438FFF7B8FA1023032299025548FFF757
:108FA000B2FA10BD78B1012802D0022814D105E030
:108FB0004FF400514E4A121F11600DE04FF48041F2
:108FC0004C4A116108E04FF40051494A121F1160E8
:108FD0004900484A116100BF00BF704770B10128C5
:108FE00002D0022812D104E04FF40051404A11602F
:108FF0000CE04FF480413F4A516107E04FF40051CB
:109000003B4A116049003B4A516100BF00BF7047B5
:1090100008B101280FD136490C390968C1F3403134
:1090200021B14FF40051324A116004E04FF4005175
:109030002F4A121F116008B102280DD12D498968ED
:10904000C1F3803121B14FF480412A4A516103E0DC
:109050004FF48041274A11617047024600217AB1DE
:10906000012A02D0022A17D105E021480C380068F5
:10907000C0F3403110E01F488068C0F380310BE03E
:109080001B480C380068C0F3403001431948806821
:10909000C0F38030014300BF00BF002901DD012083
:1090A00070470020FCE700B50120FFF797FF00BDE7
:1090B00000B50220FFF792FF00BD70B505460C46D3
:1090C000012D02D0022D0ED106E02246AFF2290179
:1090D000002000F04CFA06E02246AFF22B010120FE
:1090E00000F045FA00BF00BF2846FFF75BFF70BDE8
:1090F0001414014000200140F0B503460C4615460B
:10910000642093FBF0F0C6B2642093FBF0F700FB01
:109110001730C1B2132E02DD01F16400C1B208465E
:10912000CF1701EB977701EBA707BAB2072092FBA5
:10913000F0F700FB172082B25719601EDFF8E4C277
:109140001CF80000384482B2CF1701EB9777BF10AC
:10915000A1EB87071FB9032C01DA501E82B207204A
:1091600092FBF0F700FB1720C0B2F0BD0146CA1712
:1091700001EB92729210A1EB820292B9642091FBF2
:10918000F0F200FB121050B94FF4C87091FBF0F2EE
:1091900000FB121008B9012070470020FCE70120F5
:1091A000FAE70020F8E770B5002600240025FCF758
:1091B00025F806469C48B6FBF0F49C480088A0427F
:1091C0003CD09A490C8040F2B27510E02846FFF777
:1091D000CDFF40B1B4F5B77F02D3A4F5B77404E076
:1091E000681C85B206E0A4F26D14681C85B2B4F563
:1091F000B67FEBD800BF8E488580002516E08C49ED
:109200008888FFF7B3FF30B1012D04D11D2C01D3A5
:109210001D3C09E00CE08748405DA04203D885482A
:10922000405D241A00E003E0681C85B21C2CE6D2E5
:1092300000BF681C7E498871601CC8717A48B6FB03
:10924000F0F100FB11644FF46160B4FBF0F0784979
:1092500008704FF46160B4FBF0F100FB11403C2159
:10926000B0FBF1F0724948704FF46160B4FBF0F16B
:1092700000FB11403C21B0FBF1F201FB12006C49F4
:1092800088700B46DA7999799888FFF735FF684935
:109290000872002070BD2DE9F05F06460F4690462B
:1092A0009946DDE90AAB002440F2B270864203DB46
:1092B00040F63300864202DD0120BDE8F09F40F217
:1092C000B2750AE02846FFF751FF10B15A4804442E
:1092D00001E05A480444681C85B2B542F2DB781EAE
:1092E000C7B2002510E05348405D40F2A321484337
:1092F00004EBC0143046FFF739FF18B1012D01D13E
:1093000049480444681C85B2BD42ECDBA8F1010069
:1093100040F2A321484304EBC014C9EB4910C0EB51
:10932000092004EB0014CAEB0A1004EB80045C442F
:10933000FBF7ABFF2046FBF775FFFBF7A6FF00200E
:10934000BBE71CB53A48807839494978384CCDE9B3
:1093500000102378E279A179A088FFF79CFF1CBD5B
:1093600010B501214FF0C050FBF7D1FE0120FBF7F3
:10937000F8FC0420FAF78BFF45F25551884229D0BA
:10938000FAF750FF0120FBF722FE00BF4120FBF758
:1093900086FD0028FAD04FF48070FBF734FE0120E0
:1093A000FBF737FEFBF77AFFFBF76FFF012108465B
:1093B000FBF704FFFBF769FF47F6FF70FBF73FFF82
:1093C000FBF763FFFFF7BDFF45F255510420FAF7A5
:1093D00052FF0EE07B20FBF762FD10B97A20FBF70D
:1093E0005EFDFBF75BFF01210846FBF7E7FEFBF79D
:1093F0004CFFFFF7D8FEFBF7BBFE10BD10B50120F8
:10940000FBF771FF08B1FFF7CEFE0220FBF76BFF01
:1094100010B10220FBF777FF0120FBF774FFFBF789
:1094200034FF10BD93A50008805101008C2100205D
:10943000C026002087A500080085E2018033E101F5
:1094400010B52248FFF716FC10BD70B504460D4656
:10945000164633462A4621461C48FFF767FC70BD76
:1094600070B504460D46164633462A46214617482F
:10947000FFF72DFC70BD70B504460D4601232A464A
:1094800021461248FFF752FC70BD13B50446012374
:1094900001AA21460D48FFF71AFC1CBDF8B5064687
:1094A0000D461446FF2C0BD069463046FFF7E3FF0C
:1094B0009DF80000A043009025409DF80000054362
:1094C00029463046FFF7E1FFF8BD00009C2200204E
:1094D00000201049086010490860104908601049D0
:1094E0000860104908601049086010490860104978
:1094F0000860104908601049086010490860104968
:109500000860104908601049086010490860104957
:1095100008607047902100209421002098210020AD
:109520009C210020A0210020A4210020A8210020AF
:10953000AC210020B0210020B4210020B82100205F
:10954000BC210020C0210020C4210020C82100200F
:10955000CC21002010B50020BB490860BB49086041
:10956000BB4908608021BB4800F0C7FE10BD2DE953
:10957000F04105460E4617460024A0460EE0B548C9
:1095800000EBC400406838B1B24850F8340018B15C
:1095900008F1010000F0FF08601CC4B2102CEEDBE3
:1095A000AC4800EBC5004660AA4840F83570B8F1F9
:1095B000000F03D10121A848FCF7E0FABDE8F081D3
:1095C00070B5002400251BE0A24800EBC4004068F1
:1095D000A0B1A04850F8340080B19E4850F8340043
:1095E000401E9C4941F83400084650F8340018B930
:1095F00001EBC40148688047681CC5B2601CC4B256
:10960000102CE1DB1DB900219348FCF7B7FA70BDBF
:109610000121924A11709249096801609049496894
:10962000416000211170704700B503468648036011
:109630008C48FFF7EDFF00BD1CB5034600246846CB
:10964000FFF7E6FF18680099884207D81868009964
:10965000884205D158680199884201D300201CBD79
:1096600000981968441AB4F57A6F01D97E4802E06F
:109670007E4904FB01F00446019820445968441ACD
:109680002046ECE700B57748FFF7D6FF4FF47A7134
:10969000B0FBF1F06C490968884201D9012000BD96
:1096A0000020FCE7642200FB02F12DE000BF00BFB8
:1096B00000BF00BF00BF00BF00BF00BF00BF00BFB2
:1096C00000BF00BF00BF00BF00BF00BF00BF00BFA2
:1096D00000BF00BF00BF00BF00BF00BF00BF00BF92
:1096E00000BF00BF00BF00BF00BF00BF00BF00BF82
:1096F00000BF00BF00BF00BF00BF00BF00BF00BF72
:1097000000BF00BF00BF00BF0A1EA1F10101CDD103
:10971000704730B5044604EB8400450002E00120A8
:10972000FFF7C0FF281EA5F10105F8D130BD00EB01
:10973000800251002DE000BF00BF00BF00BF00BF8E
:1097400000BF00BF00BF00BF00BF00BF00BF00BF21
:1097500000BF00BF00BF00BF00BF00BF00BF00BF11
:1097600000BF00BF00BF00BF00BF00BF00BF00BF01
:1097700000BF00BF00BF00BF00BF00BF00BF00BFF1
:1097800000BF00BF00BF00BF00BF00BF00BF00BFE1
:1097900000BF0A1EA1F10101CDD1704737E000BF23
:1097A00000BF00BF00BF00BF00BF00BF00BF00BFC1
:1097B00000BF00BF00BF00BF00BF00BF00BF00BFB1
:1097C00000BF00BF00BF00BF00BF00BF00BF00BFA1
:1097D00000BF00BF00BF00BF00BF00BF00BF00BF91
:1097E00000BF00BF00BF00BF00BF00BF00BF00BF81
:1097F00000BF00BF00BF00BF00BF00BF00BF00BF71
:1098000000BF00BF00BF00BF00BF00BF00BF011E00
:10981000A0F10100C3D1704700BF00BF00BF00BF6F
:1098200000BF00BF00BF00BF00BF00BF00BF00BF40
:1098300000BF00BF00BF00BF00BF00BF00BF00BF30
:1098400000BF00BF70470000D0210020E8210020A9
:10985000EC210020CC260020000C0040D421002068
:10986000D8210020E021002000286BEE40420F00AC
:109870000020FD490860FD490860FD4908707047F7
:109880002DE9F04782460E4615461F464FF03C082C
:109890003846FFF7C9FE002431E0281B1FFA80F983
:1098A000C84501DA404600E0484681464021F1487B
:1098B00000F023FD31194A46EE4800F005FD402234
:1098C0004FF48C71EB48FDF79BFB40210220FDF724
:1098D000F8FD0220FDF77CFC00BF0220FDF766FCCE
:1098E000202803D0FFF7CEFE0028F6D0FFF7CAFEEF
:1098F00010B10720BDE8F08704EB080084B2AC4249
:10990000CBDB0020F6E710B504460023AFF28F0250
:109910002146D94800F0B1FC10BD7CB504460D4687
:1099200016460020AFF2A70133462A46CDE90010C3
:109930002146D14800F0EBFB7CBD70B50026CF4836
:10994000007858B10020CD49087040229821CC48B9
:10995000FDF770FB0120FDF753FC3C26002E2ADDAD
:10996000C148006838B3C148006820B300241EE035
:10997000BD48006810B1BD48006800B919E0C04892
:10998000015DBA480368B8480268BB4800F0E5FBCF
:1099900005461DB90120B64908700AE0062D04D11C
:1099A0004FF47A70FFF7AFFF03E0601C84B2B4425B
:1099B000DEDB00BF0026002070BD70B504460D46FA
:1099C00016460020AA490870A7480460A748056009
:1099D000FFF7B3FF3046FFF727FE00BFA44800782B
:1099E00018B9FFF74FFE0028F8D000209E49086004
:1099F0009E4908609E48007808B1002070BD08208C
:109A0000FCE730B5034600200BE013F8104001F8E6
:109A1000104033F8104025124400641C0D55441CBE
:109A2000A0B202EBD275B0EB650FEEDB30BD30B506
:109A30000346002015E04400641C1C5D21F8104022
:109A400031F810404FF6FF7505EA042421F8104064
:109A500031F8104013F810502C4321F81040441CEA
:109A6000A0B202EBD275B0EB650FE4DB30BD2DE99F
:109A7000F05F05460E4617469846DDE90BABDDF86C
:109A800028900024285D3870641C285D88F8000048
:109A9000641C285D89F80000641C281900F069FA2C
:109AA000AAF80000A41C2819CBF80000B44202DD7B
:109AB0000120BDE8F09F0020FBE72DE9F05F05469F
:109AC0000E4617469846DDE90BABDDF828900024DA
:109AD000285D3870641C285D88F80000641C281913
